{
  "_format": "hh-sol-artifact-1",
  "contractName": "NomadicVault",
  "sourceName": "contracts/NomadicVault.sol",
  "abi": [
    {
      "inputs": [
        {
          "internalType": "address",
          "name": "_hhTemplate",
          "type": "address"
        }
      ],
      "stateMutability": "nonpayable",
      "type": "constructor"
    },
    {
      "anonymous": false,
      "inputs": [
        {
          "indexed": false,
          "internalType": "uint256",
          "name": "_daoId",
          "type": "uint256"
        }
      ],
      "name": "DAOProposed",
      "type": "event"
    },
    {
      "anonymous": false,
      "inputs": [
        {
          "indexed": false,
          "internalType": "uint256",
          "name": "_daoId",
          "type": "uint256"
        },
        {
          "indexed": false,
          "internalType": "address",
          "name": "_daoAddress",
          "type": "address"
        },
        {
          "indexed": false,
          "internalType": "string",
          "name": "_daoName",
          "type": "string"
        }
      ],
      "name": "HHouseDeployed",
      "type": "event"
    },
    {
      "anonymous": false,
      "inputs": [
        {
          "indexed": false,
          "internalType": "uint256",
          "name": "_stayId",
          "type": "uint256"
        },
        {
          "indexed": false,
          "internalType": "address",
          "name": "_newMember",
          "type": "address"
        }
      ],
      "name": "JoinStay",
      "type": "event"
    },
    {
      "anonymous": false,
      "inputs": [
        {
          "indexed": false,
          "internalType": "uint256",
          "name": "_stayId",
          "type": "uint256"
        },
        {
          "indexed": false,
          "internalType": "address",
          "name": "_trustee",
          "type": "address"
        }
      ],
      "name": "ProposeStay",
      "type": "event"
    },
    {
      "anonymous": false,
      "inputs": [
        {
          "indexed": false,
          "internalType": "uint256",
          "name": "_stayId",
          "type": "uint256"
        }
      ],
      "name": "StayIsFull",
      "type": "event"
    },
    {
      "inputs": [],
      "name": "checkDeadlines",
      "outputs": [],
      "stateMutability": "nonpayable",
      "type": "function"
    },
    {
      "inputs": [],
      "name": "daoId",
      "outputs": [
        {
          "internalType": "uint256",
          "name": "_value",
          "type": "uint256"
        }
      ],
      "stateMutability": "view",
      "type": "function"
    },
    {
      "inputs": [],
      "name": "getActiveDAOs",
      "outputs": [
        {
          "components": [
            {
              "internalType": "uint256",
              "name": "id",
              "type": "uint256"
            },
            {
              "internalType": "address",
              "name": "addr",
              "type": "address"
            },
            {
              "internalType": "bool",
              "name": "isActive",
              "type": "bool"
            },
            {
              "internalType": "address[]",
              "name": "coreTeam",
              "type": "address[]"
            },
            {
              "internalType": "uint256",
              "name": "coreTeamCount",
              "type": "uint256"
            },
            {
              "internalType": "string",
              "name": "name",
              "type": "string"
            },
            {
              "internalType": "string",
              "name": "descriptionURI",
              "type": "string"
            }
          ],
          "internalType": "struct NomadicVault.HackerHouse[]",
          "name": "",
          "type": "tuple[]"
        }
      ],
      "stateMutability": "view",
      "type": "function"
    },
    {
      "inputs": [],
      "name": "getFormingDAOs",
      "outputs": [
        {
          "components": [
            {
              "internalType": "uint256",
              "name": "id",
              "type": "uint256"
            },
            {
              "internalType": "address",
              "name": "addr",
              "type": "address"
            },
            {
              "internalType": "bool",
              "name": "isActive",
              "type": "bool"
            },
            {
              "internalType": "address[]",
              "name": "coreTeam",
              "type": "address[]"
            },
            {
              "internalType": "uint256",
              "name": "coreTeamCount",
              "type": "uint256"
            },
            {
              "internalType": "string",
              "name": "name",
              "type": "string"
            },
            {
              "internalType": "string",
              "name": "descriptionURI",
              "type": "string"
            }
          ],
          "internalType": "struct NomadicVault.HackerHouse[]",
          "name": "",
          "type": "tuple[]"
        }
      ],
      "stateMutability": "view",
      "type": "function"
    },
    {
      "inputs": [
        {
          "internalType": "uint256[]",
          "name": "_stayIndexes",
          "type": "uint256[]"
        }
      ],
      "name": "getShortStays",
      "outputs": [
        {
          "components": [
            {
              "internalType": "uint256",
              "name": "id",
              "type": "uint256"
            },
            {
              "internalType": "string",
              "name": "descriptionURI",
              "type": "string"
            },
            {
              "internalType": "address",
              "name": "trustee",
              "type": "address"
            },
            {
              "internalType": "uint256",
              "name": "nPersons",
              "type": "uint256"
            },
            {
              "internalType": "uint256",
              "name": "slotsReserved",
              "type": "uint256"
            },
            {
              "internalType": "uint256",
              "name": "amountFunded",
              "type": "uint256"
            },
            {
              "internalType": "address[]",
              "name": "members",
              "type": "address[]"
            },
            {
              "internalType": "uint256",
              "name": "totalPrice",
              "type": "uint256"
            },
            {
              "internalType": "uint256",
              "name": "pricePerPerson",
              "type": "uint256"
            },
            {
              "internalType": "uint256",
              "name": "deadline",
              "type": "uint256"
            },
            {
              "internalType": "bool",
              "name": "isCreatorSlot",
              "type": "bool"
            },
            {
              "internalType": "bool",
              "name": "isActive",
              "type": "bool"
            },
            {
              "internalType": "bool",
              "name": "isFull",
              "type": "bool"
            }
          ],
          "internalType": "struct NomadicVault.ShortStay[]",
          "name": "",
          "type": "tuple[]"
        }
      ],
      "stateMutability": "view",
      "type": "function"
    },
    {
      "inputs": [
        {
          "internalType": "uint256",
          "name": "",
          "type": "uint256"
        }
      ],
      "name": "hhAddresses",
      "outputs": [
        {
          "internalType": "address",
          "name": "",
          "type": "address"
        }
      ],
      "stateMutability": "view",
      "type": "function"
    },
    {
      "inputs": [],
      "name": "hhTemplate",
      "outputs": [
        {
          "internalType": "address",
          "name": "",
          "type": "address"
        }
      ],
      "stateMutability": "view",
      "type": "function"
    },
    {
      "inputs": [
        {
          "internalType": "uint256",
          "name": "",
          "type": "uint256"
        }
      ],
      "name": "hhouses",
      "outputs": [
        {
          "internalType": "uint256",
          "name": "id",
          "type": "uint256"
        },
        {
          "internalType": "address",
          "name": "addr",
          "type": "address"
        },
        {
          "internalType": "bool",
          "name": "isActive",
          "type": "bool"
        },
        {
          "internalType": "uint256",
          "name": "coreTeamCount",
          "type": "uint256"
        },
        {
          "internalType": "string",
          "name": "name",
          "type": "string"
        },
        {
          "internalType": "string",
          "name": "descriptionURI",
          "type": "string"
        }
      ],
      "stateMutability": "view",
      "type": "function"
    },
    {
      "inputs": [
        {
          "internalType": "uint256",
          "name": "_daoId",
          "type": "uint256"
        }
      ],
      "name": "joinCoreTeam",
      "outputs": [],
      "stateMutability": "nonpayable",
      "type": "function"
    },
    {
      "inputs": [
        {
          "internalType": "uint256",
          "name": "_stayId",
          "type": "uint256"
        }
      ],
      "name": "joinShortStay",
      "outputs": [],
      "stateMutability": "payable",
      "type": "function"
    },
    {
      "inputs": [],
      "name": "numOfCoreTeam",
      "outputs": [
        {
          "internalType": "uint256",
          "name": "",
          "type": "uint256"
        }
      ],
      "stateMutability": "view",
      "type": "function"
    },
    {
      "inputs": [],
      "name": "owner",
      "outputs": [
        {
          "internalType": "address",
          "name": "",
          "type": "address"
        }
      ],
      "stateMutability": "view",
      "type": "function"
    },
    {
      "inputs": [
        {
          "internalType": "string",
          "name": "_name",
          "type": "string"
        },
        {
          "internalType": "string",
          "name": "_descriptionURI",
          "type": "string"
        },
        {
          "internalType": "uint256",
          "name": "_membershipCost",
          "type": "uint256"
        }
      ],
      "name": "proposeDAO",
      "outputs": [],
      "stateMutability": "nonpayable",
      "type": "function"
    },
    {
      "inputs": [
        {
          "internalType": "string",
          "name": "_descriptionURI",
          "type": "string"
        },
        {
          "internalType": "uint256",
          "name": "_nPersons",
          "type": "uint256"
        },
        {
          "internalType": "uint256",
          "name": "_totalPrice",
          "type": "uint256"
        },
        {
          "internalType": "uint256",
          "name": "_timeAvailable",
          "type": "uint256"
        },
        {
          "internalType": "bool",
          "name": "_isCreatorSlot",
          "type": "bool"
        }
      ],
      "name": "proposeShortStay",
      "outputs": [
        {
          "internalType": "uint256",
          "name": "",
          "type": "uint256"
        }
      ],
      "stateMutability": "nonpayable",
      "type": "function"
    },
    {
      "inputs": [],
      "name": "stayId",
      "outputs": [
        {
          "internalType": "uint256",
          "name": "_value",
          "type": "uint256"
        }
      ],
      "stateMutability": "view",
      "type": "function"
    },
    {
      "inputs": [
        {
          "internalType": "uint256",
          "name": "",
          "type": "uint256"
        }
      ],
      "name": "stays",
      "outputs": [
        {
          "internalType": "uint256",
          "name": "id",
          "type": "uint256"
        },
        {
          "internalType": "string",
          "name": "descriptionURI",
          "type": "string"
        },
        {
          "internalType": "address",
          "name": "trustee",
          "type": "address"
        },
        {
          "internalType": "uint256",
          "name": "nPersons",
          "type": "uint256"
        },
        {
          "internalType": "uint256",
          "name": "slotsReserved",
          "type": "uint256"
        },
        {
          "internalType": "uint256",
          "name": "amountFunded",
          "type": "uint256"
        },
        {
          "internalType": "uint256",
          "name": "totalPrice",
          "type": "uint256"
        },
        {
          "internalType": "uint256",
          "name": "pricePerPerson",
          "type": "uint256"
        },
        {
          "internalType": "uint256",
          "name": "deadline",
          "type": "uint256"
        },
        {
          "internalType": "bool",
          "name": "isCreatorSlot",
          "type": "bool"
        },
        {
          "internalType": "bool",
          "name": "isActive",
          "type": "bool"
        },
        {
          "internalType": "bool",
          "name": "isFull",
          "type": "bool"
        }
      ],
      "stateMutability": "view",
      "type": "function"
    }
  ],
  "bytecode": "0x60806040526005805534801561001457600080fd5b50604051620024ee380380620024ee83398101604081905261003591610068565b60028054336001600160a01b031991821617909155600380549091166001600160a01b0392909216919091179055610096565b600060208284031215610079578081fd5b81516001600160a01b038116811461008f578182fd5b9392505050565b61244880620000a66000396000f3fe6080604052600436106100f35760003560e01c8063a9f92db91161008a578063c7943c6711610059578063c7943c6714610289578063c896b500146102b6578063cac2699b146102e8578063dcd80be5146102ff57600080fd5b8063a9f92db9146101fc578063ab8e1fdc1461021c578063c382e39a1461023c578063c4ab4beb1461027457600080fd5b806368d06601116100c657806368d066011461018e5780638da5cb5b146101a55780639989b914146101c5578063a47a97e4146101e757600080fd5b8063478567fe146100f85780635b1603ef146101355780635b8cf3091461015557806361d5292014610179575b600080fd5b34801561010457600080fd5b50600354610118906001600160a01b031681565b6040516001600160a01b0390911681526020015b60405180910390f35b34801561014157600080fd5b50610118610150366004611df1565b61031f565b34801561016157600080fd5b5061016b60055481565b60405190815260200161012c565b61018c610187366004611df1565b610349565b005b34801561019a57600080fd5b5060065461016b9081565b3480156101b157600080fd5b50600254610118906001600160a01b031681565b3480156101d157600080fd5b506101da610662565b60405161012c9190611fc0565b3480156101f357600080fd5b5061018c610977565b34801561020857600080fd5b5061018c610217366004611d16565b6109ae565b34801561022857600080fd5b5061018c610237366004611df1565b610b66565b34801561024857600080fd5b5061025c610257366004611df1565b610ccc565b60405161012c9c9b9a99989796959493929190612274565b34801561028057600080fd5b506101da610dc4565b34801561029557600080fd5b506102a96102a4366004611c6e565b6110ce565b60405161012c919061209a565b3480156102c257600080fd5b506102d66102d1366004611df1565b6113df565b60405161012c969594939291906121ed565b3480156102f457600080fd5b5060075461016b9081565b34801561030b57600080fd5b5061016b61031a366004611d80565b611534565b6004818154811061032f57600080fd5b6000918252602090912001546001600160a01b0316905081565b6000818152602081905260409020600a01548190610100900460ff16801561038957506000818152602081905260409020600a015462010000900460ff16155b80156103a5575060008181526020819052604090206009015442105b61040d5760405162461bcd60e51b815260206004820152602e60248201527f537461792069732066756c6c2c20696e616374697665206f7220646561646c6960448201526d1b99481dd85cc81c995858da195960921b60648201526084015b60405180910390fd5b6000828152602081905260409020600881015434101561046f5760405162461bcd60e51b815260206004820152601760248201527f496e73756666696369656e742076616c75652073656e740000000000000000006044820152606401610404565b600381015460009081905b808210156104e557336001600160a01b03168460060183815481106104af57634e487b7160e01b600052603260045260246000fd5b6000918252602090912001546001600160a01b031614156104d357600192506104e5565b816104dd81612392565b92505061047a565b82156105335760405162461bcd60e51b815260206004820152601960248201527f596f752061726520616c7265616479207369676e6564207570000000000000006044820152606401610404565b6006840180546001810182556000918252602082200180546001600160a01b031916331790556004850180549161056983612392565b91905055508360080154846005016000828254610586919061231f565b9091555050604080518781523360208201527f460d21d4cbf85b35cb5c7f324f30ebd971ebbd70742a3aa7b2155624c6b36016910160405180910390a1836003015484600401541061065a57600a8401805462ff0000191662010000179055600284015460058501546040516001600160a01b039092169181156108fc0291906000818181858888f19350505050158015610625573d6000803e3d6000fd5b506040518681527fe1901de7acf5b4425e071d7895f1519f19ae4f4b6b51259d67718b2af22e0da29060200160405180910390a15b505050505050565b6060600061066f60075490565b905060008060005b838110156106c15760008181526001602081905260409091200154600160a01b900460ff16156106af57826106ab81612392565b9350505b806106b981612392565b915050610677565b5060008267ffffffffffffffff8111156106eb57634e487b7160e01b600052604160045260246000fd5b60405190808252806020026020018201604052801561072457816020015b610711611acd565b8152602001906001900390816107095790505b50905060005b8381101561096e5760008181526001602081905260409091200154600160a01b900460ff161561095c57600081815260016020818152604092839020835160e08101855281548152928101546001600160a01b03811684840152600160a01b900460ff161515838501526002810180548551818502810185019096528086529394919360608601938301828280156107eb57602002820191906000526020600020905b81546001600160a01b031681526001909101906020018083116107cd575b505050505081526020016003820154815260200160048201805461080e90612357565b80601f016020809104026020016040519081016040528092919081815260200182805461083a90612357565b80156108875780601f1061085c57610100808354040283529160200191610887565b820191906000526020600020905b81548152906001019060200180831161086a57829003601f168201915b505050505081526020016005820180546108a090612357565b80601f01602080910402602001604051908101604052809291908181526020018280546108cc90612357565b80156109195780601f106108ee57610100808354040283529160200191610919565b820191906000526020600020905b8154815290600101906020018083116108fc57829003601f168201915b50505050508152505082848151811061094257634e487b7160e01b600052603260045260246000fd5b6020026020010181905250828061095890612392565b9350505b8061096681612392565b91505061072a565b50949350505050565b600061098260065490565b905060005b818110156109aa5761099881611814565b806109a281612392565b915050610987565b5050565b60006109b960075490565b9050600060055467ffffffffffffffff8111156109e657634e487b7160e01b600052604160045260246000fd5b604051908082528060200260200182016040528015610a0f578160200160208202803683370190505b5090503381600081518110610a3457634e487b7160e01b600052603260045260246000fd5b6001600160a01b039283166020918202929092018101919091526040805160e08101825285815260008184018181528284018281526060840188815260016080860181905260a086018e905260c086018d90528a855280885295909320845181559151948201805491511515600160a01b026001600160a81b0319909216959097169490941793909317909455925180519192610ad992600285019290910190611b15565b506080820151600382015560a08201518051610aff916004840191602090910190611b7a565b5060c08201518051610b1b916005840191602090910190611b7a565b50506040518381527f8c05d6001935e71f03f5fcda0c668250260f3bb6c88b7c8e4d90b901761bdcfc915060200160405180910390a1610b5f600780546001019055565b5050505050565b60008181526001602081905260409091200154600160a01b900460ff1615610bc85760405162461bcd60e51b815260206004820152601560248201527464616f20697320616c72656164792061637469766560581b6044820152606401610404565b60008181526001602052604090206003810154600290910180543392908110610c0157634e487b7160e01b600052603260045260246000fd5b600091825260208083209190910180546001600160a01b0319166001600160a01b039490941693909317909255828152600190915260408120600301805491610c4983612392565b909155505060055460008281526001602052604090206003015410610c9457600081815260016020819052604090912001805460ff60a01b1916600160a01b179055610c9481611849565b610cc96040518060600160405280603981526020016123da6039913960008381526001602052604090206002015483906119cd565b50565b60006020819052908152604090208054600182018054919291610cee90612357565b80601f0160208091040260200160405190810160405280929190818152602001828054610d1a90612357565b8015610d675780601f10610d3c57610100808354040283529160200191610d67565b820191906000526020600020905b815481529060010190602001808311610d4a57829003601f168201915b50505060028401546003850154600486015460058701546007880154600889015460098a0154600a909a015498996001600160a01b03909616989497509295509093909260ff80821691610100810482169162010000909104168c565b60606000610dd160075490565b905060008060005b83811015610e225760008181526001602081905260409091200154600160a01b900460ff16610e105782610e0c81612392565b9350505b80610e1a81612392565b915050610dd9565b5060008267ffffffffffffffff811115610e4c57634e487b7160e01b600052604160045260246000fd5b604051908082528060200260200182016040528015610e8557816020015b610e72611acd565b815260200190600190039081610e6a5790505b50905060005b8381101561096e5760008181526001602081905260409091200154600160a01b900460ff166110bc57600081815260016020818152604092839020835160e08101855281548152928101546001600160a01b03811684840152600160a01b900460ff16151583850152600281018054855181850281018501909652808652939491936060860193830182828015610f4b57602002820191906000526020600020905b81546001600160a01b03168152600190910190602001808311610f2d575b5050505050815260200160038201548152602001600482018054610f6e90612357565b80601f0160208091040260200160405190810160405280929190818152602001828054610f9a90612357565b8015610fe75780601f10610fbc57610100808354040283529160200191610fe7565b820191906000526020600020905b815481529060010190602001808311610fca57829003601f168201915b5050505050815260200160058201805461100090612357565b80601f016020809104026020016040519081016040528092919081815260200182805461102c90612357565b80156110795780601f1061104e57610100808354040283529160200191611079565b820191906000526020600020905b81548152906001019060200180831161105c57829003601f168201915b5050505050815250508284815181106110a257634e487b7160e01b600052603260045260246000fd5b602002602001018190525082806110b890612392565b9350505b806110c681612392565b915050610e8b565b805160609060008167ffffffffffffffff8111156110fc57634e487b7160e01b600052604160045260246000fd5b6040519080825280602002602001820160405280156111a757816020015b611194604051806101a00160405280600081526020016060815260200160006001600160a01b03168152602001600081526020016000815260200160008152602001606081526020016000815260200160008152602001600081526020016000151581526020016000151581526020016000151581525090565b81526020019060019003908161111a5790505b50845190915060005b818110156113d5576000808783815181106111db57634e487b7160e01b600052603260045260246000fd5b60200260200101518152602001908152602001600020604051806101a00160405290816000820154815260200160018201805461121790612357565b80601f016020809104026020016040519081016040528092919081815260200182805461124390612357565b80156112905780601f1061126557610100808354040283529160200191611290565b820191906000526020600020905b81548152906001019060200180831161127357829003601f168201915b505050505081526020016002820160009054906101000a90046001600160a01b03166001600160a01b03166001600160a01b031681526020016003820154815260200160048201548152602001600582015481526020016006820180548060200260200160405190810160405280929190818152602001828054801561133f57602002820191906000526020600020905b81546001600160a01b03168152600190910190602001808311611321575b5050509183525050600782015460208201526008820154604082015260098201546060820152600a9091015460ff8082161515608084015261010082048116151560a08401526201000090910416151560c09091015283518490839081106113b757634e487b7160e01b600052603260045260246000fd5b602002602001018190525080806113cd90612392565b9150506111b0565b5090949350505050565b600160208190526000918252604090912080549181015460038201546004830180546001600160a01b03841694600160a01b90940460ff1693919061142390612357565b80601f016020809104026020016040519081016040528092919081815260200182805461144f90612357565b801561149c5780601f106114715761010080835404028352916020019161149c565b820191906000526020600020905b81548152906001019060200180831161147f57829003601f168201915b5050505050908060050180546114b190612357565b80601f01602080910402602001604051908101604052809291908181526020018280546114dd90612357565b801561152a5780601f106114ff5761010080835404028352916020019161152a565b820191906000526020600020905b81548152906001019060200180831161150d57829003601f168201915b5050505050905086565b60008085116115855760405162461bcd60e51b815260206004820152601a60248201527f4174206c65617374206f6e6520726f6f6d2072657175697265640000000000006044820152606401610404565b600061159060065490565b90506000836115a05760006115a3565b60015b60ff16905060008767ffffffffffffffff8111156115d157634e487b7160e01b600052604160045260246000fd5b6040519080825280602002602001820160405280156115fa578160200160208202803683370190505b509050841561164657338160008151811061162557634e487b7160e01b600052603260045260246000fd5b60200260200101906001600160a01b031690816001600160a01b0316815250505b604051806101a001604052808481526020018a8152602001336001600160a01b031681526020018981526020018381526020016000815260200182815260200188815260200189896116989190612337565b6116a390600161231f565b81526020016116b2884261231f565b815286151560208083019190915260016040808401829052600060609094018490528784528383529092208351815583820151805191936116f99390850192910190611b7a565b5060408201516002820180546001600160a01b0319166001600160a01b03909216919091179055606082015160038201556080820151600482015560a0820151600582015560c08201518051611759916006840191602090910190611b15565b5060e082015160078201556101008083015160088301556101208301516009830155610140830151600a90920180546101608501516101809095015161ffff1990911693151561ff001916939093179315159091029290921762ff000019166201000091151591909102179055600680546001019055604080518481523360208201527fa322f9beee28d40f70deae6c1c8f9edde1e1275fea1ede699debb1edcaece00f910160405180910390a15090979650505050505050565b600081815260208190526040902060090154421115610cc9576000908152602081905260409020600a01805461ff0019169055565b600354600090611861906001600160a01b0316611a19565b6000838152600160205260409081902090516314a88d6160e01b81529192506001600160a01b038316916314a88d61916118b09130918791600282019160048082019260059092019101611f35565b600060405180830381600087803b1580156118ca57600080fd5b505af11580156118de573d6000803e3d6000fd5b5050506000838152600160208181526040808420830180546001600160a01b0388166001600160a01b031991821681179092556004805495860181559095527f8a35acfbc15ff81a39ae7d344fd709f28e8600b4aa8c65c6b64bfe7fe36bd19b90930180549094169092179092558051808201909152600b81526a6465706c6f79656420257360a81b91810191909152611979915082611a6b565b7fa2e1298a87c84f51cd3f3b69345a0155dd4bb087e223fb4f527f8faebb7915678282600160008681526020019081526020016000206004016040516119c193929190612241565b60405180910390a15050565b611a148383836040516024016119e5939291906121c8565b60408051601f198184030181529190526020810180516001600160e01b031663969cdd0360e01b179052611aac565b505050565b6000808260601b9050604051733d602d80600a3d3981f3363d3d373d3d3d363d7360601b81528160148201526e5af43d82803e903d91602b57fd5bf360881b60288201526037816000f0949350505050565b6109aa8282604051602401611a8192919061219e565b60408051601f198184030181529190526020810180516001600160e01b031663319af33360e01b1790525b80516a636f6e736f6c652e6c6f67602083016000808483855afa5050505050565b6040518060e001604052806000815260200160006001600160a01b03168152602001600015158152602001606081526020016000815260200160608152602001606081525090565b828054828255906000526020600020908101928215611b6a579160200282015b82811115611b6a57825182546001600160a01b0319166001600160a01b03909116178255602090920191600190910190611b35565b50611b76929150611bee565b5090565b828054611b8690612357565b90600052602060002090601f016020900481019282611ba85760008555611b6a565b82601f10611bc157805160ff1916838001178555611b6a565b82800160010185558215611b6a579182015b82811115611b6a578251825591602001919060010190611bd3565b5b80821115611b765760008155600101611bef565b600082601f830112611c13578081fd5b813567ffffffffffffffff811115611c2d57611c2d6123c3565b611c40601f8201601f19166020016122ee565b818152846020838601011115611c54578283fd5b816020850160208301379081016020019190915292915050565b60006020808385031215611c80578182fd5b823567ffffffffffffffff80821115611c97578384fd5b818501915085601f830112611caa578384fd5b813581811115611cbc57611cbc6123c3565b8060051b9150611ccd8483016122ee565b8181528481019084860184860187018a1015611ce7578788fd5b8795505b83861015611d09578035835260019590950194918601918601611ceb565b5098975050505050505050565b600080600060608486031215611d2a578182fd5b833567ffffffffffffffff80821115611d41578384fd5b611d4d87838801611c03565b94506020860135915080821115611d62578384fd5b50611d6f86828701611c03565b925050604084013590509250925092565b600080600080600060a08688031215611d97578081fd5b853567ffffffffffffffff811115611dad578182fd5b611db988828901611c03565b95505060208601359350604086013592506060860135915060808601358015158114611de3578182fd5b809150509295509295909350565b600060208284031215611e02578081fd5b5035919050565b6000815180845260208085019450808401835b83811015611e415781516001600160a01b031687529582019590820190600101611e1c565b509495945050505050565b60008151808452815b81811015611e7157602081850181015186830182015201611e55565b81811115611e825782602083870101525b50601f01601f19169290920160200192915050565b8054600090600181811c9080831680611eb157607f831692505b6020808410821415611ed157634e487b7160e01b86526022600452602486fd5b83885260208801828015611eec5760018114611efd57611f28565b60ff19871682528282019750611f28565b60008981526020902060005b87811015611f2257815484820152908601908401611f09565b83019850505b5050505050505092915050565b600060a0820160018060a01b0380891684526020888186015260a0604086015282885480855260c0870191508986528286209450855b81811015611f89578554851683526001958601959284019201611f6b565b50508581036060870152611f9d8189611e97565b93505050508281036080840152611fb48185611e97565b98975050505050505050565b60006020808301818452808551808352604092508286019150828160051b870101848801865b8381101561208c57888303603f19018552815180518452878101516001600160a01b0316888501528681015115158785015260608082015160e0828701819052919061203483880182611e09565b92505050608080830151818701525060a0808301518683038288015261205a8382611e4c565b9250505060c080830151925085820381870152506120788183611e4c565b968901969450505090860190600101611fe6565b509098975050505050505050565b60006020808301818452808551808352604092508286019150828160051b870101848801865b8381101561208c57603f1989840301855281516101a08151855288820151818a8701526120ef82870182611e4c565b9150508782015161210a898701826001600160a01b03169052565b50606082810151908601526080808301519086015260a0808301519086015260c080830151868303828801526121408382611e09565b60e08581015190890152610100808601519089015261012080860151908901526101408086015115159089015261016080860151151590890152610180948501511515949097019390935250505093860193908601906001016120c0565b6040815260006121b16040830185611e4c565b905060018060a01b03831660208301529392505050565b6060815260006121db6060830186611e4c565b60208301949094525060400152919050565b86815260018060a01b0386166020820152841515604082015283606082015260c06080820152600061222260c0830185611e4c565b82810360a08401526122348185611e4c565b9998505050505050505050565b8381526001600160a01b038316602082015260606040820181905260009061226b90830184611e97565b95945050505050565b60006101808e835280602084015261228e8184018f611e4c565b6001600160a01b039d909d16604084015250506060810199909952608089019790975260a088019590955260c087019390935260e08601919091526101008501521515610120840152151561014083015215156101609091015292915050565b604051601f8201601f1916810167ffffffffffffffff81118282101715612317576123176123c3565b604052919050565b60008219821115612332576123326123ad565b500190565b60008261235257634e487b7160e01b81526012600452602481fd5b500490565b600181811c9082168061236b57607f821691505b6020821081141561238c57634e487b7160e01b600052602260045260246000fd5b50919050565b60006000198214156123a6576123a66123ad565b5060010190565b634e487b7160e01b600052601160045260246000fd5b634e487b7160e01b600052604160045260246000fdfe6a6f696e436f72655465616d2064616f49643a2025732068686f757365735b5f64616f49645d2e636f72655465616d2e6c656e677468202573a264697066735822122032072076a1f121bda5694771d151dc113a9f7a0997526fda8f0b80beed3c101764736f6c63430008040033",
  "linkReferences": {},
  "deployedLinkReferences": {}
}