{
  "contracts/mock/MockChainlinkOracleFeed.sol": {
    "MockChainlinkOracleFeed": {
      "abi": [
        {
          "inputs": [
            {
              "internalType": "int256",
              "name": "_price",
              "type": "int256"
            },
            {
              "internalType": "uint8",
              "name": "_decimals",
              "type": "uint8"
            }
          ],
          "stateMutability": "nonpayable",
          "type": "constructor"
        },
        {
          "inputs": [],
          "name": "decimals",
          "outputs": [
            {
              "internalType": "uint8",
              "name": "",
              "type": "uint8"
            }
          ],
          "stateMutability": "view",
          "type": "function"
        },
        {
          "inputs": [],
          "name": "description",
          "outputs": [
            {
              "internalType": "string",
              "name": "",
              "type": "string"
            }
          ],
          "stateMutability": "pure",
          "type": "function"
        },
        {
          "inputs": [
            {
              "internalType": "uint80",
              "name": "_roundId",
              "type": "uint80"
            }
          ],
          "name": "getRoundData",
          "outputs": [
            {
              "internalType": "uint80",
              "name": "roundId",
              "type": "uint80"
            },
            {
              "internalType": "int256",
              "name": "answer",
              "type": "int256"
            },
            {
              "internalType": "uint256",
              "name": "startedAt",
              "type": "uint256"
            },
            {
              "internalType": "uint256",
              "name": "updatedAt",
              "type": "uint256"
            },
            {
              "internalType": "uint80",
              "name": "answeredInRound",
              "type": "uint80"
            }
          ],
          "stateMutability": "view",
          "type": "function"
        },
        {
          "inputs": [],
          "name": "latestRoundData",
          "outputs": [
            {
              "internalType": "uint80",
              "name": "roundId",
              "type": "uint80"
            },
            {
              "internalType": "int256",
              "name": "answer",
              "type": "int256"
            },
            {
              "internalType": "uint256",
              "name": "startedAt",
              "type": "uint256"
            },
            {
              "internalType": "uint256",
              "name": "updatedAt",
              "type": "uint256"
            },
            {
              "internalType": "uint80",
              "name": "answeredInRound",
              "type": "uint80"
            }
          ],
          "stateMutability": "view",
          "type": "function"
        },
        {
          "inputs": [
            {
              "internalType": "uint8",
              "name": "_decimals",
              "type": "uint8"
            }
          ],
          "name": "setDecimals",
          "outputs": [],
          "stateMutability": "nonpayable",
          "type": "function"
        },
        {
          "inputs": [
            {
              "internalType": "int256",
              "name": "_price",
              "type": "int256"
            }
          ],
          "name": "setPrice",
          "outputs": [],
          "stateMutability": "nonpayable",
          "type": "function"
        },
        {
          "inputs": [],
          "name": "version",
          "outputs": [
            {
              "internalType": "uint256",
              "name": "",
              "type": "uint256"
            }
          ],
          "stateMutability": "pure",
          "type": "function"
        }
      ],
      "devdoc": {
        "kind": "dev",
        "methods": {},
        "version": 1
      },
      "evm": {
        "bytecode": {
          "linkReferences": {},
          "object": "608060405234801561001057600080fd5b506040516102f73803806102f783398101604081905261002f9161004d565b6000919091556001805460ff191660ff909216919091179055610081565b6000806040838503121561005f578182fd5b82519150602083015160ff81168114610076578182fd5b809150509250929050565b610267806100906000396000f3fe608060405234801561001057600080fd5b506004361061007d5760003560e01c80637a1395aa1161005b5780637a1395aa146100de5780639a6fc8f514610104578063f7a3080614610155578063feaf968c1461016857600080fd5b8063313ce5671461008257806354fd4d501461009c5780637284e416146100ab575b600080fd5b60015460405160ff90911681526020015b60405180910390f35b60405160018152602001610093565b6040805180820182526011815270135bd8dad3dc9858db19515d1a11995959607a1b6020820152905161009391906101de565b6101026100ec36600461018c565b6001805460ff191660ff92909216919091179055565b005b61011e6101123660046101b4565b60008054919281908190565b6040805169ffffffffffffffffffff968716815260208101959095528401929092526060830152909116608082015260a001610093565b610102610163366004610174565b600055565b6000805481808061011e565b600060208284031215610185578081fd5b5035919050565b60006020828403121561019d578081fd5b813560ff811681146101ad578182fd5b9392505050565b6000602082840312156101c5578081fd5b813569ffffffffffffffffffff811681146101ad578182fd5b6000602080835283518082850152825b8181101561020a578581018301518582016040015282016101ee565b8181111561021b5783604083870101525b50601f01601f191692909201604001939250505056fea2646970667358221220cbd44696f8563b2672945a76564770c6d14cb5590a4a3e0aff3e6a47e880500064736f6c63430008040033",
          "opcodes": "PUSH1 0x80 PUSH1 0x40 MSTORE CALLVALUE DUP1 ISZERO PUSH2 0x10 JUMPI PUSH1 0x0 DUP1 REVERT JUMPDEST POP PUSH1 0x40 MLOAD PUSH2 0x2F7 CODESIZE SUB DUP1 PUSH2 0x2F7 DUP4 CODECOPY DUP2 ADD PUSH1 0x40 DUP2 SWAP1 MSTORE PUSH2 0x2F SWAP2 PUSH2 0x4D JUMP JUMPDEST PUSH1 0x0 SWAP2 SWAP1 SWAP2 SSTORE PUSH1 0x1 DUP1 SLOAD PUSH1 0xFF NOT AND PUSH1 0xFF SWAP1 SWAP3 AND SWAP2 SWAP1 SWAP2 OR SWAP1 SSTORE PUSH2 0x81 JUMP JUMPDEST PUSH1 0x0 DUP1 PUSH1 0x40 DUP4 DUP6 SUB SLT ISZERO PUSH2 0x5F JUMPI DUP2 DUP3 REVERT JUMPDEST DUP3 MLOAD SWAP2 POP PUSH1 0x20 DUP4 ADD MLOAD PUSH1 0xFF DUP2 AND DUP2 EQ PUSH2 0x76 JUMPI DUP2 DUP3 REVERT JUMPDEST DUP1 SWAP2 POP POP SWAP3 POP SWAP3 SWAP1 POP JUMP JUMPDEST PUSH2 0x267 DUP1 PUSH2 0x90 PUSH1 0x0 CODECOPY PUSH1 0x0 RETURN INVALID PUSH1 0x80 PUSH1 0x40 MSTORE CALLVALUE DUP1 ISZERO PUSH2 0x10 JUMPI PUSH1 0x0 DUP1 REVERT JUMPDEST POP PUSH1 0x4 CALLDATASIZE LT PUSH2 0x7D JUMPI PUSH1 0x0 CALLDATALOAD PUSH1 0xE0 SHR DUP1 PUSH4 0x7A1395AA GT PUSH2 0x5B JUMPI DUP1 PUSH4 0x7A1395AA EQ PUSH2 0xDE JUMPI DUP1 PUSH4 0x9A6FC8F5 EQ PUSH2 0x104 JUMPI DUP1 PUSH4 0xF7A30806 EQ PUSH2 0x155 JUMPI DUP1 PUSH4 0xFEAF968C EQ PUSH2 0x168 JUMPI PUSH1 0x0 DUP1 REVERT JUMPDEST DUP1 PUSH4 0x313CE567 EQ PUSH2 0x82 JUMPI DUP1 PUSH4 0x54FD4D50 EQ PUSH2 0x9C JUMPI DUP1 PUSH4 0x7284E416 EQ PUSH2 0xAB JUMPI JUMPDEST PUSH1 0x0 DUP1 REVERT JUMPDEST PUSH1 0x1 SLOAD PUSH1 0x40 MLOAD PUSH1 0xFF SWAP1 SWAP2 AND DUP2 MSTORE PUSH1 0x20 ADD JUMPDEST PUSH1 0x40 MLOAD DUP1 SWAP2 SUB SWAP1 RETURN JUMPDEST PUSH1 0x40 MLOAD PUSH1 0x1 DUP2 MSTORE PUSH1 0x20 ADD PUSH2 0x93 JUMP JUMPDEST PUSH1 0x40 DUP1 MLOAD DUP1 DUP3 ADD DUP3 MSTORE PUSH1 0x11 DUP2 MSTORE PUSH17 0x135BD8DAD3DC9858DB19515D1A11995959 PUSH1 0x7A SHL PUSH1 0x20 DUP3 ADD MSTORE SWAP1 MLOAD PUSH2 0x93 SWAP2 SWAP1 PUSH2 0x1DE JUMP JUMPDEST PUSH2 0x102 PUSH2 0xEC CALLDATASIZE PUSH1 0x4 PUSH2 0x18C JUMP JUMPDEST PUSH1 0x1 DUP1 SLOAD PUSH1 0xFF NOT AND PUSH1 0xFF SWAP3 SWAP1 SWAP3 AND SWAP2 SWAP1 SWAP2 OR SWAP1 SSTORE JUMP JUMPDEST STOP JUMPDEST PUSH2 0x11E PUSH2 0x112 CALLDATASIZE PUSH1 0x4 PUSH2 0x1B4 JUMP JUMPDEST PUSH1 0x0 DUP1 SLOAD SWAP2 SWAP3 DUP2 SWAP1 DUP2 SWAP1 JUMP JUMPDEST PUSH1 0x40 DUP1 MLOAD PUSH10 0xFFFFFFFFFFFFFFFFFFFF SWAP7 DUP8 AND DUP2 MSTORE PUSH1 0x20 DUP2 ADD SWAP6 SWAP1 SWAP6 MSTORE DUP5 ADD SWAP3 SWAP1 SWAP3 MSTORE PUSH1 0x60 DUP4 ADD MSTORE SWAP1 SWAP2 AND PUSH1 0x80 DUP3 ADD MSTORE PUSH1 0xA0 ADD PUSH2 0x93 JUMP JUMPDEST PUSH2 0x102 PUSH2 0x163 CALLDATASIZE PUSH1 0x4 PUSH2 0x174 JUMP JUMPDEST PUSH1 0x0 SSTORE JUMP JUMPDEST PUSH1 0x0 DUP1 SLOAD DUP2 DUP1 DUP1 PUSH2 0x11E JUMP JUMPDEST PUSH1 0x0 PUSH1 0x20 DUP3 DUP5 SUB SLT ISZERO PUSH2 0x185 JUMPI DUP1 DUP2 REVERT JUMPDEST POP CALLDATALOAD SWAP2 SWAP1 POP JUMP JUMPDEST PUSH1 0x0 PUSH1 0x20 DUP3 DUP5 SUB SLT ISZERO PUSH2 0x19D JUMPI DUP1 DUP2 REVERT JUMPDEST DUP2 CALLDATALOAD PUSH1 0xFF DUP2 AND DUP2 EQ PUSH2 0x1AD JUMPI DUP2 DUP3 REVERT JUMPDEST SWAP4 SWAP3 POP POP POP JUMP JUMPDEST PUSH1 0x0 PUSH1 0x20 DUP3 DUP5 SUB SLT ISZERO PUSH2 0x1C5 JUMPI DUP1 DUP2 REVERT JUMPDEST DUP2 CALLDATALOAD PUSH10 0xFFFFFFFFFFFFFFFFFFFF DUP2 AND DUP2 EQ PUSH2 0x1AD JUMPI DUP2 DUP3 REVERT JUMPDEST PUSH1 0x0 PUSH1 0x20 DUP1 DUP4 MSTORE DUP4 MLOAD DUP1 DUP3 DUP6 ADD MSTORE DUP3 JUMPDEST DUP2 DUP2 LT ISZERO PUSH2 0x20A JUMPI DUP6 DUP2 ADD DUP4 ADD MLOAD DUP6 DUP3 ADD PUSH1 0x40 ADD MSTORE DUP3 ADD PUSH2 0x1EE JUMP JUMPDEST DUP2 DUP2 GT ISZERO PUSH2 0x21B JUMPI DUP4 PUSH1 0x40 DUP4 DUP8 ADD ADD MSTORE JUMPDEST POP PUSH1 0x1F ADD PUSH1 0x1F NOT AND SWAP3 SWAP1 SWAP3 ADD PUSH1 0x40 ADD SWAP4 SWAP3 POP POP POP JUMP INVALID LOG2 PUSH5 0x6970667358 0x22 SLT KECCAK256 0xCB 0xD4 CHAINID SWAP7 0xF8 JUMP EXTCODESIZE 0x26 PUSH19 0x945A76564770C6D14CB5590A4A3E0AFF3E6A47 0xE8 DUP1 POP STOP PUSH5 0x736F6C6343 STOP ADDMOD DIV STOP CALLER "
        },
        "gasEstimates": {
          "creation": {
            "codeDepositCost": "123000",
            "executionCost": "infinite",
            "totalCost": "infinite"
          },
          "external": {
            "decimals()": "979",
            "description()": "infinite",
            "getRoundData(uint80)": "1242",
            "latestRoundData()": "1166",
            "setDecimals(uint8)": "21088",
            "setPrice(int256)": "20256",
            "version()": "200"
          }
        },
        "methodIdentifiers": {
          "decimals()": "313ce567",
          "description()": "7284e416",
          "getRoundData(uint80)": "9a6fc8f5",
          "latestRoundData()": "feaf968c",
          "setDecimals(uint8)": "7a1395aa",
          "setPrice(int256)": "f7a30806",
          "version()": "54fd4d50"
        }
      },
      "storageLayout": {
        "storage": [
          {
            "astId": 866,
            "contract": "contracts/mock/MockChainlinkOracleFeed.sol:MockChainlinkOracleFeed",
            "label": "price",
            "offset": 0,
            "slot": "0",
            "type": "t_int256"
          },
          {
            "astId": 868,
            "contract": "contracts/mock/MockChainlinkOracleFeed.sol:MockChainlinkOracleFeed",
            "label": "numDecimals",
            "offset": 0,
            "slot": "1",
            "type": "t_uint8"
          }
        ],
        "types": {
          "t_int256": {
            "encoding": "inplace",
            "label": "int256",
            "numberOfBytes": "32"
          },
          "t_uint8": {
            "encoding": "inplace",
            "label": "uint8",
            "numberOfBytes": "1"
          }
        }
      },
      "userdoc": {
        "kind": "user",
        "methods": {},
        "version": 1
      }
    }
  }
}