{
  "_format": "hh-sol-artifact-1",
  "contractName": "NomadicKeeper",
  "sourceName": "contracts/NomadicKeeper.sol",
  "abi": [
    {
      "inputs": [
        {
          "internalType": "bytes32",
          "name": "config_",
          "type": "bytes32"
        },
        {
          "internalType": "address",
          "name": "vault_",
          "type": "address"
        }
      ],
      "stateMutability": "nonpayable",
      "type": "constructor"
    },
    {
      "anonymous": false,
      "inputs": [
        {
          "indexed": false,
          "internalType": "bytes32",
          "name": "config",
          "type": "bytes32"
        }
      ],
      "name": "ConfigUpdated",
      "type": "event"
    },
    {
      "inputs": [
        {
          "internalType": "bytes",
          "name": "checkData",
          "type": "bytes"
        }
      ],
      "name": "checkUpkeep",
      "outputs": [
        {
          "internalType": "bool",
          "name": "upkeepNeeded",
          "type": "bool"
        },
        {
          "internalType": "bytes",
          "name": "performData",
          "type": "bytes"
        }
      ],
      "stateMutability": "view",
      "type": "function"
    },
    {
      "inputs": [],
      "name": "config",
      "outputs": [
        {
          "internalType": "bytes32",
          "name": "",
          "type": "bytes32"
        }
      ],
      "stateMutability": "view",
      "type": "function"
    },
    {
      "inputs": [],
      "name": "owner",
      "outputs": [
        {
          "internalType": "address",
          "name": "",
          "type": "address"
        }
      ],
      "stateMutability": "view",
      "type": "function"
    },
    {
      "inputs": [
        {
          "internalType": "bytes",
          "name": "performData",
          "type": "bytes"
        }
      ],
      "name": "performUpkeep",
      "outputs": [],
      "stateMutability": "nonpayable",
      "type": "function"
    },
    {
      "inputs": [
        {
          "internalType": "bytes32",
          "name": "config_",
          "type": "bytes32"
        }
      ],
      "name": "setConfig",
      "outputs": [],
      "stateMutability": "nonpayable",
      "type": "function"
    },
    {
      "inputs": [],
      "name": "vault",
      "outputs": [
        {
          "internalType": "address",
          "name": "",
          "type": "address"
        }
      ],
      "stateMutability": "view",
      "type": "function"
    }
  ],
  "bytecode": "0x6080604052600060025534801561001557600080fd5b5060405161052738038061052783398101604081905261003491610068565b600080546001600160a01b039092166001600160a01b031992831617905560039190915560018054909116331790556100a3565b6000806040838503121561007a578182fd5b825160208401519092506001600160a01b0381168114610098578182fd5b809150509250929050565b610475806100b26000396000f3fe608060405234801561001057600080fd5b50600436106100625760003560e01c80634585e33b146100675780636e04ff0d1461007c57806379502c55146100a65780638da5cb5b146100bd578063e8a5282d146100e8578063fbfa77cf146100fb575b600080fd5b61007a6100753660046102e8565b61010e565b005b61008f61008a3660046102e8565b6101c5565b60405161009d929190610371565b60405180910390f35b6100af60035481565b60405190815260200161009d565b6001546100d0906001600160a01b031681565b6040516001600160a01b03909116815260200161009d565b61007a6100f63660046102d0565b61021a565b6000546100d0906001600160a01b031681565b600061011861026c565b905080156101315761012d62015180426103d1565b6002555b80156101c05760005460408051600481526024810182526020810180516001600160e01b031663291ea5f960e21b17905290516001600160a01b039092169161017a9190610355565b6000604051808303816000865af19150503d80600081146101b7576040519150601f19603f3d011682016040523d82523d6000602084013e6101bc565b606091505b5050505b505050565b6000606060006101d361026c565b905080925084848080601f01602080910402602001604051908101604052809392919081815260200183838082843760009201919091525095989297509195505050505050565b6001546001600160a01b0316331461023157600080fd5b60038190556040518181527fccb09eca41724580447add45cd184f28cfa84b572edb6958b9f34862ebd6a9a69060200160405180910390a150565b6003546000908161028062015180426103d1565b905080600254106102945760009250505090565b600082811a9060076102a78460046103ad565b6102b19190610415565b9050600160ff8381169083161c16156102c957600194505b5050505090565b6000602082840312156102e1578081fd5b5035919050565b600080602083850312156102fa578081fd5b823567ffffffffffffffff80821115610311578283fd5b818501915085601f830112610324578283fd5b813581811115610332578384fd5b866020828501011115610343578384fd5b60209290920196919550909350505050565b600082516103678184602087016103e5565b9190910192915050565b821515815260406020820152600082518060408401526103988160608501602087016103e5565b601f01601f1916919091016060019392505050565b600082198211156103cc57634e487b7160e01b81526011600452602481fd5b500190565b6000826103e0576103e0610429565b500490565b60005b838110156104005781810151838201526020016103e8565b8381111561040f576000848401525b50505050565b60008261042457610424610429565b500690565b634e487b7160e01b600052601260045260246000fdfea2646970667358221220024664e2bb2801f712ea3835c46c17b4c1203ddcb2bd05c22885066bfb876e6464736f6c63430008040033",
  "linkReferences": {},
  "deployedLinkReferences": {}
}