{
  "_format": "hh-sol-artifact-1",
  "contractName": "ProfileNFT",
  "sourceName": "contracts/ProfileNFT.sol",
  "abi": [
    {
      "inputs": [
        {
          "internalType": "string",
          "name": "_name",
          "type": "string"
        },
        {
          "internalType": "string",
          "name": "_symbol",
          "type": "string"
        },
        {
          "internalType": "address",
          "name": "_owner",
          "type": "address"
        }
      ],
      "stateMutability": "nonpayable",
      "type": "constructor"
    },
    {
      "anonymous": false,
      "inputs": [
        {
          "indexed": true,
          "internalType": "address",
          "name": "owner",
          "type": "address"
        },
        {
          "indexed": true,
          "internalType": "address",
          "name": "approved",
          "type": "address"
        },
        {
          "indexed": true,
          "internalType": "uint256",
          "name": "tokenId",
          "type": "uint256"
        }
      ],
      "name": "Approval",
      "type": "event"
    },
    {
      "anonymous": false,
      "inputs": [
        {
          "indexed": true,
          "internalType": "address",
          "name": "owner",
          "type": "address"
        },
        {
          "indexed": true,
          "internalType": "address",
          "name": "operator",
          "type": "address"
        },
        {
          "indexed": false,
          "internalType": "bool",
          "name": "approved",
          "type": "bool"
        }
      ],
      "name": "ApprovalForAll",
      "type": "event"
    },
    {
      "anonymous": false,
      "inputs": [
        {
          "indexed": true,
          "internalType": "address",
          "name": "from",
          "type": "address"
        },
        {
          "indexed": true,
          "internalType": "address",
          "name": "to",
          "type": "address"
        },
        {
          "indexed": true,
          "internalType": "uint256",
          "name": "tokenId",
          "type": "uint256"
        }
      ],
      "name": "Transfer",
      "type": "event"
    },
    {
      "inputs": [
        {
          "internalType": "address",
          "name": "to",
          "type": "address"
        },
        {
          "internalType": "uint256",
          "name": "tokenId",
          "type": "uint256"
        }
      ],
      "name": "approve",
      "outputs": [],
      "stateMutability": "nonpayable",
      "type": "function"
    },
    {
      "inputs": [
        {
          "internalType": "address",
          "name": "owner",
          "type": "address"
        }
      ],
      "name": "balanceOf",
      "outputs": [
        {
          "internalType": "uint256",
          "name": "",
          "type": "uint256"
        }
      ],
      "stateMutability": "view",
      "type": "function"
    },
    {
      "inputs": [
        {
          "internalType": "uint256",
          "name": "tokenId",
          "type": "uint256"
        }
      ],
      "name": "getApproved",
      "outputs": [
        {
          "internalType": "address",
          "name": "",
          "type": "address"
        }
      ],
      "stateMutability": "view",
      "type": "function"
    },
    {
      "inputs": [
        {
          "internalType": "address",
          "name": "owner",
          "type": "address"
        },
        {
          "internalType": "address",
          "name": "operator",
          "type": "address"
        }
      ],
      "name": "isApprovedForAll",
      "outputs": [
        {
          "internalType": "bool",
          "name": "",
          "type": "bool"
        }
      ],
      "stateMutability": "view",
      "type": "function"
    },
    {
      "inputs": [],
      "name": "name",
      "outputs": [
        {
          "internalType": "string",
          "name": "",
          "type": "string"
        }
      ],
      "stateMutability": "view",
      "type": "function"
    },
    {
      "inputs": [],
      "name": "owner",
      "outputs": [
        {
          "internalType": "address",
          "name": "",
          "type": "address"
        }
      ],
      "stateMutability": "view",
      "type": "function"
    },
    {
      "inputs": [
        {
          "internalType": "uint256",
          "name": "tokenId",
          "type": "uint256"
        }
      ],
      "name": "ownerOf",
      "outputs": [
        {
          "internalType": "address",
          "name": "",
          "type": "address"
        }
      ],
      "stateMutability": "view",
      "type": "function"
    },
    {
      "inputs": [
        {
          "internalType": "address",
          "name": "from",
          "type": "address"
        },
        {
          "internalType": "address",
          "name": "to",
          "type": "address"
        },
        {
          "internalType": "uint256",
          "name": "tokenId",
          "type": "uint256"
        }
      ],
      "name": "safeTransferFrom",
      "outputs": [],
      "stateMutability": "nonpayable",
      "type": "function"
    },
    {
      "inputs": [
        {
          "internalType": "address",
          "name": "from",
          "type": "address"
        },
        {
          "internalType": "address",
          "name": "to",
          "type": "address"
        },
        {
          "internalType": "uint256",
          "name": "tokenId",
          "type": "uint256"
        },
        {
          "internalType": "bytes",
          "name": "_data",
          "type": "bytes"
        }
      ],
      "name": "safeTransferFrom",
      "outputs": [],
      "stateMutability": "nonpayable",
      "type": "function"
    },
    {
      "inputs": [
        {
          "internalType": "address",
          "name": "operator",
          "type": "address"
        },
        {
          "internalType": "bool",
          "name": "approved",
          "type": "bool"
        }
      ],
      "name": "setApprovalForAll",
      "outputs": [],
      "stateMutability": "nonpayable",
      "type": "function"
    },
    {
      "inputs": [
        {
          "internalType": "address",
          "name": "_to",
          "type": "address"
        },
        {
          "internalType": "string",
          "name": "badge",
          "type": "string"
        }
      ],
      "name": "setBadge",
      "outputs": [],
      "stateMutability": "nonpayable",
      "type": "function"
    },
    {
      "inputs": [
        {
          "internalType": "bytes4",
          "name": "interfaceId",
          "type": "bytes4"
        }
      ],
      "name": "supportsInterface",
      "outputs": [
        {
          "internalType": "bool",
          "name": "",
          "type": "bool"
        }
      ],
      "stateMutability": "view",
      "type": "function"
    },
    {
      "inputs": [],
      "name": "symbol",
      "outputs": [
        {
          "internalType": "string",
          "name": "",
          "type": "string"
        }
      ],
      "stateMutability": "view",
      "type": "function"
    },
    {
      "inputs": [
        {
          "internalType": "uint256",
          "name": "tokenId",
          "type": "uint256"
        }
      ],
      "name": "tokenURI",
      "outputs": [
        {
          "internalType": "string",
          "name": "",
          "type": "string"
        }
      ],
      "stateMutability": "view",
      "type": "function"
    },
    {
      "inputs": [
        {
          "internalType": "address",
          "name": "from",
          "type": "address"
        },
        {
          "internalType": "address",
          "name": "to",
          "type": "address"
        },
        {
          "internalType": "uint256",
          "name": "tokenId",
          "type": "uint256"
        }
      ],
      "name": "transferFrom",
      "outputs": [],
      "stateMutability": "nonpayable",
      "type": "function"
    }
  ],
  "bytecode": "0x60806040523480156200001157600080fd5b506040516200175f3803806200175f8339810160408190526200003491620001e9565b8251839083906200004d90600090602085019062000090565b5080516200006390600190602084019062000090565b5050600680546001600160a01b0319166001600160a01b03939093169290921790915550620002c5915050565b8280546200009e9062000272565b90600052602060002090601f016020900481019282620000c257600085556200010d565b82601f10620000dd57805160ff19168380011785556200010d565b828001600101855582156200010d579182015b828111156200010d578251825591602001919060010190620000f0565b506200011b9291506200011f565b5090565b5b808211156200011b576000815560010162000120565b600082601f83011262000147578081fd5b81516001600160401b0380821115620001645762000164620002af565b604051601f8301601f19908116603f011681019082821181831017156200018f576200018f620002af565b81604052838152602092508683858801011115620001ab578485fd5b8491505b83821015620001ce5785820183015181830184015290820190620001af565b83821115620001df57848385830101525b9695505050505050565b600080600060608486031215620001fe578283fd5b83516001600160401b038082111562000215578485fd5b620002238783880162000136565b9450602086015191508082111562000239578384fd5b50620002488682870162000136565b604086015190935090506001600160a01b038116811462000267578182fd5b809150509250925092565b600181811c908216806200028757607f821691505b60208210811415620002a957634e487b7160e01b600052602260045260246000fd5b50919050565b634e487b7160e01b600052604160045260246000fd5b61148a80620002d56000396000f3fe608060405234801561001057600080fd5b50600436106100f55760003560e01c80636d309c6311610097578063a22cb46511610066578063a22cb465146101ff578063b88d4fde14610212578063c87b56dd14610225578063e985e9c51461023857600080fd5b80636d309c63146101b057806370a08231146101c35780638da5cb5b146101e457806395d89b41146101f757600080fd5b8063095ea7b3116100d3578063095ea7b31461016257806323b872dd1461017757806342842e0e1461018a5780636352211e1461019d57600080fd5b806301ffc9a7146100fa57806306fdde0314610122578063081812fc14610137575b600080fd5b61010d610108366004611182565b610274565b60405190151581526020015b60405180910390f35b61012a6102c6565b604051610119919061126a565b61014a6101453660046111ba565b610358565b6040516001600160a01b039091168152602001610119565b610175610170366004611159565b6103f2565b005b61017561018536600461100c565b610508565b61017561019836600461100c565b610539565b61014a6101ab3660046111ba565b610554565b6101756101be3660046110fa565b6105cb565b6101d66101d1366004610fc0565b610644565b604051908152602001610119565b60065461014a906001600160a01b031681565b61012a6106cb565b61017561020d3660046110c0565b6106da565b610175610220366004611047565b6106e9565b61012a6102333660046111ba565b610721565b61010d610246366004610fda565b6001600160a01b03918216600090815260056020908152604080832093909416825291909152205460ff1690565b60006001600160e01b031982166380ac58cd60e01b14806102a557506001600160e01b03198216635b5e139f60e01b145b806102c057506301ffc9a760e01b6001600160e01b03198316145b92915050565b6060600080546102d59061138f565b80601f01602080910402602001604051908101604052809291908181526020018280546103019061138f565b801561034e5780601f106103235761010080835404028352916020019161034e565b820191906000526020600020905b81548152906001019060200180831161033157829003601f168201915b5050505050905090565b6000818152600260205260408120546001600160a01b03166103d65760405162461bcd60e51b815260206004820152602c60248201527f4552433732313a20617070726f76656420717565727920666f72206e6f6e657860448201526b34b9ba32b73a103a37b5b2b760a11b60648201526084015b60405180910390fd5b506000908152600460205260409020546001600160a01b031690565b60006103fd82610554565b9050806001600160a01b0316836001600160a01b0316141561046b5760405162461bcd60e51b815260206004820152602160248201527f4552433732313a20617070726f76616c20746f2063757272656e74206f776e656044820152603960f91b60648201526084016103cd565b336001600160a01b038216148061048757506104878133610246565b6104f95760405162461bcd60e51b815260206004820152603860248201527f4552433732313a20617070726f76652063616c6c6572206973206e6f74206f7760448201527f6e6572206e6f7220617070726f76656420666f7220616c6c000000000000000060648201526084016103cd565b6105038383610809565b505050565b6105123382610877565b61052e5760405162461bcd60e51b81526004016103cd906112cf565b61050383838361096e565b610503838383604051806020016040528060008152506106e9565b6000818152600260205260408120546001600160a01b0316806102c05760405162461bcd60e51b815260206004820152602960248201527f4552433732313a206f776e657220717565727920666f72206e6f6e657869737460448201526832b73a103a37b5b2b760b91b60648201526084016103cd565b6006546001600160a01b0316331461061b5760405162461bcd60e51b81526020600482015260136024820152722932b9ba3934b1ba32b2103a379037bbb732b960691b60448201526064016103cd565b6001600160a01b0382166000908152600760209081526040909120825161050392840190610e95565b60006001600160a01b0382166106af5760405162461bcd60e51b815260206004820152602a60248201527f4552433732313a2062616c616e636520717565727920666f7220746865207a65604482015269726f206164647265737360b01b60648201526084016103cd565b506001600160a01b031660009081526003602052604090205490565b6060600180546102d59061138f565b6106e5338383610b15565b5050565b6106f33383610877565b61070f5760405162461bcd60e51b81526004016103cd906112cf565b61071b84848484610be4565b50505050565b6000818152600260205260409020546060906001600160a01b03166107a05760405162461bcd60e51b815260206004820152602f60248201527f4552433732314d657461646174613a2055524920717565727920666f72206e6f60448201526e3732bc34b9ba32b73a103a37b5b2b760891b60648201526084016103cd565b60006107b760408051602081019091526000815290565b905060008151116107d75760405180602001604052806000815250610802565b806107e184610c17565b6040516020016107f29291906111fe565b6040516020818303038152906040525b9392505050565b600081815260046020526040902080546001600160a01b0319166001600160a01b038416908117909155819061083e82610554565b6001600160a01b03167f8c5be1e5ebec7d5bd14f71427d1e84f3dd0314c0f7b2291e5b200ac8c7c3b92560405160405180910390a45050565b6000818152600260205260408120546001600160a01b03166108f05760405162461bcd60e51b815260206004820152602c60248201527f4552433732313a206f70657261746f7220717565727920666f72206e6f6e657860448201526b34b9ba32b73a103a37b5b2b760a11b60648201526084016103cd565b60006108fb83610554565b9050806001600160a01b0316846001600160a01b0316148061094257506001600160a01b0380821660009081526005602090815260408083209388168352929052205460ff165b806109665750836001600160a01b031661095b84610358565b6001600160a01b0316145b949350505050565b826001600160a01b031661098182610554565b6001600160a01b0316146109e55760405162461bcd60e51b815260206004820152602560248201527f4552433732313a207472616e736665722066726f6d20696e636f72726563742060448201526437bbb732b960d91b60648201526084016103cd565b6001600160a01b038216610a475760405162461bcd60e51b8152602060048201526024808201527f4552433732313a207472616e7366657220746f20746865207a65726f206164646044820152637265737360e01b60648201526084016103cd565b610a52838383610d31565b610a5d600082610809565b6001600160a01b0383166000908152600360205260408120805460019290610a8690849061134c565b90915550506001600160a01b0382166000908152600360205260408120805460019290610ab4908490611320565b909155505060008181526002602052604080822080546001600160a01b0319166001600160a01b0386811691821790925591518493918716917fddf252ad1be2c89b69c2b068fc378daa952ba7f163c4a11628f55a4df523b3ef91a4505050565b816001600160a01b0316836001600160a01b03161415610b775760405162461bcd60e51b815260206004820152601960248201527f4552433732313a20617070726f766520746f2063616c6c65720000000000000060448201526064016103cd565b6001600160a01b03838116600081815260056020908152604080832094871680845294825291829020805460ff191686151590811790915591519182527f17307eab39ab6107e8899845ad3d59bd9653f200f220920489ca2b5937696c31910160405180910390a3505050565b610bef84848461096e565b610bfb84848484610d88565b61071b5760405162461bcd60e51b81526004016103cd9061127d565b606081610c3b5750506040805180820190915260018152600360fc1b602082015290565b8160005b8115610c655780610c4f816113ca565b9150610c5e9050600a83611338565b9150610c3f565b60008167ffffffffffffffff811115610c8e57634e487b7160e01b600052604160045260246000fd5b6040519080825280601f01601f191660200182016040528015610cb8576020820181803683370190505b5090505b841561096657610ccd60018361134c565b9150610cda600a866113e5565b610ce5906030611320565b60f81b818381518110610d0857634e487b7160e01b600052603260045260246000fd5b60200101906001600160f81b031916908160001a905350610d2a600a86611338565b9450610cbc565b6001600160a01b038316156105035760405162461bcd60e51b815260206004820152601860248201527f4572723a20746f6b656e20697320534f554c20424f554e44000000000000000060448201526064016103cd565b60006001600160a01b0384163b15610e8a57604051630a85bd0160e11b81526001600160a01b0385169063150b7a0290610dcc90339089908890889060040161122d565b602060405180830381600087803b158015610de657600080fd5b505af1925050508015610e16575060408051601f3d908101601f19168201909252610e139181019061119e565b60015b610e70573d808015610e44576040519150601f19603f3d011682016040523d82523d6000602084013e610e49565b606091505b508051610e685760405162461bcd60e51b81526004016103cd9061127d565b805181602001fd5b6001600160e01b031916630a85bd0160e11b149050610966565b506001949350505050565b828054610ea19061138f565b90600052602060002090601f016020900481019282610ec35760008555610f09565b82601f10610edc57805160ff1916838001178555610f09565b82800160010185558215610f09579182015b82811115610f09578251825591602001919060010190610eee565b50610f15929150610f19565b5090565b5b80821115610f155760008155600101610f1a565b600067ffffffffffffffff80841115610f4957610f49611425565b604051601f8501601f19908116603f01168101908282118183101715610f7157610f71611425565b81604052809350858152868686011115610f8a57600080fd5b858560208301376000602087830101525050509392505050565b80356001600160a01b0381168114610fbb57600080fd5b919050565b600060208284031215610fd1578081fd5b61080282610fa4565b60008060408385031215610fec578081fd5b610ff583610fa4565b915061100360208401610fa4565b90509250929050565b600080600060608486031215611020578081fd5b61102984610fa4565b925061103760208501610fa4565b9150604084013590509250925092565b6000806000806080858703121561105c578081fd5b61106585610fa4565b935061107360208601610fa4565b925060408501359150606085013567ffffffffffffffff811115611095578182fd5b8501601f810187136110a5578182fd5b6110b487823560208401610f2e565b91505092959194509250565b600080604083850312156110d2578182fd5b6110db83610fa4565b9150602083013580151581146110ef578182fd5b809150509250929050565b6000806040838503121561110c578182fd5b61111583610fa4565b9150602083013567ffffffffffffffff811115611130578182fd5b8301601f81018513611140578182fd5b61114f85823560208401610f2e565b9150509250929050565b6000806040838503121561116b578182fd5b61117483610fa4565b946020939093013593505050565b600060208284031215611193578081fd5b81356108028161143b565b6000602082840312156111af578081fd5b81516108028161143b565b6000602082840312156111cb578081fd5b5035919050565b600081518084526111ea816020860160208601611363565b601f01601f19169290920160200192915050565b60008351611210818460208801611363565b835190830190611224818360208801611363565b01949350505050565b6001600160a01b0385811682528416602082015260408101839052608060608201819052600090611260908301846111d2565b9695505050505050565b60208152600061080260208301846111d2565b60208082526032908201527f4552433732313a207472616e7366657220746f206e6f6e20455243373231526560408201527131b2b4bb32b91034b6b83632b6b2b73a32b960711b606082015260800190565b60208082526031908201527f4552433732313a207472616e736665722063616c6c6572206973206e6f74206f6040820152701ddb995c881b9bdc88185c1c1c9bdd9959607a1b606082015260800190565b60008219821115611333576113336113f9565b500190565b6000826113475761134761140f565b500490565b60008282101561135e5761135e6113f9565b500390565b60005b8381101561137e578181015183820152602001611366565b8381111561071b5750506000910152565b600181811c908216806113a357607f821691505b602082108114156113c457634e487b7160e01b600052602260045260246000fd5b50919050565b60006000198214156113de576113de6113f9565b5060010190565b6000826113f4576113f461140f565b500690565b634e487b7160e01b600052601160045260246000fd5b634e487b7160e01b600052601260045260246000fd5b634e487b7160e01b600052604160045260246000fd5b6001600160e01b03198116811461145157600080fd5b5056fea2646970667358221220585888083b0e78d5093b812f4178cdbcd27e0c387f31cf84d6348406a7a4c14f64736f6c63430008040033",
  "linkReferences": {},
  "deployedLinkReferences": {}
}