{
  "_format": "hh-sol-artifact-1",
  "contractName": "HackerHouseDAO",
  "sourceName": "contracts/HackerHouseDAO.sol",
  "abi": [
    {
      "inputs": [
        {
          "internalType": "uint256",
          "name": "",
          "type": "uint256"
        }
      ],
      "name": "coreTeam",
      "outputs": [
        {
          "internalType": "address",
          "name": "",
          "type": "address"
        }
      ],
      "stateMutability": "view",
      "type": "function"
    },
    {
      "inputs": [],
      "name": "descriptionURI",
      "outputs": [
        {
          "internalType": "string",
          "name": "",
          "type": "string"
        }
      ],
      "stateMutability": "view",
      "type": "function"
    },
    {
      "inputs": [
        {
          "internalType": "address",
          "name": "_parentAddress",
          "type": "address"
        },
        {
          "internalType": "uint256",
          "name": "_id",
          "type": "uint256"
        },
        {
          "internalType": "address[]",
          "name": "_coreTeam",
          "type": "address[]"
        },
        {
          "internalType": "string",
          "name": "_name",
          "type": "string"
        },
        {
          "internalType": "string",
          "name": "_descriptionURI",
          "type": "string"
        }
      ],
      "name": "initialize",
      "outputs": [],
      "stateMutability": "nonpayable",
      "type": "function"
    },
    {
      "inputs": [],
      "name": "initialized",
      "outputs": [
        {
          "internalType": "bool",
          "name": "",
          "type": "bool"
        }
      ],
      "stateMutability": "view",
      "type": "function"
    },
    {
      "inputs": [],
      "name": "membershipPrice",
      "outputs": [
        {
          "internalType": "uint256",
          "name": "",
          "type": "uint256"
        }
      ],
      "stateMutability": "view",
      "type": "function"
    },
    {
      "inputs": [],
      "name": "name",
      "outputs": [
        {
          "internalType": "string",
          "name": "",
          "type": "string"
        }
      ],
      "stateMutability": "view",
      "type": "function"
    },
    {
      "inputs": [],
      "name": "parentAddress",
      "outputs": [
        {
          "internalType": "address",
          "name": "",
          "type": "address"
        }
      ],
      "stateMutability": "view",
      "type": "function"
    }
  ],
  "bytecode": "0x60806040526006805460ff1916905534801561001a57600080fd5b506106568061002a6000396000f3fe608060405234801561001057600080fd5b506004361061007c5760003560e01c806314a88d611161005b57806314a88d61146100dd578063158ef93e146100f2578063846198561461010f578063f1d2f93c1461011757600080fd5b8062821de31461008157806306fdde03146100b15780630de3226b146100c6575b600080fd5b600054610094906001600160a01b031681565b6040516001600160a01b0390911681526020015b60405180910390f35b6100b961012a565b6040516100a8919061054b565b6100cf60055481565b6040519081526020016100a8565b6100f06100eb366004610423565b6101b8565b005b6006546100ff9060ff1681565b60405190151581526020016100a8565b6100b9610277565b610094610125366004610533565b610284565b60028054610137906105cf565b80601f0160208091040260200160405190810160405280929190818152602001828054610163906105cf565b80156101b05780601f10610185576101008083540402835291602001916101b0565b820191906000526020600020905b81548152906001019060200180831161019357829003601f168201915b505050505081565b60065460ff16156102055760405162461bcd60e51b8152602060048201526013602482015272105b1c9958591e481a5b9a5d1a585b1a5e9959606a1b604482015260640160405180910390fd5b60068054600160ff199091168117909155600080546001600160a01b0319166001600160a01b03881617905584905582516102479060049060208601906102ae565b50815161025b906002906020850190610313565b50805161026f906003906020840190610313565b505050505050565b60038054610137906105cf565b6004818154811061029457600080fd5b6000918252602090912001546001600160a01b0316905081565b828054828255906000526020600020908101928215610303579160200282015b8281111561030357825182546001600160a01b0319166001600160a01b039091161782556020909201916001909101906102ce565b5061030f929150610387565b5090565b82805461031f906105cf565b90600052602060002090601f0160209004810192826103415760008555610303565b82601f1061035a57805160ff1916838001178555610303565b82800160010185558215610303579182015b8281111561030357825182559160200191906001019061036c565b5b8082111561030f5760008155600101610388565b80356001600160a01b03811681146103b357600080fd5b919050565b600082601f8301126103c8578081fd5b813567ffffffffffffffff8111156103e2576103e261060a565b6103f5601f8201601f191660200161059e565b818152846020838601011115610409578283fd5b816020850160208301379081016020019190915292915050565b600080600080600060a0868803121561043a578081fd5b6104438661039c565b94506020808701359450604087013567ffffffffffffffff80821115610467578384fd5b818901915089601f83011261047a578384fd5b81358181111561048c5761048c61060a565b8060051b61049b85820161059e565b8281528581019085870183870188018f10156104b5578889fd5b8896505b848710156104de576104ca8161039c565b8352600196909601959187019187016104b9565b50985050505060608901359250808311156104f7578384fd5b6105038a848b016103b8565b94506080890135925080831115610518578384fd5b5050610526888289016103b8565b9150509295509295909350565b600060208284031215610544578081fd5b5035919050565b6000602080835283518082850152825b818110156105775785810183015185820160400152820161055b565b818111156105885783604083870101525b50601f01601f1916929092016040019392505050565b604051601f8201601f1916810167ffffffffffffffff811182821017156105c7576105c761060a565b604052919050565b600181811c908216806105e357607f821691505b6020821081141561060457634e487b7160e01b600052602260045260246000fd5b50919050565b634e487b7160e01b600052604160045260246000fdfea2646970667358221220c9ca527fd0cb6cbb2eef7a64d252ae0d49fe9dcbe741fafbab43278fb902c21864736f6c63430008040033",
  "linkReferences": {},
  "deployedLinkReferences": {}
}