{
  "address": "0xe7f1725E7734CE288F8367e1Bb143E90bb3F0512",
  "abi": [
    {
      "inputs": [
        {
          "internalType": "address",
          "name": "_hhTemplate",
          "type": "address"
        }
      ],
      "stateMutability": "nonpayable",
      "type": "constructor"
    },
    {
      "anonymous": false,
      "inputs": [
        {
          "indexed": false,
          "internalType": "uint256",
          "name": "_daoId",
          "type": "uint256"
        }
      ],
      "name": "DAOProposed",
      "type": "event"
    },
    {
      "anonymous": false,
      "inputs": [
        {
          "indexed": false,
          "internalType": "uint256",
          "name": "_daoId",
          "type": "uint256"
        },
        {
          "indexed": false,
          "internalType": "address",
          "name": "_daoAddress",
          "type": "address"
        },
        {
          "indexed": false,
          "internalType": "string",
          "name": "_daoName",
          "type": "string"
        }
      ],
      "name": "HHouseDeployed",
      "type": "event"
    },
    {
      "anonymous": false,
      "inputs": [
        {
          "indexed": false,
          "internalType": "uint256",
          "name": "_stayId",
          "type": "uint256"
        },
        {
          "indexed": false,
          "internalType": "address",
          "name": "_newMember",
          "type": "address"
        }
      ],
      "name": "JoinStay",
      "type": "event"
    },
    {
      "anonymous": false,
      "inputs": [
        {
          "indexed": false,
          "internalType": "uint256",
          "name": "_stayId",
          "type": "uint256"
        },
        {
          "indexed": false,
          "internalType": "address",
          "name": "_trustee",
          "type": "address"
        }
      ],
      "name": "ProposeStay",
      "type": "event"
    },
    {
      "anonymous": false,
      "inputs": [
        {
          "indexed": false,
          "internalType": "uint256",
          "name": "_stayId",
          "type": "uint256"
        }
      ],
      "name": "StayIsFull",
      "type": "event"
    },
    {
      "inputs": [],
      "name": "checkDeadlines",
      "outputs": [],
      "stateMutability": "nonpayable",
      "type": "function"
    },
    {
      "inputs": [],
      "name": "daoId",
      "outputs": [
        {
          "internalType": "uint256",
          "name": "_value",
          "type": "uint256"
        }
      ],
      "stateMutability": "view",
      "type": "function"
    },
    {
      "inputs": [],
      "name": "getActiveDAOs",
      "outputs": [
        {
          "components": [
            {
              "internalType": "uint256",
              "name": "id",
              "type": "uint256"
            },
            {
              "internalType": "address",
              "name": "addr",
              "type": "address"
            },
            {
              "internalType": "bool",
              "name": "isActive",
              "type": "bool"
            },
            {
              "internalType": "address[]",
              "name": "coreTeam",
              "type": "address[]"
            },
            {
              "internalType": "uint256",
              "name": "coreTeamCount",
              "type": "uint256"
            },
            {
              "internalType": "string",
              "name": "name",
              "type": "string"
            },
            {
              "internalType": "string",
              "name": "descriptionURI",
              "type": "string"
            }
          ],
          "internalType": "struct NomadicVault.HackerHouse[]",
          "name": "",
          "type": "tuple[]"
        }
      ],
      "stateMutability": "view",
      "type": "function"
    },
    {
      "inputs": [],
      "name": "getFormingDAOs",
      "outputs": [
        {
          "components": [
            {
              "internalType": "uint256",
              "name": "id",
              "type": "uint256"
            },
            {
              "internalType": "address",
              "name": "addr",
              "type": "address"
            },
            {
              "internalType": "bool",
              "name": "isActive",
              "type": "bool"
            },
            {
              "internalType": "address[]",
              "name": "coreTeam",
              "type": "address[]"
            },
            {
              "internalType": "uint256",
              "name": "coreTeamCount",
              "type": "uint256"
            },
            {
              "internalType": "string",
              "name": "name",
              "type": "string"
            },
            {
              "internalType": "string",
              "name": "descriptionURI",
              "type": "string"
            }
          ],
          "internalType": "struct NomadicVault.HackerHouse[]",
          "name": "",
          "type": "tuple[]"
        }
      ],
      "stateMutability": "view",
      "type": "function"
    },
    {
      "inputs": [
        {
          "internalType": "uint256[]",
          "name": "_stayIndexes",
          "type": "uint256[]"
        }
      ],
      "name": "getShortStays",
      "outputs": [
        {
          "components": [
            {
              "internalType": "uint256",
              "name": "id",
              "type": "uint256"
            },
            {
              "internalType": "string",
              "name": "descriptionURI",
              "type": "string"
            },
            {
              "internalType": "address",
              "name": "trustee",
              "type": "address"
            },
            {
              "internalType": "uint256",
              "name": "nPersons",
              "type": "uint256"
            },
            {
              "internalType": "uint256",
              "name": "slotsReserved",
              "type": "uint256"
            },
            {
              "internalType": "uint256",
              "name": "amountFunded",
              "type": "uint256"
            },
            {
              "internalType": "address[]",
              "name": "members",
              "type": "address[]"
            },
            {
              "internalType": "uint256",
              "name": "totalPrice",
              "type": "uint256"
            },
            {
              "internalType": "uint256",
              "name": "pricePerPerson",
              "type": "uint256"
            },
            {
              "internalType": "uint256",
              "name": "deadline",
              "type": "uint256"
            },
            {
              "internalType": "bool",
              "name": "isCreatorSlot",
              "type": "bool"
            },
            {
              "internalType": "bool",
              "name": "isActive",
              "type": "bool"
            },
            {
              "internalType": "bool",
              "name": "isFull",
              "type": "bool"
            }
          ],
          "internalType": "struct NomadicVault.ShortStay[]",
          "name": "",
          "type": "tuple[]"
        }
      ],
      "stateMutability": "view",
      "type": "function"
    },
    {
      "inputs": [
        {
          "internalType": "uint256",
          "name": "",
          "type": "uint256"
        }
      ],
      "name": "hhAddresses",
      "outputs": [
        {
          "internalType": "address",
          "name": "",
          "type": "address"
        }
      ],
      "stateMutability": "view",
      "type": "function"
    },
    {
      "inputs": [],
      "name": "hhTemplate",
      "outputs": [
        {
          "internalType": "address",
          "name": "",
          "type": "address"
        }
      ],
      "stateMutability": "view",
      "type": "function"
    },
    {
      "inputs": [
        {
          "internalType": "uint256",
          "name": "",
          "type": "uint256"
        }
      ],
      "name": "hhouses",
      "outputs": [
        {
          "internalType": "uint256",
          "name": "id",
          "type": "uint256"
        },
        {
          "internalType": "address",
          "name": "addr",
          "type": "address"
        },
        {
          "internalType": "bool",
          "name": "isActive",
          "type": "bool"
        },
        {
          "internalType": "uint256",
          "name": "coreTeamCount",
          "type": "uint256"
        },
        {
          "internalType": "string",
          "name": "name",
          "type": "string"
        },
        {
          "internalType": "string",
          "name": "descriptionURI",
          "type": "string"
        }
      ],
      "stateMutability": "view",
      "type": "function"
    },
    {
      "inputs": [
        {
          "internalType": "uint256",
          "name": "_daoId",
          "type": "uint256"
        }
      ],
      "name": "joinCoreTeam",
      "outputs": [],
      "stateMutability": "nonpayable",
      "type": "function"
    },
    {
      "inputs": [
        {
          "internalType": "uint256",
          "name": "_stayId",
          "type": "uint256"
        }
      ],
      "name": "joinShortStay",
      "outputs": [],
      "stateMutability": "payable",
      "type": "function"
    },
    {
      "inputs": [],
      "name": "numOfCoreTeam",
      "outputs": [
        {
          "internalType": "uint256",
          "name": "",
          "type": "uint256"
        }
      ],
      "stateMutability": "view",
      "type": "function"
    },
    {
      "inputs": [],
      "name": "owner",
      "outputs": [
        {
          "internalType": "address",
          "name": "",
          "type": "address"
        }
      ],
      "stateMutability": "view",
      "type": "function"
    },
    {
      "inputs": [
        {
          "internalType": "string",
          "name": "_name",
          "type": "string"
        },
        {
          "internalType": "string",
          "name": "_descriptionURI",
          "type": "string"
        },
        {
          "internalType": "uint256",
          "name": "_membershipCost",
          "type": "uint256"
        }
      ],
      "name": "proposeDAO",
      "outputs": [],
      "stateMutability": "nonpayable",
      "type": "function"
    },
    {
      "inputs": [
        {
          "internalType": "string",
          "name": "_descriptionURI",
          "type": "string"
        },
        {
          "internalType": "uint256",
          "name": "_nPersons",
          "type": "uint256"
        },
        {
          "internalType": "uint256",
          "name": "_totalPrice",
          "type": "uint256"
        },
        {
          "internalType": "uint256",
          "name": "_timeAvailable",
          "type": "uint256"
        },
        {
          "internalType": "bool",
          "name": "_isCreatorSlot",
          "type": "bool"
        }
      ],
      "name": "proposeShortStay",
      "outputs": [
        {
          "internalType": "uint256",
          "name": "",
          "type": "uint256"
        }
      ],
      "stateMutability": "nonpayable",
      "type": "function"
    },
    {
      "inputs": [],
      "name": "stayId",
      "outputs": [
        {
          "internalType": "uint256",
          "name": "_value",
          "type": "uint256"
        }
      ],
      "stateMutability": "view",
      "type": "function"
    },
    {
      "inputs": [
        {
          "internalType": "uint256",
          "name": "",
          "type": "uint256"
        }
      ],
      "name": "stays",
      "outputs": [
        {
          "internalType": "uint256",
          "name": "id",
          "type": "uint256"
        },
        {
          "internalType": "string",
          "name": "descriptionURI",
          "type": "string"
        },
        {
          "internalType": "address",
          "name": "trustee",
          "type": "address"
        },
        {
          "internalType": "uint256",
          "name": "nPersons",
          "type": "uint256"
        },
        {
          "internalType": "uint256",
          "name": "slotsReserved",
          "type": "uint256"
        },
        {
          "internalType": "uint256",
          "name": "amountFunded",
          "type": "uint256"
        },
        {
          "internalType": "uint256",
          "name": "totalPrice",
          "type": "uint256"
        },
        {
          "internalType": "uint256",
          "name": "pricePerPerson",
          "type": "uint256"
        },
        {
          "internalType": "uint256",
          "name": "deadline",
          "type": "uint256"
        },
        {
          "internalType": "bool",
          "name": "isCreatorSlot",
          "type": "bool"
        },
        {
          "internalType": "bool",
          "name": "isActive",
          "type": "bool"
        },
        {
          "internalType": "bool",
          "name": "isFull",
          "type": "bool"
        }
      ],
      "stateMutability": "view",
      "type": "function"
    }
  ],
  "transactionHash": "0x7b526b9354bbd7f326c7236755b3f8a9e281f028d2bc9ed1d35343fc3bd2b013",
  "args": [
    "0x5FbDB2315678afecb367f032d93F642f64180aa3"
  ],
  "numDeployments": 1,
  "solcInputHash": "9a71f9e43a9fa51dde0d3d527b03230d",
  "bytecode": "0x60806040526005805534801561001457600080fd5b50604051620024b4380380620024b483398101604081905261003591610068565b60028054336001600160a01b031991821617909155600380549091166001600160a01b0392909216919091179055610096565b600060208284031215610079578081fd5b81516001600160a01b038116811461008f578182fd5b9392505050565b61240e80620000a66000396000f3fe6080604052600436106100f35760003560e01c8063a9f92db91161008a578063c7943c6711610059578063c7943c6714610289578063c896b500146102b6578063cac2699b146102e8578063dcd80be5146102ff57600080fd5b8063a9f92db9146101fc578063ab8e1fdc1461021c578063c382e39a1461023c578063c4ab4beb1461027457600080fd5b806368d06601116100c657806368d066011461018e5780638da5cb5b146101a55780639989b914146101c5578063a47a97e4146101e757600080fd5b8063478567fe146100f85780635b1603ef146101355780635b8cf3091461015557806361d5292014610179575b600080fd5b34801561010457600080fd5b50600354610118906001600160a01b031681565b6040516001600160a01b0390911681526020015b60405180910390f35b34801561014157600080fd5b50610118610150366004611db7565b61031f565b34801561016157600080fd5b5061016b60055481565b60405190815260200161012c565b61018c610187366004611db7565b610349565b005b34801561019a57600080fd5b5060065461016b9081565b3480156101b157600080fd5b50600254610118906001600160a01b031681565b3480156101d157600080fd5b506101da610628565b60405161012c9190611f86565b3480156101f357600080fd5b5061018c61093d565b34801561020857600080fd5b5061018c610217366004611cdc565b610974565b34801561022857600080fd5b5061018c610237366004611db7565b610b2c565b34801561024857600080fd5b5061025c610257366004611db7565b610c92565b60405161012c9c9b9a9998979695949392919061223a565b34801561028057600080fd5b506101da610d8a565b34801561029557600080fd5b506102a96102a4366004611c34565b611094565b60405161012c9190612060565b3480156102c257600080fd5b506102d66102d1366004611db7565b6113a5565b60405161012c969594939291906121b3565b3480156102f457600080fd5b5060075461016b9081565b34801561030b57600080fd5b5061016b61031a366004611d46565b6114fa565b6004818154811061032f57600080fd5b6000918252602090912001546001600160a01b0316905081565b6000818152602081905260409020600a01548190610100900460ff16801561038957506000818152602081905260409020600a015462010000900460ff16155b80156103a5575060008181526020819052604090206009015442105b61040d5760405162461bcd60e51b815260206004820152602e60248201527f537461792069732066756c6c2c20696e616374697665206f7220646561646c6960448201526d1b99481dd85cc81c995858da195960921b60648201526084015b60405180910390fd5b6000828152602081905260409020600881015434101561046f5760405162461bcd60e51b815260206004820152601760248201527f496e73756666696369656e742076616c75652073656e740000000000000000006044820152606401610404565b600381015460009081905b808210156104e557336001600160a01b03168460060183815481106104af57634e487b7160e01b600052603260045260246000fd5b6000918252602090912001546001600160a01b031614156104d357600192506104e5565b816104dd81612358565b92505061047a565b82156105335760405162461bcd60e51b815260206004820152601960248201527f596f752061726520616c7265616479207369676e6564207570000000000000006044820152606401610404565b6006840180546001810182556000918252602082200180546001600160a01b031916331790556004850180549161056983612358565b9190505550836008015484600501600082825461058691906122e5565b9091555050604080518781523360208201527f460d21d4cbf85b35cb5c7f324f30ebd971ebbd70742a3aa7b2155624c6b36016910160405180910390a1836003015484600401541061062057600a8401805462ff00001916620100001790556040517fe1901de7acf5b4425e071d7895f1519f19ae4f4b6b51259d67718b2af22e0da2906106179088815260200190565b60405180910390a15b505050505050565b6060600061063560075490565b905060008060005b838110156106875760008181526001602081905260409091200154600160a01b900460ff1615610675578261067181612358565b9350505b8061067f81612358565b91505061063d565b5060008267ffffffffffffffff8111156106b157634e487b7160e01b600052604160045260246000fd5b6040519080825280602002602001820160405280156106ea57816020015b6106d7611a93565b8152602001906001900390816106cf5790505b50905060005b838110156109345760008181526001602081905260409091200154600160a01b900460ff161561092257600081815260016020818152604092839020835160e08101855281548152928101546001600160a01b03811684840152600160a01b900460ff161515838501526002810180548551818502810185019096528086529394919360608601938301828280156107b157602002820191906000526020600020905b81546001600160a01b03168152600190910190602001808311610793575b50505050508152602001600382015481526020016004820180546107d49061231d565b80601f01602080910402602001604051908101604052809291908181526020018280546108009061231d565b801561084d5780601f106108225761010080835404028352916020019161084d565b820191906000526020600020905b81548152906001019060200180831161083057829003601f168201915b505050505081526020016005820180546108669061231d565b80601f01602080910402602001604051908101604052809291908181526020018280546108929061231d565b80156108df5780601f106108b4576101008083540402835291602001916108df565b820191906000526020600020905b8154815290600101906020018083116108c257829003601f168201915b50505050508152505082848151811061090857634e487b7160e01b600052603260045260246000fd5b6020026020010181905250828061091e90612358565b9350505b8061092c81612358565b9150506106f0565b50949350505050565b600061094860065490565b905060005b818110156109705761095e816117da565b8061096881612358565b91505061094d565b5050565b600061097f60075490565b9050600060055467ffffffffffffffff8111156109ac57634e487b7160e01b600052604160045260246000fd5b6040519080825280602002602001820160405280156109d5578160200160208202803683370190505b50905033816000815181106109fa57634e487b7160e01b600052603260045260246000fd5b6001600160a01b039283166020918202929092018101919091526040805160e08101825285815260008184018181528284018281526060840188815260016080860181905260a086018e905260c086018d90528a855280885295909320845181559151948201805491511515600160a01b026001600160a81b0319909216959097169490941793909317909455925180519192610a9f92600285019290910190611adb565b506080820151600382015560a08201518051610ac5916004840191602090910190611b40565b5060c08201518051610ae1916005840191602090910190611b40565b50506040518381527f8c05d6001935e71f03f5fcda0c668250260f3bb6c88b7c8e4d90b901761bdcfc915060200160405180910390a1610b25600780546001019055565b5050505050565b60008181526001602081905260409091200154600160a01b900460ff1615610b8e5760405162461bcd60e51b815260206004820152601560248201527464616f20697320616c72656164792061637469766560581b6044820152606401610404565b60008181526001602052604090206003810154600290910180543392908110610bc757634e487b7160e01b600052603260045260246000fd5b600091825260208083209190910180546001600160a01b0319166001600160a01b039490941693909317909255828152600190915260408120600301805491610c0f83612358565b909155505060055460008281526001602052604090206003015410610c5a57600081815260016020819052604090912001805460ff60a01b1916600160a01b179055610c5a8161180f565b610c8f6040518060600160405280603981526020016123a0603991396000838152600160205260409020600201548390611993565b50565b60006020819052908152604090208054600182018054919291610cb49061231d565b80601f0160208091040260200160405190810160405280929190818152602001828054610ce09061231d565b8015610d2d5780601f10610d0257610100808354040283529160200191610d2d565b820191906000526020600020905b815481529060010190602001808311610d1057829003601f168201915b50505060028401546003850154600486015460058701546007880154600889015460098a0154600a909a015498996001600160a01b03909616989497509295509093909260ff80821691610100810482169162010000909104168c565b60606000610d9760075490565b905060008060005b83811015610de85760008181526001602081905260409091200154600160a01b900460ff16610dd65782610dd281612358565b9350505b80610de081612358565b915050610d9f565b5060008267ffffffffffffffff811115610e1257634e487b7160e01b600052604160045260246000fd5b604051908082528060200260200182016040528015610e4b57816020015b610e38611a93565b815260200190600190039081610e305790505b50905060005b838110156109345760008181526001602081905260409091200154600160a01b900460ff1661108257600081815260016020818152604092839020835160e08101855281548152928101546001600160a01b03811684840152600160a01b900460ff16151583850152600281018054855181850281018501909652808652939491936060860193830182828015610f1157602002820191906000526020600020905b81546001600160a01b03168152600190910190602001808311610ef3575b5050505050815260200160038201548152602001600482018054610f349061231d565b80601f0160208091040260200160405190810160405280929190818152602001828054610f609061231d565b8015610fad5780601f10610f8257610100808354040283529160200191610fad565b820191906000526020600020905b815481529060010190602001808311610f9057829003601f168201915b50505050508152602001600582018054610fc69061231d565b80601f0160208091040260200160405190810160405280929190818152602001828054610ff29061231d565b801561103f5780601f106110145761010080835404028352916020019161103f565b820191906000526020600020905b81548152906001019060200180831161102257829003601f168201915b50505050508152505082848151811061106857634e487b7160e01b600052603260045260246000fd5b6020026020010181905250828061107e90612358565b9350505b8061108c81612358565b915050610e51565b805160609060008167ffffffffffffffff8111156110c257634e487b7160e01b600052604160045260246000fd5b60405190808252806020026020018201604052801561116d57816020015b61115a604051806101a00160405280600081526020016060815260200160006001600160a01b03168152602001600081526020016000815260200160008152602001606081526020016000815260200160008152602001600081526020016000151581526020016000151581526020016000151581525090565b8152602001906001900390816110e05790505b50845190915060005b8181101561139b576000808783815181106111a157634e487b7160e01b600052603260045260246000fd5b60200260200101518152602001908152602001600020604051806101a0016040529081600082015481526020016001820180546111dd9061231d565b80601f01602080910402602001604051908101604052809291908181526020018280546112099061231d565b80156112565780601f1061122b57610100808354040283529160200191611256565b820191906000526020600020905b81548152906001019060200180831161123957829003601f168201915b505050505081526020016002820160009054906101000a90046001600160a01b03166001600160a01b03166001600160a01b031681526020016003820154815260200160048201548152602001600582015481526020016006820180548060200260200160405190810160405280929190818152602001828054801561130557602002820191906000526020600020905b81546001600160a01b031681526001909101906020018083116112e7575b5050509183525050600782015460208201526008820154604082015260098201546060820152600a9091015460ff8082161515608084015261010082048116151560a08401526201000090910416151560c090910152835184908390811061137d57634e487b7160e01b600052603260045260246000fd5b6020026020010181905250808061139390612358565b915050611176565b5090949350505050565b600160208190526000918252604090912080549181015460038201546004830180546001600160a01b03841694600160a01b90940460ff169391906113e99061231d565b80601f01602080910402602001604051908101604052809291908181526020018280546114159061231d565b80156114625780601f1061143757610100808354040283529160200191611462565b820191906000526020600020905b81548152906001019060200180831161144557829003601f168201915b5050505050908060050180546114779061231d565b80601f01602080910402602001604051908101604052809291908181526020018280546114a39061231d565b80156114f05780601f106114c5576101008083540402835291602001916114f0565b820191906000526020600020905b8154815290600101906020018083116114d357829003601f168201915b5050505050905086565b600080851161154b5760405162461bcd60e51b815260206004820152601a60248201527f4174206c65617374206f6e6520726f6f6d2072657175697265640000000000006044820152606401610404565b600061155660065490565b9050600083611566576000611569565b60015b60ff16905060008767ffffffffffffffff81111561159757634e487b7160e01b600052604160045260246000fd5b6040519080825280602002602001820160405280156115c0578160200160208202803683370190505b509050841561160c5733816000815181106115eb57634e487b7160e01b600052603260045260246000fd5b60200260200101906001600160a01b031690816001600160a01b0316815250505b604051806101a001604052808481526020018a8152602001336001600160a01b0316815260200189815260200183815260200160008152602001828152602001888152602001898961165e91906122fd565b6116699060016122e5565b815260200161167888426122e5565b815286151560208083019190915260016040808401829052600060609094018490528784528383529092208351815583820151805191936116bf9390850192910190611b40565b5060408201516002820180546001600160a01b0319166001600160a01b03909216919091179055606082015160038201556080820151600482015560a0820151600582015560c0820151805161171f916006840191602090910190611adb565b5060e082015160078201556101008083015160088301556101208301516009830155610140830151600a90920180546101608501516101809095015161ffff1990911693151561ff001916939093179315159091029290921762ff000019166201000091151591909102179055600680546001019055604080518481523360208201527fa322f9beee28d40f70deae6c1c8f9edde1e1275fea1ede699debb1edcaece00f910160405180910390a15090979650505050505050565b600081815260208190526040902060090154421115610c8f576000908152602081905260409020600a01805461ff0019169055565b600354600090611827906001600160a01b03166119df565b6000838152600160205260409081902090516314a88d6160e01b81529192506001600160a01b038316916314a88d61916118769130918791600282019160048082019260059092019101611efb565b600060405180830381600087803b15801561189057600080fd5b505af11580156118a4573d6000803e3d6000fd5b5050506000838152600160208181526040808420830180546001600160a01b0388166001600160a01b031991821681179092556004805495860181559095527f8a35acfbc15ff81a39ae7d344fd709f28e8600b4aa8c65c6b64bfe7fe36bd19b90930180549094169092179092558051808201909152600b81526a6465706c6f79656420257360a81b9181019190915261193f915082611a31565b7fa2e1298a87c84f51cd3f3b69345a0155dd4bb087e223fb4f527f8faebb79156782826001600086815260200190815260200160002060040160405161198793929190612207565b60405180910390a15050565b6119da8383836040516024016119ab9392919061218e565b60408051601f198184030181529190526020810180516001600160e01b031663969cdd0360e01b179052611a72565b505050565b6000808260601b9050604051733d602d80600a3d3981f3363d3d373d3d3d363d7360601b81528160148201526e5af43d82803e903d91602b57fd5bf360881b60288201526037816000f0949350505050565b6109708282604051602401611a47929190612164565b60408051601f198184030181529190526020810180516001600160e01b031663319af33360e01b1790525b80516a636f6e736f6c652e6c6f67602083016000808483855afa5050505050565b6040518060e001604052806000815260200160006001600160a01b03168152602001600015158152602001606081526020016000815260200160608152602001606081525090565b828054828255906000526020600020908101928215611b30579160200282015b82811115611b3057825182546001600160a01b0319166001600160a01b03909116178255602090920191600190910190611afb565b50611b3c929150611bb4565b5090565b828054611b4c9061231d565b90600052602060002090601f016020900481019282611b6e5760008555611b30565b82601f10611b8757805160ff1916838001178555611b30565b82800160010185558215611b30579182015b82811115611b30578251825591602001919060010190611b99565b5b80821115611b3c5760008155600101611bb5565b600082601f830112611bd9578081fd5b813567ffffffffffffffff811115611bf357611bf3612389565b611c06601f8201601f19166020016122b4565b818152846020838601011115611c1a578283fd5b816020850160208301379081016020019190915292915050565b60006020808385031215611c46578182fd5b823567ffffffffffffffff80821115611c5d578384fd5b818501915085601f830112611c70578384fd5b813581811115611c8257611c82612389565b8060051b9150611c938483016122b4565b8181528481019084860184860187018a1015611cad578788fd5b8795505b83861015611ccf578035835260019590950194918601918601611cb1565b5098975050505050505050565b600080600060608486031215611cf0578182fd5b833567ffffffffffffffff80821115611d07578384fd5b611d1387838801611bc9565b94506020860135915080821115611d28578384fd5b50611d3586828701611bc9565b925050604084013590509250925092565b600080600080600060a08688031215611d5d578081fd5b853567ffffffffffffffff811115611d73578182fd5b611d7f88828901611bc9565b95505060208601359350604086013592506060860135915060808601358015158114611da9578182fd5b809150509295509295909350565b600060208284031215611dc8578081fd5b5035919050565b6000815180845260208085019450808401835b83811015611e075781516001600160a01b031687529582019590820190600101611de2565b509495945050505050565b60008151808452815b81811015611e3757602081850181015186830182015201611e1b565b81811115611e485782602083870101525b50601f01601f19169290920160200192915050565b8054600090600181811c9080831680611e7757607f831692505b6020808410821415611e9757634e487b7160e01b86526022600452602486fd5b83885260208801828015611eb25760018114611ec357611eee565b60ff19871682528282019750611eee565b60008981526020902060005b87811015611ee857815484820152908601908401611ecf565b83019850505b5050505050505092915050565b600060a0820160018060a01b0380891684526020888186015260a0604086015282885480855260c0870191508986528286209450855b81811015611f4f578554851683526001958601959284019201611f31565b50508581036060870152611f638189611e5d565b93505050508281036080840152611f7a8185611e5d565b98975050505050505050565b60006020808301818452808551808352604092508286019150828160051b870101848801865b8381101561205257888303603f19018552815180518452878101516001600160a01b0316888501528681015115158785015260608082015160e08287018190529190611ffa83880182611dcf565b92505050608080830151818701525060a080830151868303828801526120208382611e12565b9250505060c0808301519250858203818701525061203e8183611e12565b968901969450505090860190600101611fac565b509098975050505050505050565b60006020808301818452808551808352604092508286019150828160051b870101848801865b8381101561205257603f1989840301855281516101a08151855288820151818a8701526120b582870182611e12565b915050878201516120d0898701826001600160a01b03169052565b50606082810151908601526080808301519086015260a0808301519086015260c080830151868303828801526121068382611dcf565b60e0858101519089015261010080860151908901526101208086015190890152610140808601511515908901526101608086015115159089015261018094850151151594909701939093525050509386019390860190600101612086565b6040815260006121776040830185611e12565b905060018060a01b03831660208301529392505050565b6060815260006121a16060830186611e12565b60208301949094525060400152919050565b86815260018060a01b0386166020820152841515604082015283606082015260c0608082015260006121e860c0830185611e12565b82810360a08401526121fa8185611e12565b9998505050505050505050565b8381526001600160a01b038316602082015260606040820181905260009061223190830184611e5d565b95945050505050565b60006101808e83528060208401526122548184018f611e12565b6001600160a01b039d909d16604084015250506060810199909952608089019790975260a088019590955260c087019390935260e08601919091526101008501521515610120840152151561014083015215156101609091015292915050565b604051601f8201601f1916810167ffffffffffffffff811182821017156122dd576122dd612389565b604052919050565b600082198211156122f8576122f8612373565b500190565b60008261231857634e487b7160e01b81526012600452602481fd5b500490565b600181811c9082168061233157607f821691505b6020821081141561235257634e487b7160e01b600052602260045260246000fd5b50919050565b600060001982141561236c5761236c612373565b5060010190565b634e487b7160e01b600052601160045260246000fd5b634e487b7160e01b600052604160045260246000fdfe6a6f696e436f72655465616d2064616f49643a2025732068686f757365735b5f64616f49645d2e636f72655465616d2e6c656e677468202573a26469706673582212207ac2f4bfe9a82417053385f194cfddce7f176a64d788c58b915381bd07b6b06764736f6c63430008040033",
  "devdoc": {
    "kind": "dev",
    "methods": {},
    "version": 1
  },
  "userdoc": {
    "kind": "user",
    "methods": {},
    "version": 1
  },
  "storageLayout": {
    "storage": [
      {
        "astId": 692,
        "contract": "contracts/NomadicVault.sol:NomadicVault",
        "label": "stays",
        "offset": 0,
        "slot": "0",
        "type": "t_mapping(t_uint256,t_struct(ShortStay)671_storage)"
      },
      {
        "astId": 697,
        "contract": "contracts/NomadicVault.sol:NomadicVault",
        "label": "hhouses",
        "offset": 0,
        "slot": "1",
        "type": "t_mapping(t_uint256,t_struct(HackerHouse)687_storage)"
      },
      {
        "astId": 699,
        "contract": "contracts/NomadicVault.sol:NomadicVault",
        "label": "owner",
        "offset": 0,
        "slot": "2",
        "type": "t_address"
      },
      {
        "astId": 701,
        "contract": "contracts/NomadicVault.sol:NomadicVault",
        "label": "hhTemplate",
        "offset": 0,
        "slot": "3",
        "type": "t_address"
      },
      {
        "astId": 704,
        "contract": "contracts/NomadicVault.sol:NomadicVault",
        "label": "hhAddresses",
        "offset": 0,
        "slot": "4",
        "type": "t_array(t_address)dyn_storage"
      },
      {
        "astId": 707,
        "contract": "contracts/NomadicVault.sol:NomadicVault",
        "label": "numOfCoreTeam",
        "offset": 0,
        "slot": "5",
        "type": "t_uint256"
      },
      {
        "astId": 710,
        "contract": "contracts/NomadicVault.sol:NomadicVault",
        "label": "stayId",
        "offset": 0,
        "slot": "6",
        "type": "t_struct(Counter)5_storage"
      },
      {
        "astId": 713,
        "contract": "contracts/NomadicVault.sol:NomadicVault",
        "label": "daoId",
        "offset": 0,
        "slot": "7",
        "type": "t_struct(Counter)5_storage"
      }
    ],
    "types": {
      "t_address": {
        "encoding": "inplace",
        "label": "address",
        "numberOfBytes": "20"
      },
      "t_array(t_address)dyn_storage": {
        "base": "t_address",
        "encoding": "dynamic_array",
        "label": "address[]",
        "numberOfBytes": "32"
      },
      "t_bool": {
        "encoding": "inplace",
        "label": "bool",
        "numberOfBytes": "1"
      },
      "t_mapping(t_uint256,t_struct(HackerHouse)687_storage)": {
        "encoding": "mapping",
        "key": "t_uint256",
        "label": "mapping(uint256 => struct NomadicVault.HackerHouse)",
        "numberOfBytes": "32",
        "value": "t_struct(HackerHouse)687_storage"
      },
      "t_mapping(t_uint256,t_struct(ShortStay)671_storage)": {
        "encoding": "mapping",
        "key": "t_uint256",
        "label": "mapping(uint256 => struct NomadicVault.ShortStay)",
        "numberOfBytes": "32",
        "value": "t_struct(ShortStay)671_storage"
      },
      "t_string_storage": {
        "encoding": "bytes",
        "label": "string",
        "numberOfBytes": "32"
      },
      "t_struct(Counter)5_storage": {
        "encoding": "inplace",
        "label": "struct Counters.Counter",
        "members": [
          {
            "astId": 4,
            "contract": "contracts/NomadicVault.sol:NomadicVault",
            "label": "_value",
            "offset": 0,
            "slot": "0",
            "type": "t_uint256"
          }
        ],
        "numberOfBytes": "32"
      },
      "t_struct(HackerHouse)687_storage": {
        "encoding": "inplace",
        "label": "struct NomadicVault.HackerHouse",
        "members": [
          {
            "astId": 673,
            "contract": "contracts/NomadicVault.sol:NomadicVault",
            "label": "id",
            "offset": 0,
            "slot": "0",
            "type": "t_uint256"
          },
          {
            "astId": 675,
            "contract": "contracts/NomadicVault.sol:NomadicVault",
            "label": "addr",
            "offset": 0,
            "slot": "1",
            "type": "t_address"
          },
          {
            "astId": 677,
            "contract": "contracts/NomadicVault.sol:NomadicVault",
            "label": "isActive",
            "offset": 20,
            "slot": "1",
            "type": "t_bool"
          },
          {
            "astId": 680,
            "contract": "contracts/NomadicVault.sol:NomadicVault",
            "label": "coreTeam",
            "offset": 0,
            "slot": "2",
            "type": "t_array(t_address)dyn_storage"
          },
          {
            "astId": 682,
            "contract": "contracts/NomadicVault.sol:NomadicVault",
            "label": "coreTeamCount",
            "offset": 0,
            "slot": "3",
            "type": "t_uint256"
          },
          {
            "astId": 684,
            "contract": "contracts/NomadicVault.sol:NomadicVault",
            "label": "name",
            "offset": 0,
            "slot": "4",
            "type": "t_string_storage"
          },
          {
            "astId": 686,
            "contract": "contracts/NomadicVault.sol:NomadicVault",
            "label": "descriptionURI",
            "offset": 0,
            "slot": "5",
            "type": "t_string_storage"
          }
        ],
        "numberOfBytes": "192"
      },
      "t_struct(ShortStay)671_storage": {
        "encoding": "inplace",
        "label": "struct NomadicVault.ShortStay",
        "members": [
          {
            "astId": 645,
            "contract": "contracts/NomadicVault.sol:NomadicVault",
            "label": "id",
            "offset": 0,
            "slot": "0",
            "type": "t_uint256"
          },
          {
            "astId": 647,
            "contract": "contracts/NomadicVault.sol:NomadicVault",
            "label": "descriptionURI",
            "offset": 0,
            "slot": "1",
            "type": "t_string_storage"
          },
          {
            "astId": 649,
            "contract": "contracts/NomadicVault.sol:NomadicVault",
            "label": "trustee",
            "offset": 0,
            "slot": "2",
            "type": "t_address"
          },
          {
            "astId": 651,
            "contract": "contracts/NomadicVault.sol:NomadicVault",
            "label": "nPersons",
            "offset": 0,
            "slot": "3",
            "type": "t_uint256"
          },
          {
            "astId": 653,
            "contract": "contracts/NomadicVault.sol:NomadicVault",
            "label": "slotsReserved",
            "offset": 0,
            "slot": "4",
            "type": "t_uint256"
          },
          {
            "astId": 655,
            "contract": "contracts/NomadicVault.sol:NomadicVault",
            "label": "amountFunded",
            "offset": 0,
            "slot": "5",
            "type": "t_uint256"
          },
          {
            "astId": 658,
            "contract": "contracts/NomadicVault.sol:NomadicVault",
            "label": "members",
            "offset": 0,
            "slot": "6",
            "type": "t_array(t_address)dyn_storage"
          },
          {
            "astId": 660,
            "contract": "contracts/NomadicVault.sol:NomadicVault",
            "label": "totalPrice",
            "offset": 0,
            "slot": "7",
            "type": "t_uint256"
          },
          {
            "astId": 662,
            "contract": "contracts/NomadicVault.sol:NomadicVault",
            "label": "pricePerPerson",
            "offset": 0,
            "slot": "8",
            "type": "t_uint256"
          },
          {
            "astId": 664,
            "contract": "contracts/NomadicVault.sol:NomadicVault",
            "label": "deadline",
            "offset": 0,
            "slot": "9",
            "type": "t_uint256"
          },
          {
            "astId": 666,
            "contract": "contracts/NomadicVault.sol:NomadicVault",
            "label": "isCreatorSlot",
            "offset": 0,
            "slot": "10",
            "type": "t_bool"
          },
          {
            "astId": 668,
            "contract": "contracts/NomadicVault.sol:NomadicVault",
            "label": "isActive",
            "offset": 1,
            "slot": "10",
            "type": "t_bool"
          },
          {
            "astId": 670,
            "contract": "contracts/NomadicVault.sol:NomadicVault",
            "label": "isFull",
            "offset": 2,
            "slot": "10",
            "type": "t_bool"
          }
        ],
        "numberOfBytes": "352"
      },
      "t_uint256": {
        "encoding": "inplace",
        "label": "uint256",
        "numberOfBytes": "32"
      }
    }
  }
}