{
  "address": "0xe7f1725E7734CE288F8367e1Bb143E90bb3F0512",
  "abi": [
    {
      "inputs": [
        {
          "internalType": "address",
          "name": "_hhTemplate",
          "type": "address"
        }
      ],
      "stateMutability": "nonpayable",
      "type": "constructor"
    },
    {
      "anonymous": false,
      "inputs": [
        {
          "indexed": false,
          "internalType": "uint256",
          "name": "_daoId",
          "type": "uint256"
        }
      ],
      "name": "DAOProposed",
      "type": "event"
    },
    {
      "anonymous": false,
      "inputs": [
        {
          "indexed": false,
          "internalType": "uint256",
          "name": "_daoId",
          "type": "uint256"
        },
        {
          "indexed": false,
          "internalType": "address",
          "name": "_daoAddress",
          "type": "address"
        },
        {
          "indexed": false,
          "internalType": "string",
          "name": "_daoName",
          "type": "string"
        }
      ],
      "name": "HHouseDeployed",
      "type": "event"
    },
    {
      "anonymous": false,
      "inputs": [
        {
          "indexed": false,
          "internalType": "uint256",
          "name": "_stayId",
          "type": "uint256"
        },
        {
          "indexed": false,
          "internalType": "address",
          "name": "_newMember",
          "type": "address"
        }
      ],
      "name": "JoinStay",
      "type": "event"
    },
    {
      "anonymous": false,
      "inputs": [
        {
          "indexed": false,
          "internalType": "uint256",
          "name": "_stayId",
          "type": "uint256"
        },
        {
          "indexed": false,
          "internalType": "address",
          "name": "_trustee",
          "type": "address"
        }
      ],
      "name": "ProposeStay",
      "type": "event"
    },
    {
      "anonymous": false,
      "inputs": [
        {
          "indexed": false,
          "internalType": "uint256",
          "name": "_stayId",
          "type": "uint256"
        }
      ],
      "name": "StayIsFull",
      "type": "event"
    },
    {
      "inputs": [],
      "name": "checkDeadlines",
      "outputs": [],
      "stateMutability": "nonpayable",
      "type": "function"
    },
    {
      "inputs": [],
      "name": "daoId",
      "outputs": [
        {
          "internalType": "uint256",
          "name": "_value",
          "type": "uint256"
        }
      ],
      "stateMutability": "view",
      "type": "function"
    },
    {
      "inputs": [],
      "name": "getActiveDAOs",
      "outputs": [
        {
          "components": [
            {
              "internalType": "uint256",
              "name": "id",
              "type": "uint256"
            },
            {
              "internalType": "address",
              "name": "addr",
              "type": "address"
            },
            {
              "internalType": "bool",
              "name": "isActive",
              "type": "bool"
            },
            {
              "internalType": "address[]",
              "name": "coreTeam",
              "type": "address[]"
            },
            {
              "internalType": "uint256",
              "name": "coreTeamCount",
              "type": "uint256"
            },
            {
              "internalType": "string",
              "name": "name",
              "type": "string"
            },
            {
              "internalType": "string",
              "name": "descriptionURI",
              "type": "string"
            },
            {
              "internalType": "uint256",
              "name": "membershipCost",
              "type": "uint256"
            }
          ],
          "internalType": "struct NomadicVault.HackerHouse[]",
          "name": "",
          "type": "tuple[]"
        }
      ],
      "stateMutability": "view",
      "type": "function"
    },
    {
      "inputs": [],
      "name": "getFormingDAOs",
      "outputs": [
        {
          "components": [
            {
              "internalType": "uint256",
              "name": "id",
              "type": "uint256"
            },
            {
              "internalType": "address",
              "name": "addr",
              "type": "address"
            },
            {
              "internalType": "bool",
              "name": "isActive",
              "type": "bool"
            },
            {
              "internalType": "address[]",
              "name": "coreTeam",
              "type": "address[]"
            },
            {
              "internalType": "uint256",
              "name": "coreTeamCount",
              "type": "uint256"
            },
            {
              "internalType": "string",
              "name": "name",
              "type": "string"
            },
            {
              "internalType": "string",
              "name": "descriptionURI",
              "type": "string"
            },
            {
              "internalType": "uint256",
              "name": "membershipCost",
              "type": "uint256"
            }
          ],
          "internalType": "struct NomadicVault.HackerHouse[]",
          "name": "",
          "type": "tuple[]"
        }
      ],
      "stateMutability": "view",
      "type": "function"
    },
    {
      "inputs": [
        {
          "internalType": "uint256",
          "name": "_hhId",
          "type": "uint256"
        }
      ],
      "name": "getHackerHouseById",
      "outputs": [
        {
          "components": [
            {
              "internalType": "uint256",
              "name": "id",
              "type": "uint256"
            },
            {
              "internalType": "address",
              "name": "addr",
              "type": "address"
            },
            {
              "internalType": "bool",
              "name": "isActive",
              "type": "bool"
            },
            {
              "internalType": "address[]",
              "name": "coreTeam",
              "type": "address[]"
            },
            {
              "internalType": "uint256",
              "name": "coreTeamCount",
              "type": "uint256"
            },
            {
              "internalType": "string",
              "name": "name",
              "type": "string"
            },
            {
              "internalType": "string",
              "name": "descriptionURI",
              "type": "string"
            },
            {
              "internalType": "uint256",
              "name": "membershipCost",
              "type": "uint256"
            }
          ],
          "internalType": "struct NomadicVault.HackerHouse",
          "name": "",
          "type": "tuple"
        }
      ],
      "stateMutability": "view",
      "type": "function"
    },
    {
      "inputs": [
        {
          "internalType": "uint256[]",
          "name": "_stayIndexes",
          "type": "uint256[]"
        }
      ],
      "name": "getShortStays",
      "outputs": [
        {
          "components": [
            {
              "internalType": "uint256",
              "name": "id",
              "type": "uint256"
            },
            {
              "internalType": "string",
              "name": "descriptionURI",
              "type": "string"
            },
            {
              "internalType": "address",
              "name": "trustee",
              "type": "address"
            },
            {
              "internalType": "uint256",
              "name": "nPersons",
              "type": "uint256"
            },
            {
              "internalType": "uint256",
              "name": "slotsReserved",
              "type": "uint256"
            },
            {
              "internalType": "uint256",
              "name": "amountFunded",
              "type": "uint256"
            },
            {
              "internalType": "address[]",
              "name": "members",
              "type": "address[]"
            },
            {
              "internalType": "uint256",
              "name": "totalPrice",
              "type": "uint256"
            },
            {
              "internalType": "uint256",
              "name": "pricePerPerson",
              "type": "uint256"
            },
            {
              "internalType": "uint256",
              "name": "deadline",
              "type": "uint256"
            },
            {
              "internalType": "bool",
              "name": "isCreatorSlot",
              "type": "bool"
            },
            {
              "internalType": "bool",
              "name": "isActive",
              "type": "bool"
            },
            {
              "internalType": "bool",
              "name": "isFull",
              "type": "bool"
            }
          ],
          "internalType": "struct NomadicVault.ShortStay[]",
          "name": "",
          "type": "tuple[]"
        }
      ],
      "stateMutability": "view",
      "type": "function"
    },
    {
      "inputs": [
        {
          "internalType": "uint256",
          "name": "",
          "type": "uint256"
        }
      ],
      "name": "hhAddresses",
      "outputs": [
        {
          "internalType": "address",
          "name": "",
          "type": "address"
        }
      ],
      "stateMutability": "view",
      "type": "function"
    },
    {
      "inputs": [],
      "name": "hhTemplate",
      "outputs": [
        {
          "internalType": "address",
          "name": "",
          "type": "address"
        }
      ],
      "stateMutability": "view",
      "type": "function"
    },
    {
      "inputs": [
        {
          "internalType": "uint256",
          "name": "",
          "type": "uint256"
        }
      ],
      "name": "hhouses",
      "outputs": [
        {
          "internalType": "uint256",
          "name": "id",
          "type": "uint256"
        },
        {
          "internalType": "address",
          "name": "addr",
          "type": "address"
        },
        {
          "internalType": "bool",
          "name": "isActive",
          "type": "bool"
        },
        {
          "internalType": "uint256",
          "name": "coreTeamCount",
          "type": "uint256"
        },
        {
          "internalType": "string",
          "name": "name",
          "type": "string"
        },
        {
          "internalType": "string",
          "name": "descriptionURI",
          "type": "string"
        },
        {
          "internalType": "uint256",
          "name": "membershipCost",
          "type": "uint256"
        }
      ],
      "stateMutability": "view",
      "type": "function"
    },
    {
      "inputs": [
        {
          "internalType": "uint256",
          "name": "_daoId",
          "type": "uint256"
        }
      ],
      "name": "joinCoreTeam",
      "outputs": [],
      "stateMutability": "nonpayable",
      "type": "function"
    },
    {
      "inputs": [
        {
          "internalType": "uint256",
          "name": "_stayId",
          "type": "uint256"
        }
      ],
      "name": "joinShortStay",
      "outputs": [],
      "stateMutability": "payable",
      "type": "function"
    },
    {
      "inputs": [],
      "name": "numOfCoreTeam",
      "outputs": [
        {
          "internalType": "uint256",
          "name": "",
          "type": "uint256"
        }
      ],
      "stateMutability": "view",
      "type": "function"
    },
    {
      "inputs": [],
      "name": "owner",
      "outputs": [
        {
          "internalType": "address",
          "name": "",
          "type": "address"
        }
      ],
      "stateMutability": "view",
      "type": "function"
    },
    {
      "inputs": [
        {
          "internalType": "string",
          "name": "_name",
          "type": "string"
        },
        {
          "internalType": "string",
          "name": "_descriptionURI",
          "type": "string"
        },
        {
          "internalType": "uint256",
          "name": "_membershipCost",
          "type": "uint256"
        }
      ],
      "name": "proposeDAO",
      "outputs": [],
      "stateMutability": "nonpayable",
      "type": "function"
    },
    {
      "inputs": [
        {
          "internalType": "string",
          "name": "_descriptionURI",
          "type": "string"
        },
        {
          "internalType": "uint256",
          "name": "_nPersons",
          "type": "uint256"
        },
        {
          "internalType": "uint256",
          "name": "_totalPrice",
          "type": "uint256"
        },
        {
          "internalType": "uint256",
          "name": "_timeAvailable",
          "type": "uint256"
        },
        {
          "internalType": "bool",
          "name": "_isCreatorSlot",
          "type": "bool"
        }
      ],
      "name": "proposeShortStay",
      "outputs": [
        {
          "internalType": "uint256",
          "name": "",
          "type": "uint256"
        }
      ],
      "stateMutability": "nonpayable",
      "type": "function"
    },
    {
      "inputs": [],
      "name": "stayId",
      "outputs": [
        {
          "internalType": "uint256",
          "name": "_value",
          "type": "uint256"
        }
      ],
      "stateMutability": "view",
      "type": "function"
    },
    {
      "inputs": [
        {
          "internalType": "uint256",
          "name": "",
          "type": "uint256"
        }
      ],
      "name": "stays",
      "outputs": [
        {
          "internalType": "uint256",
          "name": "id",
          "type": "uint256"
        },
        {
          "internalType": "string",
          "name": "descriptionURI",
          "type": "string"
        },
        {
          "internalType": "address",
          "name": "trustee",
          "type": "address"
        },
        {
          "internalType": "uint256",
          "name": "nPersons",
          "type": "uint256"
        },
        {
          "internalType": "uint256",
          "name": "slotsReserved",
          "type": "uint256"
        },
        {
          "internalType": "uint256",
          "name": "amountFunded",
          "type": "uint256"
        },
        {
          "internalType": "uint256",
          "name": "totalPrice",
          "type": "uint256"
        },
        {
          "internalType": "uint256",
          "name": "pricePerPerson",
          "type": "uint256"
        },
        {
          "internalType": "uint256",
          "name": "deadline",
          "type": "uint256"
        },
        {
          "internalType": "bool",
          "name": "isCreatorSlot",
          "type": "bool"
        },
        {
          "internalType": "bool",
          "name": "isActive",
          "type": "bool"
        },
        {
          "internalType": "bool",
          "name": "isFull",
          "type": "bool"
        }
      ],
      "stateMutability": "view",
      "type": "function"
    }
  ],
  "transactionHash": "0x0b394057b2acb7282ed82711a64b6105e96ea2ec89025d54a9b099459ed98b62",
  "args": [
    "0x5FbDB2315678afecb367f032d93F642f64180aa3"
  ],
  "numDeployments": 1,
  "solcInputHash": "2e9bc33b67b2a9dfd5c40c4ac9f64ecc",
  "bytecode": "0x6080604052600580553480156200001557600080fd5b506040516200280c3803806200280c83398101604081905262000038916200006c565b60028054336001600160a01b031991821617909155600380549091166001600160a01b03929092169190911790556200009c565b6000602082840312156200007e578081fd5b81516001600160a01b038116811462000095578182fd5b9392505050565b61276080620000ac6000396000f3fe6080604052600436106100fe5760003560e01c8063a9f92db911610095578063c7943c6711610064578063c7943c6714610294578063c896b500146102c1578063cac2699b146102f4578063dcd80be51461030b578063f963083f1461032b57600080fd5b8063a9f92db914610207578063ab8e1fdc14610227578063c382e39a14610247578063c4ab4beb1461027f57600080fd5b806368d06601116100d157806368d06601146101995780638da5cb5b146101b05780639989b914146101d0578063a47a97e4146101f257600080fd5b8063478567fe146101035780635b1603ef146101405780635b8cf3091461016057806361d5292014610184575b600080fd5b34801561010f57600080fd5b50600354610123906001600160a01b031681565b6040516001600160a01b0390911681526020015b60405180910390f35b34801561014c57600080fd5b5061012361015b3660046120b7565b610358565b34801561016c57600080fd5b5061017660055481565b604051908152602001610137565b6101976101923660046120b7565b610382565b005b3480156101a557600080fd5b506006546101769081565b3480156101bc57600080fd5b50600254610123906001600160a01b031681565b3480156101dc57600080fd5b506101e561069b565b6040516101379190612321565b3480156101fe57600080fd5b506101976109bb565b34801561021357600080fd5b50610197610222366004611fdc565b6109f2565b34801561023357600080fd5b506101976102423660046120b7565b610bbd565b34801561025357600080fd5b506102676102623660046120b7565b610d23565b6040516101379c9b9a9998979695949392919061258c565b34801561028b57600080fd5b506101e5610e1b565b3480156102a057600080fd5b506102b46102af366004611f34565b611130565b6040516101379190612382565b3480156102cd57600080fd5b506102e16102dc3660046120b7565b611441565b60405161013797969594939291906124fd565b34801561030057600080fd5b506007546101769081565b34801561031757600080fd5b50610176610326366004612046565b61159c565b34801561033757600080fd5b5061034b6103463660046120b7565b61187c565b60405161013791906124e3565b6004818154811061036857600080fd5b6000918252602090912001546001600160a01b0316905081565b6000818152602081905260409020600a01548190610100900460ff1680156103c257506000818152602081905260409020600a015462010000900460ff16155b80156103de575060008181526020819052604090206009015442105b6104465760405162461bcd60e51b815260206004820152602e60248201527f537461792069732066756c6c2c20696e616374697665206f7220646561646c6960448201526d1b99481dd85cc81c995858da195960921b60648201526084015b60405180910390fd5b600082815260208190526040902060088101543410156104a85760405162461bcd60e51b815260206004820152601760248201527f496e73756666696369656e742076616c75652073656e74000000000000000000604482015260640161043d565b600381015460009081905b8082101561051e57336001600160a01b03168460060183815481106104e857634e487b7160e01b600052603260045260246000fd5b6000918252602090912001546001600160a01b0316141561050c576001925061051e565b81610516816126aa565b9250506104b3565b821561056c5760405162461bcd60e51b815260206004820152601960248201527f596f752061726520616c7265616479207369676e656420757000000000000000604482015260640161043d565b6006840180546001810182556000918252602082200180546001600160a01b03191633179055600485018054916105a2836126aa565b919050555083600801548460050160008282546105bf9190612637565b9091555050604080518781523360208201527f460d21d4cbf85b35cb5c7f324f30ebd971ebbd70742a3aa7b2155624c6b36016910160405180910390a1836003015484600401541061069357600a8401805462ff0000191662010000179055600284015460058501546040516001600160a01b039092169181156108fc0291906000818181858888f1935050505015801561065e573d6000803e3d6000fd5b506040518681527fe1901de7acf5b4425e071d7895f1519f19ae4f4b6b51259d67718b2af22e0da29060200160405180910390a15b505050505050565b606060006106a860075490565b905060008060005b838110156106fa5760008181526001602081905260409091200154600160a01b900460ff16156106e857826106e4816126aa565b9350505b806106f2816126aa565b9150506106b0565b5060008267ffffffffffffffff81111561072457634e487b7160e01b600052604160045260246000fd5b60405190808252806020026020018201604052801561075d57816020015b61074a611d8b565b8152602001906001900390816107425790505b50905060005b838110156109b25760008181526001602081905260409091200154600160a01b900460ff16156109a05760008181526001602081815260409283902083516101008101855281548152928101546001600160a01b03811684840152600160a01b900460ff1615158385015260028101805485518185028101850190965280865293949193606086019383018282801561082557602002820191906000526020600020905b81546001600160a01b03168152600190910190602001808311610807575b50505050508152602001600382015481526020016004820180546108489061266f565b80601f01602080910402602001604051908101604052809291908181526020018280546108749061266f565b80156108c15780601f10610896576101008083540402835291602001916108c1565b820191906000526020600020905b8154815290600101906020018083116108a457829003601f168201915b505050505081526020016005820180546108da9061266f565b80601f01602080910402602001604051908101604052809291908181526020018280546109069061266f565b80156109535780601f1061092857610100808354040283529160200191610953565b820191906000526020600020905b81548152906001019060200180831161093657829003601f168201915b5050505050815260200160068201548152505082848151811061098657634e487b7160e01b600052603260045260246000fd5b6020026020010181905250828061099c906126aa565b9350505b806109aa816126aa565b915050610763565b50949350505050565b60006109c660065490565b905060005b818110156109ee576109dc81611a64565b806109e6816126aa565b9150506109cb565b5050565b60006109fd60075490565b9050600060055467ffffffffffffffff811115610a2a57634e487b7160e01b600052604160045260246000fd5b604051908082528060200260200182016040528015610a53578160200160208202803683370190505b5090503381600081518110610a7857634e487b7160e01b600052603260045260246000fd5b6001600160a01b03928316602091820292909201810191909152604080516101008101825285815260008184018181528284018281526060840188815260016080860181905260a086018e905260c086018d905260e086018c90528a855280885295909320845181559151948201805491511515600160a01b026001600160a81b0319909216959097169490941793909317909455925180519192610b2592600285019290910190611ddb565b506080820151600382015560a08201518051610b4b916004840191602090910190611e40565b5060c08201518051610b67916005840191602090910190611e40565b5060e091909101516006909101556040518281527f8c05d6001935e71f03f5fcda0c668250260f3bb6c88b7c8e4d90b901761bdcfc9060200160405180910390a1610bb6600780546001019055565b5050505050565b60008181526001602081905260409091200154600160a01b900460ff1615610c1f5760405162461bcd60e51b815260206004820152601560248201527464616f20697320616c72656164792061637469766560581b604482015260640161043d565b60008181526001602052604090206003810154600290910180543392908110610c5857634e487b7160e01b600052603260045260246000fd5b600091825260208083209190910180546001600160a01b0319166001600160a01b039490941693909317909255828152600190915260408120600301805491610ca0836126aa565b909155505060055460008281526001602052604090206003015410610ceb57600081815260016020819052604090912001805460ff60a01b1916600160a01b179055610ceb81611b0c565b610d206040518060600160405280603981526020016126f2603991396000838152600160205260409020600201548390611c90565b50565b60006020819052908152604090208054600182018054919291610d459061266f565b80601f0160208091040260200160405190810160405280929190818152602001828054610d719061266f565b8015610dbe5780601f10610d9357610100808354040283529160200191610dbe565b820191906000526020600020905b815481529060010190602001808311610da157829003601f168201915b50505060028401546003850154600486015460058701546007880154600889015460098a0154600a909a015498996001600160a01b03909616989497509295509093909260ff80821691610100810482169162010000909104168c565b60606000610e2860075490565b905060008060005b83811015610e795760008181526001602081905260409091200154600160a01b900460ff16610e675782610e63816126aa565b9350505b80610e71816126aa565b915050610e30565b5060008267ffffffffffffffff811115610ea357634e487b7160e01b600052604160045260246000fd5b604051908082528060200260200182016040528015610edc57816020015b610ec9611d8b565b815260200190600190039081610ec15790505b50905060005b838110156109b25760008181526001602081905260409091200154600160a01b900460ff1661111e5760008181526001602081815260409283902083516101008101855281548152928101546001600160a01b03811684840152600160a01b900460ff16151583850152600281018054855181850281018501909652808652939491936060860193830182828015610fa357602002820191906000526020600020905b81546001600160a01b03168152600190910190602001808311610f85575b5050505050815260200160038201548152602001600482018054610fc69061266f565b80601f0160208091040260200160405190810160405280929190818152602001828054610ff29061266f565b801561103f5780601f106110145761010080835404028352916020019161103f565b820191906000526020600020905b81548152906001019060200180831161102257829003601f168201915b505050505081526020016005820180546110589061266f565b80601f01602080910402602001604051908101604052809291908181526020018280546110849061266f565b80156110d15780601f106110a6576101008083540402835291602001916110d1565b820191906000526020600020905b8154815290600101906020018083116110b457829003601f168201915b5050505050815260200160068201548152505082848151811061110457634e487b7160e01b600052603260045260246000fd5b6020026020010181905250828061111a906126aa565b9350505b80611128816126aa565b915050610ee2565b805160609060008167ffffffffffffffff81111561115e57634e487b7160e01b600052604160045260246000fd5b60405190808252806020026020018201604052801561120957816020015b6111f6604051806101a00160405280600081526020016060815260200160006001600160a01b03168152602001600081526020016000815260200160008152602001606081526020016000815260200160008152602001600081526020016000151581526020016000151581526020016000151581525090565b81526020019060019003908161117c5790505b50845190915060005b818110156114375760008087838151811061123d57634e487b7160e01b600052603260045260246000fd5b60200260200101518152602001908152602001600020604051806101a0016040529081600082015481526020016001820180546112799061266f565b80601f01602080910402602001604051908101604052809291908181526020018280546112a59061266f565b80156112f25780601f106112c7576101008083540402835291602001916112f2565b820191906000526020600020905b8154815290600101906020018083116112d557829003601f168201915b505050505081526020016002820160009054906101000a90046001600160a01b03166001600160a01b03166001600160a01b03168152602001600382015481526020016004820154815260200160058201548152602001600682018054806020026020016040519081016040528092919081815260200182805480156113a157602002820191906000526020600020905b81546001600160a01b03168152600190910190602001808311611383575b5050509183525050600782015460208201526008820154604082015260098201546060820152600a9091015460ff8082161515608084015261010082048116151560a08401526201000090910416151560c090910152835184908390811061141957634e487b7160e01b600052603260045260246000fd5b6020026020010181905250808061142f906126aa565b915050611212565b5090949350505050565b600160208190526000918252604090912080549181015460038201546004830180546001600160a01b03841694600160a01b90940460ff169391906114859061266f565b80601f01602080910402602001604051908101604052809291908181526020018280546114b19061266f565b80156114fe5780601f106114d3576101008083540402835291602001916114fe565b820191906000526020600020905b8154815290600101906020018083116114e157829003601f168201915b5050505050908060050180546115139061266f565b80601f016020809104026020016040519081016040528092919081815260200182805461153f9061266f565b801561158c5780601f106115615761010080835404028352916020019161158c565b820191906000526020600020905b81548152906001019060200180831161156f57829003601f168201915b5050505050908060060154905087565b60008085116115ed5760405162461bcd60e51b815260206004820152601a60248201527f4174206c65617374206f6e6520726f6f6d207265717569726564000000000000604482015260640161043d565b60006115f860065490565b905060008361160857600061160b565b60015b60ff16905060008767ffffffffffffffff81111561163957634e487b7160e01b600052604160045260246000fd5b604051908082528060200260200182016040528015611662578160200160208202803683370190505b50905084156116ae57338160008151811061168d57634e487b7160e01b600052603260045260246000fd5b60200260200101906001600160a01b031690816001600160a01b0316815250505b604051806101a001604052808481526020018a8152602001336001600160a01b03168152602001898152602001838152602001600081526020018281526020018881526020018989611700919061264f565b61170b906001612637565b815260200161171a8842612637565b815286151560208083019190915260016040808401829052600060609094018490528784528383529092208351815583820151805191936117619390850192910190611e40565b5060408201516002820180546001600160a01b0319166001600160a01b03909216919091179055606082015160038201556080820151600482015560a0820151600582015560c082015180516117c1916006840191602090910190611ddb565b5060e082015160078201556101008083015160088301556101208301516009830155610140830151600a90920180546101608501516101809095015161ffff1990911693151561ff001916939093179315159091029290921762ff000019166201000091151591909102179055600680546001019055604080518481523360208201527fa322f9beee28d40f70deae6c1c8f9edde1e1275fea1ede699debb1edcaece00f910160405180910390a15090979650505050505050565b611884611d8b565b60008281526001602081815260409283902083516101008101855281548152928101546001600160a01b03811684840152600160a01b900460ff1615158385015260028101805485518185028101850190965280865293949193606086019383018282801561191c57602002820191906000526020600020905b81546001600160a01b031681526001909101906020018083116118fe575b505050505081526020016003820154815260200160048201805461193f9061266f565b80601f016020809104026020016040519081016040528092919081815260200182805461196b9061266f565b80156119b85780601f1061198d576101008083540402835291602001916119b8565b820191906000526020600020905b81548152906001019060200180831161199b57829003601f168201915b505050505081526020016005820180546119d19061266f565b80601f01602080910402602001604051908101604052809291908181526020018280546119fd9061266f565b8015611a4a5780601f10611a1f57610100808354040283529160200191611a4a565b820191906000526020600020905b815481529060010190602001808311611a2d57829003601f168201915b505050505081526020016006820154815250509050919050565b600081815260208190526040902060090154421115610d20576000818152602081905260408120600a8101805461ff001916905560060154905b81811015611b0757600083815260208190526040808220600281015460089091015491516001600160a01b039091169282156108fc02929190818181858888f19350505050158015611af4573d6000803e3d6000fd5b5080611aff816126aa565b915050611a9e565b505050565b600354600090611b24906001600160a01b0316611cd7565b6000838152600160205260409081902090516314a88d6160e01b81529192506001600160a01b038316916314a88d6191611b739130918791600282019160048082019260059092019101612296565b600060405180830381600087803b158015611b8d57600080fd5b505af1158015611ba1573d6000803e3d6000fd5b5050506000838152600160208181526040808420830180546001600160a01b0388166001600160a01b031991821681179092556004805495860181559095527f8a35acfbc15ff81a39ae7d344fd709f28e8600b4aa8c65c6b64bfe7fe36bd19b90930180549094169092179092558051808201909152600b81526a6465706c6f79656420257360a81b91810191909152611c3c915082611d29565b7fa2e1298a87c84f51cd3f3b69345a0155dd4bb087e223fb4f527f8faebb791567828260016000868152602001908152602001600020600401604051611c8493929190612559565b60405180910390a15050565b611b07838383604051602401611ca8939291906124be565b60408051601f198184030181529190526020810180516001600160e01b031663969cdd0360e01b179052611d6a565b6000808260601b9050604051733d602d80600a3d3981f3363d3d373d3d3d363d7360601b81528160148201526e5af43d82803e903d91602b57fd5bf360881b60288201526037816000f0949350505050565b6109ee8282604051602401611d3f929190612494565b60408051601f198184030181529190526020810180516001600160e01b031663319af33360e01b1790525b80516a636f6e736f6c652e6c6f67602083016000808483855afa5050505050565b6040518061010001604052806000815260200160006001600160a01b0316815260200160001515815260200160608152602001600081526020016060815260200160608152602001600081525090565b828054828255906000526020600020908101928215611e30579160200282015b82811115611e3057825182546001600160a01b0319166001600160a01b03909116178255602090920191600190910190611dfb565b50611e3c929150611eb4565b5090565b828054611e4c9061266f565b90600052602060002090601f016020900481019282611e6e5760008555611e30565b82601f10611e8757805160ff1916838001178555611e30565b82800160010185558215611e30579182015b82811115611e30578251825591602001919060010190611e99565b5b80821115611e3c5760008155600101611eb5565b600082601f830112611ed9578081fd5b813567ffffffffffffffff811115611ef357611ef36126db565b611f06601f8201601f1916602001612606565b818152846020838601011115611f1a578283fd5b816020850160208301379081016020019190915292915050565b60006020808385031215611f46578182fd5b823567ffffffffffffffff80821115611f5d578384fd5b818501915085601f830112611f70578384fd5b813581811115611f8257611f826126db565b8060051b9150611f93848301612606565b8181528481019084860184860187018a1015611fad578788fd5b8795505b83861015611fcf578035835260019590950194918601918601611fb1565b5098975050505050505050565b600080600060608486031215611ff0578182fd5b833567ffffffffffffffff80821115612007578384fd5b61201387838801611ec9565b94506020860135915080821115612028578384fd5b5061203586828701611ec9565b925050604084013590509250925092565b600080600080600060a0868803121561205d578081fd5b853567ffffffffffffffff811115612073578182fd5b61207f88828901611ec9565b955050602086013593506040860135925060608601359150608086013580151581146120a9578182fd5b809150509295509295909350565b6000602082840312156120c8578081fd5b5035919050565b6000815180845260208085019450808401835b838110156121075781516001600160a01b0316875295820195908201906001016120e2565b509495945050505050565b60008151808452815b818110156121375760208185018101518683018201520161211b565b818111156121485782602083870101525b50601f01601f19169290920160200192915050565b8054600090600181811c908083168061217757607f831692505b602080841082141561219757634e487b7160e01b86526022600452602486fd5b838852602088018280156121b257600181146121c3576121ee565b60ff198716825282820197506121ee565b60008981526020902060005b878110156121e8578154848201529086019084016121cf565b83019850505b5050505050505092915050565b60006101008251845260018060a01b0360208401511660208501526040830151612229604086018215159052565b506060830151816060860152612241828601826120cf565b9150506080830151608085015260a083015184820360a08601526122658282612112565b91505060c083015184820360c086015261227f8282612112565b91505060e083015160e08501528091505092915050565b600060a0820160018060a01b0380891684526020888186015260a0604086015282885480855260c0870191508986528286209450855b818110156122ea5785548516835260019586019592840192016122cc565b505085810360608701526122fe818961215d565b93505050508281036080840152612315818561215d565b98975050505050505050565b6000602080830181845280855180835260408601915060408160051b8701019250838701855b8281101561237557603f198886030184526123638583516121fb565b94509285019290850190600101612347565b5092979650505050505050565b60006020808301818452808551808352604092508286019150828160051b870101848801865b8381101561248657603f1989840301855281516101a08151855288820151818a8701526123d782870182612112565b915050878201516123f2898701826001600160a01b03169052565b50606082810151908601526080808301519086015260a0808301519086015260c0808301518683038288015261242883826120cf565b60e08581015190890152610100808601519089015261012080860151908901526101408086015115159089015261016080860151151590890152610180948501511515949097019390935250505093860193908601906001016123a8565b509098975050505050505050565b6040815260006124a76040830185612112565b905060018060a01b03831660208301529392505050565b6060815260006124d16060830186612112565b60208301949094525060400152919050565b6020815260006124f660208301846121fb565b9392505050565b87815260018060a01b0387166020820152851515604082015284606082015260e06080820152600061253260e0830186612112565b82810360a08401526125448186612112565b9150508260c083015298975050505050505050565b8381526001600160a01b03831660208201526060604082018190526000906125839083018461215d565b95945050505050565b60006101808e83528060208401526125a68184018f612112565b6001600160a01b039d909d16604084015250506060810199909952608089019790975260a088019590955260c087019390935260e08601919091526101008501521515610120840152151561014083015215156101609091015292915050565b604051601f8201601f1916810167ffffffffffffffff8111828210171561262f5761262f6126db565b604052919050565b6000821982111561264a5761264a6126c5565b500190565b60008261266a57634e487b7160e01b81526012600452602481fd5b500490565b600181811c9082168061268357607f821691505b602082108114156126a457634e487b7160e01b600052602260045260246000fd5b50919050565b60006000198214156126be576126be6126c5565b5060010190565b634e487b7160e01b600052601160045260246000fd5b634e487b7160e01b600052604160045260246000fdfe6a6f696e436f72655465616d2064616f49643a2025732068686f757365735b5f64616f49645d2e636f72655465616d2e6c656e677468202573a264697066735822122096a67b726525cc602f88e2ef4e4bc575266aa283bc5f437f7e1ab9857a59908e64736f6c63430008040033",
  "devdoc": {
    "kind": "dev",
    "methods": {},
    "version": 1
  },
  "userdoc": {
    "kind": "user",
    "methods": {},
    "version": 1
  },
  "storageLayout": {
    "storage": [
      {
        "astId": 1185,
        "contract": "contracts/NomadicVault.sol:NomadicVault",
        "label": "stays",
        "offset": 0,
        "slot": "0",
        "type": "t_mapping(t_uint256,t_struct(ShortStay)1162_storage)"
      },
      {
        "astId": 1190,
        "contract": "contracts/NomadicVault.sol:NomadicVault",
        "label": "hhouses",
        "offset": 0,
        "slot": "1",
        "type": "t_mapping(t_uint256,t_struct(HackerHouse)1180_storage)"
      },
      {
        "astId": 1192,
        "contract": "contracts/NomadicVault.sol:NomadicVault",
        "label": "owner",
        "offset": 0,
        "slot": "2",
        "type": "t_address"
      },
      {
        "astId": 1194,
        "contract": "contracts/NomadicVault.sol:NomadicVault",
        "label": "hhTemplate",
        "offset": 0,
        "slot": "3",
        "type": "t_address"
      },
      {
        "astId": 1197,
        "contract": "contracts/NomadicVault.sol:NomadicVault",
        "label": "hhAddresses",
        "offset": 0,
        "slot": "4",
        "type": "t_array(t_address)dyn_storage"
      },
      {
        "astId": 1200,
        "contract": "contracts/NomadicVault.sol:NomadicVault",
        "label": "numOfCoreTeam",
        "offset": 0,
        "slot": "5",
        "type": "t_uint256"
      },
      {
        "astId": 1203,
        "contract": "contracts/NomadicVault.sol:NomadicVault",
        "label": "stayId",
        "offset": 0,
        "slot": "6",
        "type": "t_struct(Counter)5_storage"
      },
      {
        "astId": 1206,
        "contract": "contracts/NomadicVault.sol:NomadicVault",
        "label": "daoId",
        "offset": 0,
        "slot": "7",
        "type": "t_struct(Counter)5_storage"
      }
    ],
    "types": {
      "t_address": {
        "encoding": "inplace",
        "label": "address",
        "numberOfBytes": "20"
      },
      "t_array(t_address)dyn_storage": {
        "base": "t_address",
        "encoding": "dynamic_array",
        "label": "address[]",
        "numberOfBytes": "32"
      },
      "t_bool": {
        "encoding": "inplace",
        "label": "bool",
        "numberOfBytes": "1"
      },
      "t_mapping(t_uint256,t_struct(HackerHouse)1180_storage)": {
        "encoding": "mapping",
        "key": "t_uint256",
        "label": "mapping(uint256 => struct NomadicVault.HackerHouse)",
        "numberOfBytes": "32",
        "value": "t_struct(HackerHouse)1180_storage"
      },
      "t_mapping(t_uint256,t_struct(ShortStay)1162_storage)": {
        "encoding": "mapping",
        "key": "t_uint256",
        "label": "mapping(uint256 => struct NomadicVault.ShortStay)",
        "numberOfBytes": "32",
        "value": "t_struct(ShortStay)1162_storage"
      },
      "t_string_storage": {
        "encoding": "bytes",
        "label": "string",
        "numberOfBytes": "32"
      },
      "t_struct(Counter)5_storage": {
        "encoding": "inplace",
        "label": "struct Counters.Counter",
        "members": [
          {
            "astId": 4,
            "contract": "contracts/NomadicVault.sol:NomadicVault",
            "label": "_value",
            "offset": 0,
            "slot": "0",
            "type": "t_uint256"
          }
        ],
        "numberOfBytes": "32"
      },
      "t_struct(HackerHouse)1180_storage": {
        "encoding": "inplace",
        "label": "struct NomadicVault.HackerHouse",
        "members": [
          {
            "astId": 1164,
            "contract": "contracts/NomadicVault.sol:NomadicVault",
            "label": "id",
            "offset": 0,
            "slot": "0",
            "type": "t_uint256"
          },
          {
            "astId": 1166,
            "contract": "contracts/NomadicVault.sol:NomadicVault",
            "label": "addr",
            "offset": 0,
            "slot": "1",
            "type": "t_address"
          },
          {
            "astId": 1168,
            "contract": "contracts/NomadicVault.sol:NomadicVault",
            "label": "isActive",
            "offset": 20,
            "slot": "1",
            "type": "t_bool"
          },
          {
            "astId": 1171,
            "contract": "contracts/NomadicVault.sol:NomadicVault",
            "label": "coreTeam",
            "offset": 0,
            "slot": "2",
            "type": "t_array(t_address)dyn_storage"
          },
          {
            "astId": 1173,
            "contract": "contracts/NomadicVault.sol:NomadicVault",
            "label": "coreTeamCount",
            "offset": 0,
            "slot": "3",
            "type": "t_uint256"
          },
          {
            "astId": 1175,
            "contract": "contracts/NomadicVault.sol:NomadicVault",
            "label": "name",
            "offset": 0,
            "slot": "4",
            "type": "t_string_storage"
          },
          {
            "astId": 1177,
            "contract": "contracts/NomadicVault.sol:NomadicVault",
            "label": "descriptionURI",
            "offset": 0,
            "slot": "5",
            "type": "t_string_storage"
          },
          {
            "astId": 1179,
            "contract": "contracts/NomadicVault.sol:NomadicVault",
            "label": "membershipCost",
            "offset": 0,
            "slot": "6",
            "type": "t_uint256"
          }
        ],
        "numberOfBytes": "224"
      },
      "t_struct(ShortStay)1162_storage": {
        "encoding": "inplace",
        "label": "struct NomadicVault.ShortStay",
        "members": [
          {
            "astId": 1136,
            "contract": "contracts/NomadicVault.sol:NomadicVault",
            "label": "id",
            "offset": 0,
            "slot": "0",
            "type": "t_uint256"
          },
          {
            "astId": 1138,
            "contract": "contracts/NomadicVault.sol:NomadicVault",
            "label": "descriptionURI",
            "offset": 0,
            "slot": "1",
            "type": "t_string_storage"
          },
          {
            "astId": 1140,
            "contract": "contracts/NomadicVault.sol:NomadicVault",
            "label": "trustee",
            "offset": 0,
            "slot": "2",
            "type": "t_address"
          },
          {
            "astId": 1142,
            "contract": "contracts/NomadicVault.sol:NomadicVault",
            "label": "nPersons",
            "offset": 0,
            "slot": "3",
            "type": "t_uint256"
          },
          {
            "astId": 1144,
            "contract": "contracts/NomadicVault.sol:NomadicVault",
            "label": "slotsReserved",
            "offset": 0,
            "slot": "4",
            "type": "t_uint256"
          },
          {
            "astId": 1146,
            "contract": "contracts/NomadicVault.sol:NomadicVault",
            "label": "amountFunded",
            "offset": 0,
            "slot": "5",
            "type": "t_uint256"
          },
          {
            "astId": 1149,
            "contract": "contracts/NomadicVault.sol:NomadicVault",
            "label": "members",
            "offset": 0,
            "slot": "6",
            "type": "t_array(t_address)dyn_storage"
          },
          {
            "astId": 1151,
            "contract": "contracts/NomadicVault.sol:NomadicVault",
            "label": "totalPrice",
            "offset": 0,
            "slot": "7",
            "type": "t_uint256"
          },
          {
            "astId": 1153,
            "contract": "contracts/NomadicVault.sol:NomadicVault",
            "label": "pricePerPerson",
            "offset": 0,
            "slot": "8",
            "type": "t_uint256"
          },
          {
            "astId": 1155,
            "contract": "contracts/NomadicVault.sol:NomadicVault",
            "label": "deadline",
            "offset": 0,
            "slot": "9",
            "type": "t_uint256"
          },
          {
            "astId": 1157,
            "contract": "contracts/NomadicVault.sol:NomadicVault",
            "label": "isCreatorSlot",
            "offset": 0,
            "slot": "10",
            "type": "t_bool"
          },
          {
            "astId": 1159,
            "contract": "contracts/NomadicVault.sol:NomadicVault",
            "label": "isActive",
            "offset": 1,
            "slot": "10",
            "type": "t_bool"
          },
          {
            "astId": 1161,
            "contract": "contracts/NomadicVault.sol:NomadicVault",
            "label": "isFull",
            "offset": 2,
            "slot": "10",
            "type": "t_bool"
          }
        ],
        "numberOfBytes": "352"
      },
      "t_uint256": {
        "encoding": "inplace",
        "label": "uint256",
        "numberOfBytes": "32"
      }
    }
  }
}