{
  "address": "0x1fDb67E186C6D955f26C5d706a0F3E0aa6d49333",
  "abi": [
    {
      "inputs": [
        {
          "internalType": "contract IWorldID",
          "name": "_worldId",
          "type": "address"
        }
      ],
      "stateMutability": "nonpayable",
      "type": "constructor"
    },
    {
      "inputs": [],
      "name": "InvalidNullifier",
      "type": "error"
    },
    {
      "anonymous": false,
      "inputs": [
        {
          "indexed": false,
          "internalType": "uint256",
          "name": "_stayId",
          "type": "uint256"
        },
        {
          "indexed": false,
          "internalType": "address",
          "name": "_newMember",
          "type": "address"
        }
      ],
      "name": "JoinStay",
      "type": "event"
    },
    {
      "anonymous": false,
      "inputs": [
        {
          "indexed": false,
          "internalType": "uint256",
          "name": "_stayId",
          "type": "uint256"
        },
        {
          "indexed": false,
          "internalType": "address",
          "name": "_trustee",
          "type": "address"
        }
      ],
      "name": "ProposeStay",
      "type": "event"
    },
    {
      "anonymous": false,
      "inputs": [
        {
          "indexed": false,
          "internalType": "uint256",
          "name": "_stayId",
          "type": "uint256"
        }
      ],
      "name": "StayIsFull",
      "type": "event"
    },
    {
      "inputs": [],
      "name": "checkDeadlines",
      "outputs": [],
      "stateMutability": "nonpayable",
      "type": "function"
    },
    {
      "inputs": [
        {
          "internalType": "uint256[]",
          "name": "_stayIndexes",
          "type": "uint256[]"
        }
      ],
      "name": "getShortStays",
      "outputs": [
        {
          "components": [
            {
              "internalType": "uint256",
              "name": "id",
              "type": "uint256"
            },
            {
              "internalType": "string",
              "name": "descriptionURI",
              "type": "string"
            },
            {
              "internalType": "address",
              "name": "trustee",
              "type": "address"
            },
            {
              "internalType": "uint256",
              "name": "nPersons",
              "type": "uint256"
            },
            {
              "internalType": "uint256",
              "name": "slotsReserved",
              "type": "uint256"
            },
            {
              "internalType": "uint256",
              "name": "amountFunded",
              "type": "uint256"
            },
            {
              "internalType": "address[]",
              "name": "members",
              "type": "address[]"
            },
            {
              "internalType": "uint256",
              "name": "totalPrice",
              "type": "uint256"
            },
            {
              "internalType": "uint256",
              "name": "pricePerPerson",
              "type": "uint256"
            },
            {
              "internalType": "uint256",
              "name": "deadline",
              "type": "uint256"
            },
            {
              "internalType": "bool",
              "name": "isCreatorSlot",
              "type": "bool"
            },
            {
              "internalType": "bool",
              "name": "isActive",
              "type": "bool"
            },
            {
              "internalType": "bool",
              "name": "isFull",
              "type": "bool"
            }
          ],
          "internalType": "struct NomadicWorldCoin.ShortStay[]",
          "name": "",
          "type": "tuple[]"
        }
      ],
      "stateMutability": "nonpayable",
      "type": "function"
    },
    {
      "inputs": [
        {
          "internalType": "uint256",
          "name": "_stayId",
          "type": "uint256"
        }
      ],
      "name": "joinShortStay",
      "outputs": [],
      "stateMutability": "payable",
      "type": "function"
    },
    {
      "inputs": [],
      "name": "owner",
      "outputs": [
        {
          "internalType": "address",
          "name": "",
          "type": "address"
        }
      ],
      "stateMutability": "view",
      "type": "function"
    },
    {
      "inputs": [
        {
          "internalType": "string",
          "name": "_descriptionURI",
          "type": "string"
        },
        {
          "internalType": "uint256",
          "name": "_nPersons",
          "type": "uint256"
        },
        {
          "internalType": "uint256",
          "name": "_totalPrice",
          "type": "uint256"
        },
        {
          "internalType": "uint256",
          "name": "_timeAvailable",
          "type": "uint256"
        },
        {
          "internalType": "bool",
          "name": "_isCreatorSlot",
          "type": "bool"
        },
        {
          "internalType": "uint256",
          "name": "root",
          "type": "uint256"
        },
        {
          "internalType": "uint256",
          "name": "nullifierHash",
          "type": "uint256"
        },
        {
          "internalType": "uint256[8]",
          "name": "proof",
          "type": "uint256[8]"
        }
      ],
      "name": "proposeShortStay",
      "outputs": [
        {
          "internalType": "uint256",
          "name": "",
          "type": "uint256"
        }
      ],
      "stateMutability": "nonpayable",
      "type": "function"
    },
    {
      "inputs": [],
      "name": "stayId",
      "outputs": [
        {
          "internalType": "uint256",
          "name": "_value",
          "type": "uint256"
        }
      ],
      "stateMutability": "view",
      "type": "function"
    },
    {
      "inputs": [
        {
          "internalType": "uint256",
          "name": "",
          "type": "uint256"
        }
      ],
      "name": "stays",
      "outputs": [
        {
          "internalType": "uint256",
          "name": "id",
          "type": "uint256"
        },
        {
          "internalType": "string",
          "name": "descriptionURI",
          "type": "string"
        },
        {
          "internalType": "address",
          "name": "trustee",
          "type": "address"
        },
        {
          "internalType": "uint256",
          "name": "nPersons",
          "type": "uint256"
        },
        {
          "internalType": "uint256",
          "name": "slotsReserved",
          "type": "uint256"
        },
        {
          "internalType": "uint256",
          "name": "amountFunded",
          "type": "uint256"
        },
        {
          "internalType": "uint256",
          "name": "totalPrice",
          "type": "uint256"
        },
        {
          "internalType": "uint256",
          "name": "pricePerPerson",
          "type": "uint256"
        },
        {
          "internalType": "uint256",
          "name": "deadline",
          "type": "uint256"
        },
        {
          "internalType": "bool",
          "name": "isCreatorSlot",
          "type": "bool"
        },
        {
          "internalType": "bool",
          "name": "isActive",
          "type": "bool"
        },
        {
          "internalType": "bool",
          "name": "isFull",
          "type": "bool"
        }
      ],
      "stateMutability": "view",
      "type": "function"
    }
  ],
  "transactionHash": "0x7003a17ecc9115e756fb5ce3ace4e3494dc02c2f0b959bbf037a48eda0cd4d77",
  "args": [
    "0xABB70f7F39035586Da57B3c8136035f87AC0d2Aa"
  ],
  "numDeployments": 1,
  "solcInputHash": "021169431daa998820edb4d641ad3e1c",
  "bytecode": "0x60c0604052600160a05234801561001557600080fd5b506040516113d83803806113d88339810160408190526100349161005d565b60601b6001600160601b03191660805260028054336001600160a01b031990911617905561008b565b60006020828403121561006e578081fd5b81516001600160a01b0381168114610084578182fd5b9392505050565b60805160601c60a0516113256100b360003960006108c60152600061089601526113256000f3fe6080604052600436106100705760003560e01c8063a47a97e41161004e578063a47a97e4146100ec578063c382e39a14610101578063c7943c6714610139578063cfc454c81461016657600080fd5b806361d529201461007557806368d066011461008a5780638da5cb5b146100b4575b600080fd5b610088610083366004610f3a565b610186565b005b34801561009657600080fd5b506003546100a19081565b6040519081526020015b60405180910390f35b3480156100c057600080fd5b506002546100d4906001600160a01b031681565b6040516001600160a01b0390911681526020016100ab565b3480156100f857600080fd5b5061008861048f565b34801561010d57600080fd5b5061012161011c366004610f3a565b6104c6565b6040516100ab9c9b9a9998979695949392919061111e565b34801561014557600080fd5b50610159610154366004610db2565b6105bd565b6040516100ab919061100c565b34801561017257600080fd5b506100a1610181366004610e5a565b6107f6565b6000818152600160205260409020600a01548190610100900460ff1680156101c657506000818152600160205260409020600a015462010000900460ff16155b80156101e2575060008181526001602052604090206009015442105b6102595760405162461bcd60e51b815260206004820152603b60248201527f4861636b6572486f7573653a20537461792069732066756c6c2c20696e61637460448201527f697665206f7220646561646c696e65207761732072656163686564000000000060648201526084015b60405180910390fd5b600082815260016020526040902060088101543410156102c75760405162461bcd60e51b8152602060048201526024808201527f4861636b6572486f7573653a20496e73756666696369656e742076616c7565206044820152631cd95b9d60e21b6064820152608401610250565b600381015460009081905b8082101561033d57336001600160a01b031684600601838154811061030757634e487b7160e01b600052603260045260246000fd5b6000918252602090912001546001600160a01b0316141561032b576001925061033d565b81610335816112a8565b9250506102d2565b821561039a5760405162461bcd60e51b815260206004820152602660248201527f4861636b6572486f7573653a20596f752061726520616c72656164792073696760448201526506e65642075760d41b6064820152608401610250565b6006840180546001810182556000918252602082200180546001600160a01b03191633179055600485018054916103d0836112a8565b919050555083600801548460050160008282546103ed9190611205565b9091555050604080518781523360208201527f460d21d4cbf85b35cb5c7f324f30ebd971ebbd70742a3aa7b2155624c6b36016910160405180910390a1836003015484600401541061048757600a8401805462ff00001916620100001790556040517fe1901de7acf5b4425e071d7895f1519f19ae4f4b6b51259d67718b2af22e0da29061047e9088815260200190565b60405180910390a15b505050505050565b600061049a60035490565b905060005b818110156104c2576104b081610c2b565b806104ba816112a8565b91505061049f565b5050565b6001602081905260009182526040909120805491810180546104e79061126d565b80601f01602080910402602001604051908101604052809291908181526020018280546105139061126d565b80156105605780601f1061053557610100808354040283529160200191610560565b820191906000526020600020905b81548152906001019060200180831161054357829003601f168201915b50505060028401546003850154600486015460058701546007880154600889015460098a0154600a909a015498996001600160a01b03909616989497509295509093909260ff80821691610100810482169162010000909104168c565b8051606090819060005b818110156107ed57600160008683815181106105f357634e487b7160e01b600052603260045260246000fd5b60200260200101518152602001908152602001600020604051806101a00160405290816000820154815260200160018201805461062f9061126d565b80601f016020809104026020016040519081016040528092919081815260200182805461065b9061126d565b80156106a85780601f1061067d576101008083540402835291602001916106a8565b820191906000526020600020905b81548152906001019060200180831161068b57829003601f168201915b505050505081526020016002820160009054906101000a90046001600160a01b03166001600160a01b03166001600160a01b031681526020016003820154815260200160048201548152602001600582015481526020016006820180548060200260200160405190810160405280929190818152602001828054801561075757602002820191906000526020600020905b81546001600160a01b03168152600190910190602001808311610739575b5050509183525050600782015460208201526008820154604082015260098201546060820152600a9091015460ff8082161515608084015261010082048116151560a08401526201000090910416151560c09091015283518490839081106107cf57634e487b7160e01b600052603260045260246000fd5b602002602001018190525080806107e5906112a8565b9150506105c7565b50909392505050565b60008088116108575760405162461bcd60e51b815260206004820152602760248201527f4861636b6572486f7573653a204174206c65617374206f6e6520726f6f6d2072604482015266195c5d5a5c995960ca1b6064820152608401610250565b60008381526020819052604090205460ff161561088757604051632ec8265960e11b815260040160405180910390fd5b600061089260035490565b90507f00000000000000000000000000000000000000000000000000000000000000006001600160a01b0316633bc778e3867f00000000000000000000000000000000000000000000000000000000000000006109138e8e8e8e6040516020016108ff9493929190610fdd565b604051602081830303815290604052610c62565b6040516bffffffffffffffffffffffff193060601b166020820152899061093c906034016108ff565b896040518763ffffffff1660e01b815260040161095e96959493929190611198565b60006040518083038186803b15801561097657600080fd5b505afa15801561098a573d6000803e3d6000fd5b5050506000858152602081905260408120805460ff191660011790559050866109b45760006109b7565b60015b60ff16905060008a67ffffffffffffffff8111156109e557634e487b7160e01b600052604160045260246000fd5b604051908082528060200260200182016040528015610a0e578160200160208202803683370190505b5090508715610a5a573381600081518110610a3957634e487b7160e01b600052603260045260246000fd5b60200260200101906001600160a01b031690816001600160a01b0316815250505b604051806101a001604052808481526020018d8152602001336001600160a01b031681526020018c8152602001838152602001600081526020018281526020018b81526020018c8c610aac919061121d565b610ab7906001611205565b8152602001610ac68b42611205565b81528915156020808301919091526001604080840182905260006060909401849052878452818352909220835181558382015180519193610b0d9390850192910190610c97565b5060408201516002820180546001600160a01b0319166001600160a01b03909216919091179055606082015160038201556080820151600482015560a0820151600582015560c08201518051610b6d916006840191602090910190610d1b565b5060e082015160078201556101008083015160088301556101208301516009830155610140830151600a90920180546101608501516101809095015161ffff1990911693151561ff001916939093179315159091029290921762ff000019166201000091151591909102179055600380546001019055604080518481523360208201527fa322f9beee28d40f70deae6c1c8f9edde1e1275fea1ede699debb1edcaece00f910160405180910390a150909a9950505050505050505050565b600081815260016020526040902060090154421115610c5f576000818152600160205260409020600a01805461ff00191690555b50565b6000600882604051602001610c779190610fc1565b60408051601f198184030181529190528051602090910120901c92915050565b828054610ca39061126d565b90600052602060002090601f016020900481019282610cc55760008555610d0b565b82601f10610cde57805160ff1916838001178555610d0b565b82800160010185558215610d0b579182015b82811115610d0b578251825591602001919060010190610cf0565b50610d17929150610d70565b5090565b828054828255906000526020600020908101928215610d0b579160200282015b82811115610d0b57825182546001600160a01b0319166001600160a01b03909116178255602090920191600190910190610d3b565b5b80821115610d175760008155600101610d71565b806101008101831015610d9757600080fd5b92915050565b80358015158114610dad57600080fd5b919050565b60006020808385031215610dc4578182fd5b823567ffffffffffffffff80821115610ddb578384fd5b818501915085601f830112610dee578384fd5b813581811115610e0057610e006112d9565b8060051b9150610e118483016111d4565b8181528481019084860184860187018a1015610e2b578788fd5b8795505b83861015610e4d578035835260019590950194918601918601610e2f565b5098975050505050505050565b6000806000806000806000806101e0898b031215610e76578384fd5b883567ffffffffffffffff80821115610e8d578586fd5b818b0191508b601f830112610ea0578586fd5b8135602082821115610eb457610eb46112d9565b610ec6601f8301601f191682016111d4565b92508183528d81838601011115610edb578788fd5b818185018285013790820181018790529099508a01359750506040890135955060608901359450610f0e60808a01610d9d565b935060a0890135925060c08901359150610f2b8a60e08b01610d85565b90509295985092959890939650565b600060208284031215610f4b578081fd5b5035919050565b6000815180845260208085019450808401835b83811015610f8a5781516001600160a01b031687529582019590820190600101610f65565b509495945050505050565b60008151808452610fad81602086016020860161123d565b601f01601f19169290920160200192915050565b60008251610fd381846020870161123d565b9190910192915050565b60008551610fef818460208a0161123d565b919091019384525060208301919091526040820152606001919050565b60006020808301818452808551808352604092508286019150828160051b870101848801865b8381101561111057603f1989840301855281516101a08151855288820151818a87015261106182870182610f95565b9150508782015161107c898701826001600160a01b03169052565b50606082810151908601526080808301519086015260a0808301519086015260c080830151868303828801526110b28382610f52565b60e0858101519089015261010080860151908901526101208086015190890152610140808601511515908901526101608086015115159089015261018094850151151594909701939093525050509386019390860190600101611032565b509098975050505050505050565b60006101808e83528060208401526111388184018f610f95565b6001600160a01b039d909d16604084015250506060810199909952608089019790975260a088019590955260c087019390935260e08601919091526101008501521515610120840152151561014083015215156101609091015292915050565b60006101a0820190508782528660208301528560408301528460608301528360808301526101008360a084013760008152979650505050505050565b604051601f8201601f1916810167ffffffffffffffff811182821017156111fd576111fd6112d9565b604052919050565b60008219821115611218576112186112c3565b500190565b60008261123857634e487b7160e01b81526012600452602481fd5b500490565b60005b83811015611258578181015183820152602001611240565b83811115611267576000848401525b50505050565b600181811c9082168061128157607f821691505b602082108114156112a257634e487b7160e01b600052602260045260246000fd5b50919050565b60006000198214156112bc576112bc6112c3565b5060010190565b634e487b7160e01b600052601160045260246000fd5b634e487b7160e01b600052604160045260246000fdfea2646970667358221220f94a8a7dcd0ccb1f5b4b86b8622278a4e0c2974bb8665145af4a421695ed62eb64736f6c63430008040033",
  "devdoc": {
    "kind": "dev",
    "methods": {},
    "stateVariables": {
      "groupId": {
        "details": "The WorldID group ID (1)"
      },
      "nullifierHashes": {
        "details": "Whether a nullifier hash has been used already. Used to prevent double-signaling"
      },
      "worldId": {
        "details": "The WorldID instance that will be used for verifying proofs"
      }
    },
    "version": 1
  },
  "userdoc": {
    "errors": {
      "InvalidNullifier()": [
        {
          "notice": "Thrown when attempting to reuse a nullifier"
        }
      ]
    },
    "kind": "user",
    "methods": {},
    "version": 1
  },
  "storageLayout": {
    "storage": [
      {
        "astId": 1311,
        "contract": "contracts/NomadicWorldCoin.sol:NomadicWorldCoin",
        "label": "nullifierHashes",
        "offset": 0,
        "slot": "0",
        "type": "t_mapping(t_uint256,t_bool)"
      },
      {
        "astId": 1351,
        "contract": "contracts/NomadicWorldCoin.sol:NomadicWorldCoin",
        "label": "stays",
        "offset": 0,
        "slot": "1",
        "type": "t_mapping(t_uint256,t_struct(ShortStay)1346_storage)"
      },
      {
        "astId": 1353,
        "contract": "contracts/NomadicWorldCoin.sol:NomadicWorldCoin",
        "label": "owner",
        "offset": 0,
        "slot": "2",
        "type": "t_address"
      },
      {
        "astId": 1356,
        "contract": "contracts/NomadicWorldCoin.sol:NomadicWorldCoin",
        "label": "stayId",
        "offset": 0,
        "slot": "3",
        "type": "t_struct(Counter)5_storage"
      }
    ],
    "types": {
      "t_address": {
        "encoding": "inplace",
        "label": "address",
        "numberOfBytes": "20"
      },
      "t_array(t_address)dyn_storage": {
        "base": "t_address",
        "encoding": "dynamic_array",
        "label": "address[]",
        "numberOfBytes": "32"
      },
      "t_bool": {
        "encoding": "inplace",
        "label": "bool",
        "numberOfBytes": "1"
      },
      "t_mapping(t_uint256,t_bool)": {
        "encoding": "mapping",
        "key": "t_uint256",
        "label": "mapping(uint256 => bool)",
        "numberOfBytes": "32",
        "value": "t_bool"
      },
      "t_mapping(t_uint256,t_struct(ShortStay)1346_storage)": {
        "encoding": "mapping",
        "key": "t_uint256",
        "label": "mapping(uint256 => struct NomadicWorldCoin.ShortStay)",
        "numberOfBytes": "32",
        "value": "t_struct(ShortStay)1346_storage"
      },
      "t_string_storage": {
        "encoding": "bytes",
        "label": "string",
        "numberOfBytes": "32"
      },
      "t_struct(Counter)5_storage": {
        "encoding": "inplace",
        "label": "struct Counters.Counter",
        "members": [
          {
            "astId": 4,
            "contract": "contracts/NomadicWorldCoin.sol:NomadicWorldCoin",
            "label": "_value",
            "offset": 0,
            "slot": "0",
            "type": "t_uint256"
          }
        ],
        "numberOfBytes": "32"
      },
      "t_struct(ShortStay)1346_storage": {
        "encoding": "inplace",
        "label": "struct NomadicWorldCoin.ShortStay",
        "members": [
          {
            "astId": 1320,
            "contract": "contracts/NomadicWorldCoin.sol:NomadicWorldCoin",
            "label": "id",
            "offset": 0,
            "slot": "0",
            "type": "t_uint256"
          },
          {
            "astId": 1322,
            "contract": "contracts/NomadicWorldCoin.sol:NomadicWorldCoin",
            "label": "descriptionURI",
            "offset": 0,
            "slot": "1",
            "type": "t_string_storage"
          },
          {
            "astId": 1324,
            "contract": "contracts/NomadicWorldCoin.sol:NomadicWorldCoin",
            "label": "trustee",
            "offset": 0,
            "slot": "2",
            "type": "t_address"
          },
          {
            "astId": 1326,
            "contract": "contracts/NomadicWorldCoin.sol:NomadicWorldCoin",
            "label": "nPersons",
            "offset": 0,
            "slot": "3",
            "type": "t_uint256"
          },
          {
            "astId": 1328,
            "contract": "contracts/NomadicWorldCoin.sol:NomadicWorldCoin",
            "label": "slotsReserved",
            "offset": 0,
            "slot": "4",
            "type": "t_uint256"
          },
          {
            "astId": 1330,
            "contract": "contracts/NomadicWorldCoin.sol:NomadicWorldCoin",
            "label": "amountFunded",
            "offset": 0,
            "slot": "5",
            "type": "t_uint256"
          },
          {
            "astId": 1333,
            "contract": "contracts/NomadicWorldCoin.sol:NomadicWorldCoin",
            "label": "members",
            "offset": 0,
            "slot": "6",
            "type": "t_array(t_address)dyn_storage"
          },
          {
            "astId": 1335,
            "contract": "contracts/NomadicWorldCoin.sol:NomadicWorldCoin",
            "label": "totalPrice",
            "offset": 0,
            "slot": "7",
            "type": "t_uint256"
          },
          {
            "astId": 1337,
            "contract": "contracts/NomadicWorldCoin.sol:NomadicWorldCoin",
            "label": "pricePerPerson",
            "offset": 0,
            "slot": "8",
            "type": "t_uint256"
          },
          {
            "astId": 1339,
            "contract": "contracts/NomadicWorldCoin.sol:NomadicWorldCoin",
            "label": "deadline",
            "offset": 0,
            "slot": "9",
            "type": "t_uint256"
          },
          {
            "astId": 1341,
            "contract": "contracts/NomadicWorldCoin.sol:NomadicWorldCoin",
            "label": "isCreatorSlot",
            "offset": 0,
            "slot": "10",
            "type": "t_bool"
          },
          {
            "astId": 1343,
            "contract": "contracts/NomadicWorldCoin.sol:NomadicWorldCoin",
            "label": "isActive",
            "offset": 1,
            "slot": "10",
            "type": "t_bool"
          },
          {
            "astId": 1345,
            "contract": "contracts/NomadicWorldCoin.sol:NomadicWorldCoin",
            "label": "isFull",
            "offset": 2,
            "slot": "10",
            "type": "t_bool"
          }
        ],
        "numberOfBytes": "352"
      },
      "t_uint256": {
        "encoding": "inplace",
        "label": "uint256",
        "numberOfBytes": "32"
      }
    }
  }
}