{
  "address": "0x39cF4608A32066646eafF292f4f2B68E37982b12",
  "abi": [
    {
      "inputs": [],
      "stateMutability": "nonpayable",
      "type": "constructor"
    },
    {
      "anonymous": false,
      "inputs": [
        {
          "indexed": false,
          "internalType": "uint256",
          "name": "_stayId",
          "type": "uint256"
        },
        {
          "indexed": false,
          "internalType": "address",
          "name": "_newMember",
          "type": "address"
        }
      ],
      "name": "JoinStay",
      "type": "event"
    },
    {
      "anonymous": false,
      "inputs": [
        {
          "indexed": false,
          "internalType": "uint256",
          "name": "_stayId",
          "type": "uint256"
        },
        {
          "indexed": false,
          "internalType": "address",
          "name": "_trustee",
          "type": "address"
        }
      ],
      "name": "ProposeStay",
      "type": "event"
    },
    {
      "anonymous": false,
      "inputs": [
        {
          "indexed": false,
          "internalType": "uint256",
          "name": "_stayId",
          "type": "uint256"
        }
      ],
      "name": "StayIsFull",
      "type": "event"
    },
    {
      "inputs": [],
      "name": "checkDeadlines",
      "outputs": [],
      "stateMutability": "nonpayable",
      "type": "function"
    },
    {
      "inputs": [
        {
          "internalType": "uint256[]",
          "name": "_stayIndexes",
          "type": "uint256[]"
        }
      ],
      "name": "getShortStays",
      "outputs": [
        {
          "components": [
            {
              "internalType": "uint256",
              "name": "id",
              "type": "uint256"
            },
            {
              "internalType": "string",
              "name": "descriptionURI",
              "type": "string"
            },
            {
              "internalType": "address",
              "name": "trustee",
              "type": "address"
            },
            {
              "internalType": "uint256",
              "name": "nPersons",
              "type": "uint256"
            },
            {
              "internalType": "uint256",
              "name": "slotsReserved",
              "type": "uint256"
            },
            {
              "internalType": "uint256",
              "name": "amountFunded",
              "type": "uint256"
            },
            {
              "internalType": "address[]",
              "name": "members",
              "type": "address[]"
            },
            {
              "internalType": "uint256",
              "name": "totalPrice",
              "type": "uint256"
            },
            {
              "internalType": "uint256",
              "name": "pricePerPerson",
              "type": "uint256"
            },
            {
              "internalType": "uint256",
              "name": "deadline",
              "type": "uint256"
            },
            {
              "internalType": "bool",
              "name": "isCreatorSlot",
              "type": "bool"
            },
            {
              "internalType": "bool",
              "name": "isActive",
              "type": "bool"
            },
            {
              "internalType": "bool",
              "name": "isFull",
              "type": "bool"
            }
          ],
          "internalType": "struct NomadicVault.ShortStay[]",
          "name": "",
          "type": "tuple[]"
        }
      ],
      "stateMutability": "view",
      "type": "function"
    },
    {
      "inputs": [
        {
          "internalType": "uint256",
          "name": "_stayId",
          "type": "uint256"
        }
      ],
      "name": "joinShortStay",
      "outputs": [],
      "stateMutability": "payable",
      "type": "function"
    },
    {
      "inputs": [],
      "name": "owner",
      "outputs": [
        {
          "internalType": "address",
          "name": "",
          "type": "address"
        }
      ],
      "stateMutability": "view",
      "type": "function"
    },
    {
      "inputs": [
        {
          "internalType": "string",
          "name": "_descriptionURI",
          "type": "string"
        },
        {
          "internalType": "uint256",
          "name": "_nPersons",
          "type": "uint256"
        },
        {
          "internalType": "uint256",
          "name": "_totalPrice",
          "type": "uint256"
        },
        {
          "internalType": "uint256",
          "name": "_timeAvailable",
          "type": "uint256"
        },
        {
          "internalType": "bool",
          "name": "_isCreatorSlot",
          "type": "bool"
        }
      ],
      "name": "proposeShortStay",
      "outputs": [
        {
          "internalType": "uint256",
          "name": "",
          "type": "uint256"
        }
      ],
      "stateMutability": "nonpayable",
      "type": "function"
    },
    {
      "inputs": [],
      "name": "stayId",
      "outputs": [
        {
          "internalType": "uint256",
          "name": "_value",
          "type": "uint256"
        }
      ],
      "stateMutability": "view",
      "type": "function"
    },
    {
      "inputs": [
        {
          "internalType": "uint256",
          "name": "",
          "type": "uint256"
        }
      ],
      "name": "stays",
      "outputs": [
        {
          "internalType": "uint256",
          "name": "id",
          "type": "uint256"
        },
        {
          "internalType": "string",
          "name": "descriptionURI",
          "type": "string"
        },
        {
          "internalType": "address",
          "name": "trustee",
          "type": "address"
        },
        {
          "internalType": "uint256",
          "name": "nPersons",
          "type": "uint256"
        },
        {
          "internalType": "uint256",
          "name": "slotsReserved",
          "type": "uint256"
        },
        {
          "internalType": "uint256",
          "name": "amountFunded",
          "type": "uint256"
        },
        {
          "internalType": "uint256",
          "name": "totalPrice",
          "type": "uint256"
        },
        {
          "internalType": "uint256",
          "name": "pricePerPerson",
          "type": "uint256"
        },
        {
          "internalType": "uint256",
          "name": "deadline",
          "type": "uint256"
        },
        {
          "internalType": "bool",
          "name": "isCreatorSlot",
          "type": "bool"
        },
        {
          "internalType": "bool",
          "name": "isActive",
          "type": "bool"
        },
        {
          "internalType": "bool",
          "name": "isFull",
          "type": "bool"
        }
      ],
      "stateMutability": "view",
      "type": "function"
    }
  ],
  "transactionHash": "0x590d64adc6b24a6e84ccc7e234b41ff766921b441d7f51661256ae17ce5b9636",
  "args": [],
  "numDeployments": 1,
  "solcInputHash": "11994cf9e6d0a780df1b8fe2b188623a",
  "bytecode": "0x608060405234801561001057600080fd5b50600180546001600160a01b031916331790556111af806100326000396000f3fe6080604052600436106100705760003560e01c8063a47a97e41161004e578063a47a97e4146100ec578063c382e39a14610101578063c7943c6714610139578063dcd80be51461016657600080fd5b806361d529201461007557806368d066011461008a5780638da5cb5b146100b4575b600080fd5b610088610083366004610e5c565b610186565b005b34801561009657600080fd5b506002546100a19081565b6040519081526020015b60405180910390f35b3480156100c057600080fd5b506001546100d4906001600160a01b031681565b6040516001600160a01b0390911681526020016100ab565b3480156100f857600080fd5b5061008861048f565b34801561010d57600080fd5b5061012161011c366004610e5c565b6104c6565b6040516100ab9c9b9a99989796959493929190611014565b34801561014557600080fd5b50610159610154366004610cf9565b6105be565b6040516100ab9190610f02565b34801561017257600080fd5b506100a1610181366004610da1565b6108cf565b6000818152602081905260409020600a01548190610100900460ff1680156101c657506000818152602081905260409020600a015462010000900460ff16155b80156101e2575060008181526020819052604090206009015442105b6102595760405162461bcd60e51b815260206004820152603b60248201527f4861636b6572486f7573653a20537461792069732066756c6c2c20696e61637460448201527f697665206f7220646561646c696e65207761732072656163686564000000000060648201526084015b60405180910390fd5b600082815260208190526040902060088101543410156102c75760405162461bcd60e51b8152602060048201526024808201527f4861636b6572486f7573653a20496e73756666696369656e742076616c7565206044820152631cd95b9d60e21b6064820152608401610250565b600381015460009081905b8082101561033d57336001600160a01b031684600601838154811061030757634e487b7160e01b600052603260045260246000fd5b6000918252602090912001546001600160a01b0316141561032b576001925061033d565b8161033581611132565b9250506102d2565b821561039a5760405162461bcd60e51b815260206004820152602660248201527f4861636b6572486f7573653a20596f752061726520616c72656164792073696760448201526506e65642075760d41b6064820152608401610250565b6006840180546001810182556000918252602082200180546001600160a01b03191633179055600485018054916103d083611132565b919050555083600801548460050160008282546103ed91906110bf565b9091555050604080518781523360208201527f460d21d4cbf85b35cb5c7f324f30ebd971ebbd70742a3aa7b2155624c6b36016910160405180910390a1836003015484600401541061048757600a8401805462ff00001916620100001790556040517fe1901de7acf5b4425e071d7895f1519f19ae4f4b6b51259d67718b2af22e0da29061047e9088815260200190565b60405180910390a15b505050505050565b600061049a60025490565b905060005b818110156104c2576104b081610bbf565b806104ba81611132565b91505061049f565b5050565b600060208190529081526040902080546001820180549192916104e8906110f7565b80601f0160208091040260200160405190810160405280929190818152602001828054610514906110f7565b80156105615780601f1061053657610100808354040283529160200191610561565b820191906000526020600020905b81548152906001019060200180831161054457829003601f168201915b50505060028401546003850154600486015460058701546007880154600889015460098a0154600a909a015498996001600160a01b03909616989497509295509093909260ff80821691610100810482169162010000909104168c565b805160609060008167ffffffffffffffff8111156105ec57634e487b7160e01b600052604160045260246000fd5b60405190808252806020026020018201604052801561069757816020015b610684604051806101a00160405280600081526020016060815260200160006001600160a01b03168152602001600081526020016000815260200160008152602001606081526020016000815260200160008152602001600081526020016000151581526020016000151581526020016000151581525090565b81526020019060019003908161060a5790505b50845190915060005b818110156108c5576000808783815181106106cb57634e487b7160e01b600052603260045260246000fd5b60200260200101518152602001908152602001600020604051806101a001604052908160008201548152602001600182018054610707906110f7565b80601f0160208091040260200160405190810160405280929190818152602001828054610733906110f7565b80156107805780601f1061075557610100808354040283529160200191610780565b820191906000526020600020905b81548152906001019060200180831161076357829003601f168201915b505050505081526020016002820160009054906101000a90046001600160a01b03166001600160a01b03166001600160a01b031681526020016003820154815260200160048201548152602001600582015481526020016006820180548060200260200160405190810160405280929190818152602001828054801561082f57602002820191906000526020600020905b81546001600160a01b03168152600190910190602001808311610811575b5050509183525050600782015460208201526008820154604082015260098201546060820152600a9091015460ff8082161515608084015261010082048116151560a08401526201000090910416151560c09091015283518490839081106108a757634e487b7160e01b600052603260045260246000fd5b602002602001018190525080806108bd90611132565b9150506106a0565b5090949350505050565b60008085116109305760405162461bcd60e51b815260206004820152602760248201527f4861636b6572486f7573653a204174206c65617374206f6e6520726f6f6d2072604482015266195c5d5a5c995960ca1b6064820152608401610250565b600061093b60025490565b905060008361094b57600061094e565b60015b60ff16905060008767ffffffffffffffff81111561097c57634e487b7160e01b600052604160045260246000fd5b6040519080825280602002602001820160405280156109a5578160200160208202803683370190505b50905084156109f15733816000815181106109d057634e487b7160e01b600052603260045260246000fd5b60200260200101906001600160a01b031690816001600160a01b0316815250505b604051806101a001604052808481526020018a8152602001336001600160a01b03168152602001898152602001838152602001600081526020018281526020018881526020018989610a4391906110d7565b610a4e9060016110bf565b8152602001610a5d88426110bf565b81528615156020808301919091526001604080840182905260006060909401849052878452838352909220835181558382015180519193610aa49390850192910190610bf6565b5060408201516002820180546001600160a01b0319166001600160a01b03909216919091179055606082015160038201556080820151600482015560a0820151600582015560c08201518051610b04916006840191602090910190610c7a565b5060e082015160078201556101008083015160088301556101208301516009830155610140830151600a90920180546101608501516101809095015161ffff1990911693151561ff001916939093179315159091029290921762ff000019166201000091151591909102179055600280546001019055604080518481523360208201527fa322f9beee28d40f70deae6c1c8f9edde1e1275fea1ede699debb1edcaece00f910160405180910390a15090979650505050505050565b600081815260208190526040902060090154421115610bf3576000818152602081905260409020600a01805461ff00191690555b50565b828054610c02906110f7565b90600052602060002090601f016020900481019282610c245760008555610c6a565b82601f10610c3d57805160ff1916838001178555610c6a565b82800160010185558215610c6a579182015b82811115610c6a578251825591602001919060010190610c4f565b50610c76929150610ccf565b5090565b828054828255906000526020600020908101928215610c6a579160200282015b82811115610c6a57825182546001600160a01b0319166001600160a01b03909116178255602090920191600190910190610c9a565b5b80821115610c765760008155600101610cd0565b80358015158114610cf457600080fd5b919050565b60006020808385031215610d0b578182fd5b823567ffffffffffffffff80821115610d22578384fd5b818501915085601f830112610d35578384fd5b813581811115610d4757610d47611163565b8060051b9150610d5884830161108e565b8181528481019084860184860187018a1015610d72578788fd5b8795505b83861015610d94578035835260019590950194918601918601610d76565b5098975050505050505050565b600080600080600060a08688031215610db8578081fd5b853567ffffffffffffffff80821115610dcf578283fd5b818801915088601f830112610de2578283fd5b8135602082821115610df657610df6611163565b610e08601f8301601f1916820161108e565b92508183528a81838601011115610e1d578485fd5b818185018285013790820181018490529096508701359450506040860135925060608601359150610e5060808701610ce4565b90509295509295909350565b600060208284031215610e6d578081fd5b5035919050565b6000815180845260208085019450808401835b83811015610eac5781516001600160a01b031687529582019590820190600101610e87565b509495945050505050565b60008151808452815b81811015610edc57602081850181015186830182015201610ec0565b81811115610eed5782602083870101525b50601f01601f19169290920160200192915050565b60006020808301818452808551808352604092508286019150828160051b870101848801865b8381101561100657603f1989840301855281516101a08151855288820151818a870152610f5782870182610eb7565b91505087820151610f72898701826001600160a01b03169052565b50606082810151908601526080808301519086015260a0808301519086015260c08083015186830382880152610fa88382610e74565b60e0858101519089015261010080860151908901526101208086015190890152610140808601511515908901526101608086015115159089015261018094850151151594909701939093525050509386019390860190600101610f28565b509098975050505050505050565b60006101808e835280602084015261102e8184018f610eb7565b6001600160a01b039d909d16604084015250506060810199909952608089019790975260a088019590955260c087019390935260e08601919091526101008501521515610120840152151561014083015215156101609091015292915050565b604051601f8201601f1916810167ffffffffffffffff811182821017156110b7576110b7611163565b604052919050565b600082198211156110d2576110d261114d565b500190565b6000826110f257634e487b7160e01b81526012600452602481fd5b500490565b600181811c9082168061110b57607f821691505b6020821081141561112c57634e487b7160e01b600052602260045260246000fd5b50919050565b60006000198214156111465761114661114d565b5060010190565b634e487b7160e01b600052601160045260246000fd5b634e487b7160e01b600052604160045260246000fdfea26469706673582212206e5a1657af2051d174932d8ffdefb78e9ee6c4b209329e41b143f78ca234fefb64736f6c63430008040033",
  "devdoc": {
    "kind": "dev",
    "methods": {},
    "version": 1
  },
  "userdoc": {
    "kind": "user",
    "methods": {},
    "version": 1
  },
  "storageLayout": {
    "storage": [
      {
        "astId": 429,
        "contract": "contracts/NomadicVault.sol:NomadicVault",
        "label": "stays",
        "offset": 0,
        "slot": "0",
        "type": "t_mapping(t_uint256,t_struct(ShortStay)424_storage)"
      },
      {
        "astId": 431,
        "contract": "contracts/NomadicVault.sol:NomadicVault",
        "label": "owner",
        "offset": 0,
        "slot": "1",
        "type": "t_address"
      },
      {
        "astId": 434,
        "contract": "contracts/NomadicVault.sol:NomadicVault",
        "label": "stayId",
        "offset": 0,
        "slot": "2",
        "type": "t_struct(Counter)5_storage"
      }
    ],
    "types": {
      "t_address": {
        "encoding": "inplace",
        "label": "address",
        "numberOfBytes": "20"
      },
      "t_array(t_address)dyn_storage": {
        "base": "t_address",
        "encoding": "dynamic_array",
        "label": "address[]",
        "numberOfBytes": "32"
      },
      "t_bool": {
        "encoding": "inplace",
        "label": "bool",
        "numberOfBytes": "1"
      },
      "t_mapping(t_uint256,t_struct(ShortStay)424_storage)": {
        "encoding": "mapping",
        "key": "t_uint256",
        "label": "mapping(uint256 => struct NomadicVault.ShortStay)",
        "numberOfBytes": "32",
        "value": "t_struct(ShortStay)424_storage"
      },
      "t_string_storage": {
        "encoding": "bytes",
        "label": "string",
        "numberOfBytes": "32"
      },
      "t_struct(Counter)5_storage": {
        "encoding": "inplace",
        "label": "struct Counters.Counter",
        "members": [
          {
            "astId": 4,
            "contract": "contracts/NomadicVault.sol:NomadicVault",
            "label": "_value",
            "offset": 0,
            "slot": "0",
            "type": "t_uint256"
          }
        ],
        "numberOfBytes": "32"
      },
      "t_struct(ShortStay)424_storage": {
        "encoding": "inplace",
        "label": "struct NomadicVault.ShortStay",
        "members": [
          {
            "astId": 398,
            "contract": "contracts/NomadicVault.sol:NomadicVault",
            "label": "id",
            "offset": 0,
            "slot": "0",
            "type": "t_uint256"
          },
          {
            "astId": 400,
            "contract": "contracts/NomadicVault.sol:NomadicVault",
            "label": "descriptionURI",
            "offset": 0,
            "slot": "1",
            "type": "t_string_storage"
          },
          {
            "astId": 402,
            "contract": "contracts/NomadicVault.sol:NomadicVault",
            "label": "trustee",
            "offset": 0,
            "slot": "2",
            "type": "t_address"
          },
          {
            "astId": 404,
            "contract": "contracts/NomadicVault.sol:NomadicVault",
            "label": "nPersons",
            "offset": 0,
            "slot": "3",
            "type": "t_uint256"
          },
          {
            "astId": 406,
            "contract": "contracts/NomadicVault.sol:NomadicVault",
            "label": "slotsReserved",
            "offset": 0,
            "slot": "4",
            "type": "t_uint256"
          },
          {
            "astId": 408,
            "contract": "contracts/NomadicVault.sol:NomadicVault",
            "label": "amountFunded",
            "offset": 0,
            "slot": "5",
            "type": "t_uint256"
          },
          {
            "astId": 411,
            "contract": "contracts/NomadicVault.sol:NomadicVault",
            "label": "members",
            "offset": 0,
            "slot": "6",
            "type": "t_array(t_address)dyn_storage"
          },
          {
            "astId": 413,
            "contract": "contracts/NomadicVault.sol:NomadicVault",
            "label": "totalPrice",
            "offset": 0,
            "slot": "7",
            "type": "t_uint256"
          },
          {
            "astId": 415,
            "contract": "contracts/NomadicVault.sol:NomadicVault",
            "label": "pricePerPerson",
            "offset": 0,
            "slot": "8",
            "type": "t_uint256"
          },
          {
            "astId": 417,
            "contract": "contracts/NomadicVault.sol:NomadicVault",
            "label": "deadline",
            "offset": 0,
            "slot": "9",
            "type": "t_uint256"
          },
          {
            "astId": 419,
            "contract": "contracts/NomadicVault.sol:NomadicVault",
            "label": "isCreatorSlot",
            "offset": 0,
            "slot": "10",
            "type": "t_bool"
          },
          {
            "astId": 421,
            "contract": "contracts/NomadicVault.sol:NomadicVault",
            "label": "isActive",
            "offset": 1,
            "slot": "10",
            "type": "t_bool"
          },
          {
            "astId": 423,
            "contract": "contracts/NomadicVault.sol:NomadicVault",
            "label": "isFull",
            "offset": 2,
            "slot": "10",
            "type": "t_bool"
          }
        ],
        "numberOfBytes": "352"
      },
      "t_uint256": {
        "encoding": "inplace",
        "label": "uint256",
        "numberOfBytes": "32"
      }
    }
  }
}