{
  "contracts/NomadicWorldCoin.sol": {
    "NomadicWorldCoin": {
      "abi": [
        {
          "inputs": [
            {
              "internalType": "contract IWorldID",
              "name": "_worldId",
              "type": "address"
            }
          ],
          "stateMutability": "nonpayable",
          "type": "constructor"
        },
        {
          "inputs": [],
          "name": "InvalidNullifier",
          "type": "error"
        },
        {
          "anonymous": false,
          "inputs": [
            {
              "indexed": false,
              "internalType": "uint256",
              "name": "_stayId",
              "type": "uint256"
            },
            {
              "indexed": false,
              "internalType": "address",
              "name": "_newMember",
              "type": "address"
            }
          ],
          "name": "JoinStay",
          "type": "event"
        },
        {
          "anonymous": false,
          "inputs": [
            {
              "indexed": false,
              "internalType": "uint256",
              "name": "_stayId",
              "type": "uint256"
            },
            {
              "indexed": false,
              "internalType": "address",
              "name": "_trustee",
              "type": "address"
            }
          ],
          "name": "ProposeStay",
          "type": "event"
        },
        {
          "anonymous": false,
          "inputs": [
            {
              "indexed": false,
              "internalType": "uint256",
              "name": "_stayId",
              "type": "uint256"
            }
          ],
          "name": "StayIsFull",
          "type": "event"
        },
        {
          "inputs": [],
          "name": "checkDeadlines",
          "outputs": [],
          "stateMutability": "nonpayable",
          "type": "function"
        },
        {
          "inputs": [
            {
              "internalType": "uint256[]",
              "name": "_stayIndexes",
              "type": "uint256[]"
            }
          ],
          "name": "getShortStays",
          "outputs": [
            {
              "components": [
                {
                  "internalType": "uint256",
                  "name": "id",
                  "type": "uint256"
                },
                {
                  "internalType": "string",
                  "name": "descriptionURI",
                  "type": "string"
                },
                {
                  "internalType": "address",
                  "name": "trustee",
                  "type": "address"
                },
                {
                  "internalType": "uint256",
                  "name": "nPersons",
                  "type": "uint256"
                },
                {
                  "internalType": "uint256",
                  "name": "slotsReserved",
                  "type": "uint256"
                },
                {
                  "internalType": "uint256",
                  "name": "amountFunded",
                  "type": "uint256"
                },
                {
                  "internalType": "address[]",
                  "name": "members",
                  "type": "address[]"
                },
                {
                  "internalType": "uint256",
                  "name": "totalPrice",
                  "type": "uint256"
                },
                {
                  "internalType": "uint256",
                  "name": "pricePerPerson",
                  "type": "uint256"
                },
                {
                  "internalType": "uint256",
                  "name": "deadline",
                  "type": "uint256"
                },
                {
                  "internalType": "bool",
                  "name": "isCreatorSlot",
                  "type": "bool"
                },
                {
                  "internalType": "bool",
                  "name": "isActive",
                  "type": "bool"
                },
                {
                  "internalType": "bool",
                  "name": "isFull",
                  "type": "bool"
                }
              ],
              "internalType": "struct NomadicWorldCoin.ShortStay[]",
              "name": "",
              "type": "tuple[]"
            }
          ],
          "stateMutability": "nonpayable",
          "type": "function"
        },
        {
          "inputs": [
            {
              "internalType": "uint256",
              "name": "_stayId",
              "type": "uint256"
            }
          ],
          "name": "joinShortStay",
          "outputs": [],
          "stateMutability": "payable",
          "type": "function"
        },
        {
          "inputs": [],
          "name": "owner",
          "outputs": [
            {
              "internalType": "address",
              "name": "",
              "type": "address"
            }
          ],
          "stateMutability": "view",
          "type": "function"
        },
        {
          "inputs": [
            {
              "internalType": "string",
              "name": "_descriptionURI",
              "type": "string"
            },
            {
              "internalType": "uint256",
              "name": "_nPersons",
              "type": "uint256"
            },
            {
              "internalType": "uint256",
              "name": "_totalPrice",
              "type": "uint256"
            },
            {
              "internalType": "uint256",
              "name": "_timeAvailable",
              "type": "uint256"
            },
            {
              "internalType": "bool",
              "name": "_isCreatorSlot",
              "type": "bool"
            },
            {
              "internalType": "uint256",
              "name": "root",
              "type": "uint256"
            },
            {
              "internalType": "uint256",
              "name": "nullifierHash",
              "type": "uint256"
            },
            {
              "internalType": "uint256[8]",
              "name": "proof",
              "type": "uint256[8]"
            }
          ],
          "name": "proposeShortStay",
          "outputs": [
            {
              "internalType": "uint256",
              "name": "",
              "type": "uint256"
            }
          ],
          "stateMutability": "nonpayable",
          "type": "function"
        },
        {
          "inputs": [],
          "name": "stayId",
          "outputs": [
            {
              "internalType": "uint256",
              "name": "_value",
              "type": "uint256"
            }
          ],
          "stateMutability": "view",
          "type": "function"
        },
        {
          "inputs": [
            {
              "internalType": "uint256",
              "name": "",
              "type": "uint256"
            }
          ],
          "name": "stays",
          "outputs": [
            {
              "internalType": "uint256",
              "name": "id",
              "type": "uint256"
            },
            {
              "internalType": "string",
              "name": "descriptionURI",
              "type": "string"
            },
            {
              "internalType": "address",
              "name": "trustee",
              "type": "address"
            },
            {
              "internalType": "uint256",
              "name": "nPersons",
              "type": "uint256"
            },
            {
              "internalType": "uint256",
              "name": "slotsReserved",
              "type": "uint256"
            },
            {
              "internalType": "uint256",
              "name": "amountFunded",
              "type": "uint256"
            },
            {
              "internalType": "uint256",
              "name": "totalPrice",
              "type": "uint256"
            },
            {
              "internalType": "uint256",
              "name": "pricePerPerson",
              "type": "uint256"
            },
            {
              "internalType": "uint256",
              "name": "deadline",
              "type": "uint256"
            },
            {
              "internalType": "bool",
              "name": "isCreatorSlot",
              "type": "bool"
            },
            {
              "internalType": "bool",
              "name": "isActive",
              "type": "bool"
            },
            {
              "internalType": "bool",
              "name": "isFull",
              "type": "bool"
            }
          ],
          "stateMutability": "view",
          "type": "function"
        }
      ],
      "devdoc": {
        "kind": "dev",
        "methods": {},
        "stateVariables": {
          "groupId": {
            "details": "The WorldID group ID (1)"
          },
          "nullifierHashes": {
            "details": "Whether a nullifier hash has been used already. Used to prevent double-signaling"
          },
          "worldId": {
            "details": "The WorldID instance that will be used for verifying proofs"
          }
        },
        "version": 1
      },
      "evm": {
        "bytecode": {
          "linkReferences": {},
          "object": "60c0604052600160a05234801561001557600080fd5b506040516113d83803806113d88339810160408190526100349161005d565b60601b6001600160601b03191660805260028054336001600160a01b031990911617905561008b565b60006020828403121561006e578081fd5b81516001600160a01b0381168114610084578182fd5b9392505050565b60805160601c60a0516113256100b360003960006108c60152600061089601526113256000f3fe6080604052600436106100705760003560e01c8063a47a97e41161004e578063a47a97e4146100ec578063c382e39a14610101578063c7943c6714610139578063cfc454c81461016657600080fd5b806361d529201461007557806368d066011461008a5780638da5cb5b146100b4575b600080fd5b610088610083366004610f3a565b610186565b005b34801561009657600080fd5b506003546100a19081565b6040519081526020015b60405180910390f35b3480156100c057600080fd5b506002546100d4906001600160a01b031681565b6040516001600160a01b0390911681526020016100ab565b3480156100f857600080fd5b5061008861048f565b34801561010d57600080fd5b5061012161011c366004610f3a565b6104c6565b6040516100ab9c9b9a9998979695949392919061111e565b34801561014557600080fd5b50610159610154366004610db2565b6105bd565b6040516100ab919061100c565b34801561017257600080fd5b506100a1610181366004610e5a565b6107f6565b6000818152600160205260409020600a01548190610100900460ff1680156101c657506000818152600160205260409020600a015462010000900460ff16155b80156101e2575060008181526001602052604090206009015442105b6102595760405162461bcd60e51b815260206004820152603b60248201527f4861636b6572486f7573653a20537461792069732066756c6c2c20696e61637460448201527f697665206f7220646561646c696e65207761732072656163686564000000000060648201526084015b60405180910390fd5b600082815260016020526040902060088101543410156102c75760405162461bcd60e51b8152602060048201526024808201527f4861636b6572486f7573653a20496e73756666696369656e742076616c7565206044820152631cd95b9d60e21b6064820152608401610250565b600381015460009081905b8082101561033d57336001600160a01b031684600601838154811061030757634e487b7160e01b600052603260045260246000fd5b6000918252602090912001546001600160a01b0316141561032b576001925061033d565b81610335816112a8565b9250506102d2565b821561039a5760405162461bcd60e51b815260206004820152602660248201527f4861636b6572486f7573653a20596f752061726520616c72656164792073696760448201526506e65642075760d41b6064820152608401610250565b6006840180546001810182556000918252602082200180546001600160a01b03191633179055600485018054916103d0836112a8565b919050555083600801548460050160008282546103ed9190611205565b9091555050604080518781523360208201527f460d21d4cbf85b35cb5c7f324f30ebd971ebbd70742a3aa7b2155624c6b36016910160405180910390a1836003015484600401541061048757600a8401805462ff00001916620100001790556040517fe1901de7acf5b4425e071d7895f1519f19ae4f4b6b51259d67718b2af22e0da29061047e9088815260200190565b60405180910390a15b505050505050565b600061049a60035490565b905060005b818110156104c2576104b081610c2b565b806104ba816112a8565b91505061049f565b5050565b6001602081905260009182526040909120805491810180546104e79061126d565b80601f01602080910402602001604051908101604052809291908181526020018280546105139061126d565b80156105605780601f1061053557610100808354040283529160200191610560565b820191906000526020600020905b81548152906001019060200180831161054357829003601f168201915b50505060028401546003850154600486015460058701546007880154600889015460098a0154600a909a015498996001600160a01b03909616989497509295509093909260ff80821691610100810482169162010000909104168c565b8051606090819060005b818110156107ed57600160008683815181106105f357634e487b7160e01b600052603260045260246000fd5b60200260200101518152602001908152602001600020604051806101a00160405290816000820154815260200160018201805461062f9061126d565b80601f016020809104026020016040519081016040528092919081815260200182805461065b9061126d565b80156106a85780601f1061067d576101008083540402835291602001916106a8565b820191906000526020600020905b81548152906001019060200180831161068b57829003601f168201915b505050505081526020016002820160009054906101000a90046001600160a01b03166001600160a01b03166001600160a01b031681526020016003820154815260200160048201548152602001600582015481526020016006820180548060200260200160405190810160405280929190818152602001828054801561075757602002820191906000526020600020905b81546001600160a01b03168152600190910190602001808311610739575b5050509183525050600782015460208201526008820154604082015260098201546060820152600a9091015460ff8082161515608084015261010082048116151560a08401526201000090910416151560c09091015283518490839081106107cf57634e487b7160e01b600052603260045260246000fd5b602002602001018190525080806107e5906112a8565b9150506105c7565b50909392505050565b60008088116108575760405162461bcd60e51b815260206004820152602760248201527f4861636b6572486f7573653a204174206c65617374206f6e6520726f6f6d2072604482015266195c5d5a5c995960ca1b6064820152608401610250565b60008381526020819052604090205460ff161561088757604051632ec8265960e11b815260040160405180910390fd5b600061089260035490565b90507f00000000000000000000000000000000000000000000000000000000000000006001600160a01b0316633bc778e3867f00000000000000000000000000000000000000000000000000000000000000006109138e8e8e8e6040516020016108ff9493929190610fdd565b604051602081830303815290604052610c62565b6040516bffffffffffffffffffffffff193060601b166020820152899061093c906034016108ff565b896040518763ffffffff1660e01b815260040161095e96959493929190611198565b60006040518083038186803b15801561097657600080fd5b505afa15801561098a573d6000803e3d6000fd5b5050506000858152602081905260408120805460ff191660011790559050866109b45760006109b7565b60015b60ff16905060008a67ffffffffffffffff8111156109e557634e487b7160e01b600052604160045260246000fd5b604051908082528060200260200182016040528015610a0e578160200160208202803683370190505b5090508715610a5a573381600081518110610a3957634e487b7160e01b600052603260045260246000fd5b60200260200101906001600160a01b031690816001600160a01b0316815250505b604051806101a001604052808481526020018d8152602001336001600160a01b031681526020018c8152602001838152602001600081526020018281526020018b81526020018c8c610aac919061121d565b610ab7906001611205565b8152602001610ac68b42611205565b81528915156020808301919091526001604080840182905260006060909401849052878452818352909220835181558382015180519193610b0d9390850192910190610c97565b5060408201516002820180546001600160a01b0319166001600160a01b03909216919091179055606082015160038201556080820151600482015560a0820151600582015560c08201518051610b6d916006840191602090910190610d1b565b5060e082015160078201556101008083015160088301556101208301516009830155610140830151600a90920180546101608501516101809095015161ffff1990911693151561ff001916939093179315159091029290921762ff000019166201000091151591909102179055600380546001019055604080518481523360208201527fa322f9beee28d40f70deae6c1c8f9edde1e1275fea1ede699debb1edcaece00f910160405180910390a150909a9950505050505050505050565b600081815260016020526040902060090154421115610c5f576000818152600160205260409020600a01805461ff00191690555b50565b6000600882604051602001610c779190610fc1565b60408051601f198184030181529190528051602090910120901c92915050565b828054610ca39061126d565b90600052602060002090601f016020900481019282610cc55760008555610d0b565b82601f10610cde57805160ff1916838001178555610d0b565b82800160010185558215610d0b579182015b82811115610d0b578251825591602001919060010190610cf0565b50610d17929150610d70565b5090565b828054828255906000526020600020908101928215610d0b579160200282015b82811115610d0b57825182546001600160a01b0319166001600160a01b03909116178255602090920191600190910190610d3b565b5b80821115610d175760008155600101610d71565b806101008101831015610d9757600080fd5b92915050565b80358015158114610dad57600080fd5b919050565b60006020808385031215610dc4578182fd5b823567ffffffffffffffff80821115610ddb578384fd5b818501915085601f830112610dee578384fd5b813581811115610e0057610e006112d9565b8060051b9150610e118483016111d4565b8181528481019084860184860187018a1015610e2b578788fd5b8795505b83861015610e4d578035835260019590950194918601918601610e2f565b5098975050505050505050565b6000806000806000806000806101e0898b031215610e76578384fd5b883567ffffffffffffffff80821115610e8d578586fd5b818b0191508b601f830112610ea0578586fd5b8135602082821115610eb457610eb46112d9565b610ec6601f8301601f191682016111d4565b92508183528d81838601011115610edb578788fd5b818185018285013790820181018790529099508a01359750506040890135955060608901359450610f0e60808a01610d9d565b935060a0890135925060c08901359150610f2b8a60e08b01610d85565b90509295985092959890939650565b600060208284031215610f4b578081fd5b5035919050565b6000815180845260208085019450808401835b83811015610f8a5781516001600160a01b031687529582019590820190600101610f65565b509495945050505050565b60008151808452610fad81602086016020860161123d565b601f01601f19169290920160200192915050565b60008251610fd381846020870161123d565b9190910192915050565b60008551610fef818460208a0161123d565b919091019384525060208301919091526040820152606001919050565b60006020808301818452808551808352604092508286019150828160051b870101848801865b8381101561111057603f1989840301855281516101a08151855288820151818a87015261106182870182610f95565b9150508782015161107c898701826001600160a01b03169052565b50606082810151908601526080808301519086015260a0808301519086015260c080830151868303828801526110b28382610f52565b60e0858101519089015261010080860151908901526101208086015190890152610140808601511515908901526101608086015115159089015261018094850151151594909701939093525050509386019390860190600101611032565b509098975050505050505050565b60006101808e83528060208401526111388184018f610f95565b6001600160a01b039d909d16604084015250506060810199909952608089019790975260a088019590955260c087019390935260e08601919091526101008501521515610120840152151561014083015215156101609091015292915050565b60006101a0820190508782528660208301528560408301528460608301528360808301526101008360a084013760008152979650505050505050565b604051601f8201601f1916810167ffffffffffffffff811182821017156111fd576111fd6112d9565b604052919050565b60008219821115611218576112186112c3565b500190565b60008261123857634e487b7160e01b81526012600452602481fd5b500490565b60005b83811015611258578181015183820152602001611240565b83811115611267576000848401525b50505050565b600181811c9082168061128157607f821691505b602082108114156112a257634e487b7160e01b600052602260045260246000fd5b50919050565b60006000198214156112bc576112bc6112c3565b5060010190565b634e487b7160e01b600052601160045260246000fd5b634e487b7160e01b600052604160045260246000fdfea2646970667358221220f94a8a7dcd0ccb1f5b4b86b8622278a4e0c2974bb8665145af4a421695ed62eb64736f6c63430008040033",
          "opcodes": "PUSH1 0xC0 PUSH1 0x40 MSTORE PUSH1 0x1 PUSH1 0xA0 MSTORE CALLVALUE DUP1 ISZERO PUSH2 0x15 JUMPI PUSH1 0x0 DUP1 REVERT JUMPDEST POP PUSH1 0x40 MLOAD PUSH2 0x13D8 CODESIZE SUB DUP1 PUSH2 0x13D8 DUP4 CODECOPY DUP2 ADD PUSH1 0x40 DUP2 SWAP1 MSTORE PUSH2 0x34 SWAP2 PUSH2 0x5D JUMP JUMPDEST PUSH1 0x60 SHL PUSH1 0x1 PUSH1 0x1 PUSH1 0x60 SHL SUB NOT AND PUSH1 0x80 MSTORE PUSH1 0x2 DUP1 SLOAD CALLER PUSH1 0x1 PUSH1 0x1 PUSH1 0xA0 SHL SUB NOT SWAP1 SWAP2 AND OR SWAP1 SSTORE PUSH2 0x8B JUMP JUMPDEST PUSH1 0x0 PUSH1 0x20 DUP3 DUP5 SUB SLT ISZERO PUSH2 0x6E JUMPI DUP1 DUP2 REVERT JUMPDEST DUP2 MLOAD PUSH1 0x1 PUSH1 0x1 PUSH1 0xA0 SHL SUB DUP2 AND DUP2 EQ PUSH2 0x84 JUMPI DUP2 DUP3 REVERT JUMPDEST SWAP4 SWAP3 POP POP POP JUMP JUMPDEST PUSH1 0x80 MLOAD PUSH1 0x60 SHR PUSH1 0xA0 MLOAD PUSH2 0x1325 PUSH2 0xB3 PUSH1 0x0 CODECOPY PUSH1 0x0 PUSH2 0x8C6 ADD MSTORE PUSH1 0x0 PUSH2 0x896 ADD MSTORE PUSH2 0x1325 PUSH1 0x0 RETURN INVALID PUSH1 0x80 PUSH1 0x40 MSTORE PUSH1 0x4 CALLDATASIZE LT PUSH2 0x70 JUMPI PUSH1 0x0 CALLDATALOAD PUSH1 0xE0 SHR DUP1 PUSH4 0xA47A97E4 GT PUSH2 0x4E JUMPI DUP1 PUSH4 0xA47A97E4 EQ PUSH2 0xEC JUMPI DUP1 PUSH4 0xC382E39A EQ PUSH2 0x101 JUMPI DUP1 PUSH4 0xC7943C67 EQ PUSH2 0x139 JUMPI DUP1 PUSH4 0xCFC454C8 EQ PUSH2 0x166 JUMPI PUSH1 0x0 DUP1 REVERT JUMPDEST DUP1 PUSH4 0x61D52920 EQ PUSH2 0x75 JUMPI DUP1 PUSH4 0x68D06601 EQ PUSH2 0x8A JUMPI DUP1 PUSH4 0x8DA5CB5B EQ PUSH2 0xB4 JUMPI JUMPDEST PUSH1 0x0 DUP1 REVERT JUMPDEST PUSH2 0x88 PUSH2 0x83 CALLDATASIZE PUSH1 0x4 PUSH2 0xF3A JUMP JUMPDEST PUSH2 0x186 JUMP JUMPDEST STOP JUMPDEST CALLVALUE DUP1 ISZERO PUSH2 0x96 JUMPI PUSH1 0x0 DUP1 REVERT JUMPDEST POP PUSH1 0x3 SLOAD PUSH2 0xA1 SWAP1 DUP2 JUMP JUMPDEST PUSH1 0x40 MLOAD SWAP1 DUP2 MSTORE PUSH1 0x20 ADD JUMPDEST PUSH1 0x40 MLOAD DUP1 SWAP2 SUB SWAP1 RETURN JUMPDEST CALLVALUE DUP1 ISZERO PUSH2 0xC0 JUMPI PUSH1 0x0 DUP1 REVERT JUMPDEST POP PUSH1 0x2 SLOAD PUSH2 0xD4 SWAP1 PUSH1 0x1 PUSH1 0x1 PUSH1 0xA0 SHL SUB AND DUP2 JUMP JUMPDEST PUSH1 0x40 MLOAD PUSH1 0x1 PUSH1 0x1 PUSH1 0xA0 SHL SUB SWAP1 SWAP2 AND DUP2 MSTORE PUSH1 0x20 ADD PUSH2 0xAB JUMP JUMPDEST CALLVALUE DUP1 ISZERO PUSH2 0xF8 JUMPI PUSH1 0x0 DUP1 REVERT JUMPDEST POP PUSH2 0x88 PUSH2 0x48F JUMP JUMPDEST CALLVALUE DUP1 ISZERO PUSH2 0x10D JUMPI PUSH1 0x0 DUP1 REVERT JUMPDEST POP PUSH2 0x121 PUSH2 0x11C CALLDATASIZE PUSH1 0x4 PUSH2 0xF3A JUMP JUMPDEST PUSH2 0x4C6 JUMP JUMPDEST PUSH1 0x40 MLOAD PUSH2 0xAB SWAP13 SWAP12 SWAP11 SWAP10 SWAP9 SWAP8 SWAP7 SWAP6 SWAP5 SWAP4 SWAP3 SWAP2 SWAP1 PUSH2 0x111E JUMP JUMPDEST CALLVALUE DUP1 ISZERO PUSH2 0x145 JUMPI PUSH1 0x0 DUP1 REVERT JUMPDEST POP PUSH2 0x159 PUSH2 0x154 CALLDATASIZE PUSH1 0x4 PUSH2 0xDB2 JUMP JUMPDEST PUSH2 0x5BD JUMP JUMPDEST PUSH1 0x40 MLOAD PUSH2 0xAB SWAP2 SWAP1 PUSH2 0x100C JUMP JUMPDEST CALLVALUE DUP1 ISZERO PUSH2 0x172 JUMPI PUSH1 0x0 DUP1 REVERT JUMPDEST POP PUSH2 0xA1 PUSH2 0x181 CALLDATASIZE PUSH1 0x4 PUSH2 0xE5A JUMP JUMPDEST PUSH2 0x7F6 JUMP JUMPDEST PUSH1 0x0 DUP2 DUP2 MSTORE PUSH1 0x1 PUSH1 0x20 MSTORE PUSH1 0x40 SWAP1 KECCAK256 PUSH1 0xA ADD SLOAD DUP2 SWAP1 PUSH2 0x100 SWAP1 DIV PUSH1 0xFF AND DUP1 ISZERO PUSH2 0x1C6 JUMPI POP PUSH1 0x0 DUP2 DUP2 MSTORE PUSH1 0x1 PUSH1 0x20 MSTORE PUSH1 0x40 SWAP1 KECCAK256 PUSH1 0xA ADD SLOAD PUSH3 0x10000 SWAP1 DIV PUSH1 0xFF AND ISZERO JUMPDEST DUP1 ISZERO PUSH2 0x1E2 JUMPI POP PUSH1 0x0 DUP2 DUP2 MSTORE PUSH1 0x1 PUSH1 0x20 MSTORE PUSH1 0x40 SWAP1 KECCAK256 PUSH1 0x9 ADD SLOAD TIMESTAMP LT JUMPDEST PUSH2 0x259 JUMPI PUSH1 0x40 MLOAD PUSH3 0x461BCD PUSH1 0xE5 SHL DUP2 MSTORE PUSH1 0x20 PUSH1 0x4 DUP3 ADD MSTORE PUSH1 0x3B PUSH1 0x24 DUP3 ADD MSTORE PUSH32 0x4861636B6572486F7573653A20537461792069732066756C6C2C20696E616374 PUSH1 0x44 DUP3 ADD MSTORE PUSH32 0x697665206F7220646561646C696E652077617320726561636865640000000000 PUSH1 0x64 DUP3 ADD MSTORE PUSH1 0x84 ADD JUMPDEST PUSH1 0x40 MLOAD DUP1 SWAP2 SUB SWAP1 REVERT JUMPDEST PUSH1 0x0 DUP3 DUP2 MSTORE PUSH1 0x1 PUSH1 0x20 MSTORE PUSH1 0x40 SWAP1 KECCAK256 PUSH1 0x8 DUP2 ADD SLOAD CALLVALUE LT ISZERO PUSH2 0x2C7 JUMPI PUSH1 0x40 MLOAD PUSH3 0x461BCD PUSH1 0xE5 SHL DUP2 MSTORE PUSH1 0x20 PUSH1 0x4 DUP3 ADD MSTORE PUSH1 0x24 DUP1 DUP3 ADD MSTORE PUSH32 0x4861636B6572486F7573653A20496E73756666696369656E742076616C756520 PUSH1 0x44 DUP3 ADD MSTORE PUSH4 0x1CD95B9D PUSH1 0xE2 SHL PUSH1 0x64 DUP3 ADD MSTORE PUSH1 0x84 ADD PUSH2 0x250 JUMP JUMPDEST PUSH1 0x3 DUP2 ADD SLOAD PUSH1 0x0 SWAP1 DUP2 SWAP1 JUMPDEST DUP1 DUP3 LT ISZERO PUSH2 0x33D JUMPI CALLER PUSH1 0x1 PUSH1 0x1 PUSH1 0xA0 SHL SUB AND DUP5 PUSH1 0x6 ADD DUP4 DUP2 SLOAD DUP2 LT PUSH2 0x307 JUMPI PUSH4 0x4E487B71 PUSH1 0xE0 SHL PUSH1 0x0 MSTORE PUSH1 0x32 PUSH1 0x4 MSTORE PUSH1 0x24 PUSH1 0x0 REVERT JUMPDEST PUSH1 0x0 SWAP2 DUP3 MSTORE PUSH1 0x20 SWAP1 SWAP2 KECCAK256 ADD SLOAD PUSH1 0x1 PUSH1 0x1 PUSH1 0xA0 SHL SUB AND EQ ISZERO PUSH2 0x32B JUMPI PUSH1 0x1 SWAP3 POP PUSH2 0x33D JUMP JUMPDEST DUP2 PUSH2 0x335 DUP2 PUSH2 0x12A8 JUMP JUMPDEST SWAP3 POP POP PUSH2 0x2D2 JUMP JUMPDEST DUP3 ISZERO PUSH2 0x39A JUMPI PUSH1 0x40 MLOAD PUSH3 0x461BCD PUSH1 0xE5 SHL DUP2 MSTORE PUSH1 0x20 PUSH1 0x4 DUP3 ADD MSTORE PUSH1 0x26 PUSH1 0x24 DUP3 ADD MSTORE PUSH32 0x4861636B6572486F7573653A20596F752061726520616C726561647920736967 PUSH1 0x44 DUP3 ADD MSTORE PUSH6 0x6E656420757 PUSH1 0xD4 SHL PUSH1 0x64 DUP3 ADD MSTORE PUSH1 0x84 ADD PUSH2 0x250 JUMP JUMPDEST PUSH1 0x6 DUP5 ADD DUP1 SLOAD PUSH1 0x1 DUP2 ADD DUP3 SSTORE PUSH1 0x0 SWAP2 DUP3 MSTORE PUSH1 0x20 DUP3 KECCAK256 ADD DUP1 SLOAD PUSH1 0x1 PUSH1 0x1 PUSH1 0xA0 SHL SUB NOT AND CALLER OR SWAP1 SSTORE PUSH1 0x4 DUP6 ADD DUP1 SLOAD SWAP2 PUSH2 0x3D0 DUP4 PUSH2 0x12A8 JUMP JUMPDEST SWAP2 SWAP1 POP SSTORE POP DUP4 PUSH1 0x8 ADD SLOAD DUP5 PUSH1 0x5 ADD PUSH1 0x0 DUP3 DUP3 SLOAD PUSH2 0x3ED SWAP2 SWAP1 PUSH2 0x1205 JUMP JUMPDEST SWAP1 SWAP2 SSTORE POP POP PUSH1 0x40 DUP1 MLOAD DUP8 DUP2 MSTORE CALLER PUSH1 0x20 DUP3 ADD MSTORE PUSH32 0x460D21D4CBF85B35CB5C7F324F30EBD971EBBD70742A3AA7B2155624C6B36016 SWAP2 ADD PUSH1 0x40 MLOAD DUP1 SWAP2 SUB SWAP1 LOG1 DUP4 PUSH1 0x3 ADD SLOAD DUP5 PUSH1 0x4 ADD SLOAD LT PUSH2 0x487 JUMPI PUSH1 0xA DUP5 ADD DUP1 SLOAD PUSH3 0xFF0000 NOT AND PUSH3 0x10000 OR SWAP1 SSTORE PUSH1 0x40 MLOAD PUSH32 0xE1901DE7ACF5B4425E071D7895F1519F19AE4F4B6B51259D67718B2AF22E0DA2 SWAP1 PUSH2 0x47E SWAP1 DUP9 DUP2 MSTORE PUSH1 0x20 ADD SWAP1 JUMP JUMPDEST PUSH1 0x40 MLOAD DUP1 SWAP2 SUB SWAP1 LOG1 JUMPDEST POP POP POP POP POP POP JUMP JUMPDEST PUSH1 0x0 PUSH2 0x49A PUSH1 0x3 SLOAD SWAP1 JUMP JUMPDEST SWAP1 POP PUSH1 0x0 JUMPDEST DUP2 DUP2 LT ISZERO PUSH2 0x4C2 JUMPI PUSH2 0x4B0 DUP2 PUSH2 0xC2B JUMP JUMPDEST DUP1 PUSH2 0x4BA DUP2 PUSH2 0x12A8 JUMP JUMPDEST SWAP2 POP POP PUSH2 0x49F JUMP JUMPDEST POP POP JUMP JUMPDEST PUSH1 0x1 PUSH1 0x20 DUP2 SWAP1 MSTORE PUSH1 0x0 SWAP2 DUP3 MSTORE PUSH1 0x40 SWAP1 SWAP2 KECCAK256 DUP1 SLOAD SWAP2 DUP2 ADD DUP1 SLOAD PUSH2 0x4E7 SWAP1 PUSH2 0x126D JUMP JUMPDEST DUP1 PUSH1 0x1F ADD PUSH1 0x20 DUP1 SWAP2 DIV MUL PUSH1 0x20 ADD PUSH1 0x40 MLOAD SWAP1 DUP2 ADD PUSH1 0x40 MSTORE DUP1 SWAP3 SWAP2 SWAP1 DUP2 DUP2 MSTORE PUSH1 0x20 ADD DUP3 DUP1 SLOAD PUSH2 0x513 SWAP1 PUSH2 0x126D JUMP JUMPDEST DUP1 ISZERO PUSH2 0x560 JUMPI DUP1 PUSH1 0x1F LT PUSH2 0x535 JUMPI PUSH2 0x100 DUP1 DUP4 SLOAD DIV MUL DUP4 MSTORE SWAP2 PUSH1 0x20 ADD SWAP2 PUSH2 0x560 JUMP JUMPDEST DUP3 ADD SWAP2 SWAP1 PUSH1 0x0 MSTORE PUSH1 0x20 PUSH1 0x0 KECCAK256 SWAP1 JUMPDEST DUP2 SLOAD DUP2 MSTORE SWAP1 PUSH1 0x1 ADD SWAP1 PUSH1 0x20 ADD DUP1 DUP4 GT PUSH2 0x543 JUMPI DUP3 SWAP1 SUB PUSH1 0x1F AND DUP3 ADD SWAP2 JUMPDEST POP POP POP PUSH1 0x2 DUP5 ADD SLOAD PUSH1 0x3 DUP6 ADD SLOAD PUSH1 0x4 DUP7 ADD SLOAD PUSH1 0x5 DUP8 ADD SLOAD PUSH1 0x7 DUP9 ADD SLOAD PUSH1 0x8 DUP10 ADD SLOAD PUSH1 0x9 DUP11 ADD SLOAD PUSH1 0xA SWAP1 SWAP11 ADD SLOAD SWAP9 SWAP10 PUSH1 0x1 PUSH1 0x1 PUSH1 0xA0 SHL SUB SWAP1 SWAP7 AND SWAP9 SWAP5 SWAP8 POP SWAP3 SWAP6 POP SWAP1 SWAP4 SWAP1 SWAP3 PUSH1 0xFF DUP1 DUP3 AND SWAP2 PUSH2 0x100 DUP2 DIV DUP3 AND SWAP2 PUSH3 0x10000 SWAP1 SWAP2 DIV AND DUP13 JUMP JUMPDEST DUP1 MLOAD PUSH1 0x60 SWAP1 DUP2 SWAP1 PUSH1 0x0 JUMPDEST DUP2 DUP2 LT ISZERO PUSH2 0x7ED JUMPI PUSH1 0x1 PUSH1 0x0 DUP7 DUP4 DUP2 MLOAD DUP2 LT PUSH2 0x5F3 JUMPI PUSH4 0x4E487B71 PUSH1 0xE0 SHL PUSH1 0x0 MSTORE PUSH1 0x32 PUSH1 0x4 MSTORE PUSH1 0x24 PUSH1 0x0 REVERT JUMPDEST PUSH1 0x20 MUL PUSH1 0x20 ADD ADD MLOAD DUP2 MSTORE PUSH1 0x20 ADD SWAP1 DUP2 MSTORE PUSH1 0x20 ADD PUSH1 0x0 KECCAK256 PUSH1 0x40 MLOAD DUP1 PUSH2 0x1A0 ADD PUSH1 0x40 MSTORE SWAP1 DUP2 PUSH1 0x0 DUP3 ADD SLOAD DUP2 MSTORE PUSH1 0x20 ADD PUSH1 0x1 DUP3 ADD DUP1 SLOAD PUSH2 0x62F SWAP1 PUSH2 0x126D JUMP JUMPDEST DUP1 PUSH1 0x1F ADD PUSH1 0x20 DUP1 SWAP2 DIV MUL PUSH1 0x20 ADD PUSH1 0x40 MLOAD SWAP1 DUP2 ADD PUSH1 0x40 MSTORE DUP1 SWAP3 SWAP2 SWAP1 DUP2 DUP2 MSTORE PUSH1 0x20 ADD DUP3 DUP1 SLOAD PUSH2 0x65B SWAP1 PUSH2 0x126D JUMP JUMPDEST DUP1 ISZERO PUSH2 0x6A8 JUMPI DUP1 PUSH1 0x1F LT PUSH2 0x67D JUMPI PUSH2 0x100 DUP1 DUP4 SLOAD DIV MUL DUP4 MSTORE SWAP2 PUSH1 0x20 ADD SWAP2 PUSH2 0x6A8 JUMP JUMPDEST DUP3 ADD SWAP2 SWAP1 PUSH1 0x0 MSTORE PUSH1 0x20 PUSH1 0x0 KECCAK256 SWAP1 JUMPDEST DUP2 SLOAD DUP2 MSTORE SWAP1 PUSH1 0x1 ADD SWAP1 PUSH1 0x20 ADD DUP1 DUP4 GT PUSH2 0x68B JUMPI DUP3 SWAP1 SUB PUSH1 0x1F AND DUP3 ADD SWAP2 JUMPDEST POP POP POP POP POP DUP2 MSTORE PUSH1 0x20 ADD PUSH1 0x2 DUP3 ADD PUSH1 0x0 SWAP1 SLOAD SWAP1 PUSH2 0x100 EXP SWAP1 DIV PUSH1 0x1 PUSH1 0x1 PUSH1 0xA0 SHL SUB AND PUSH1 0x1 PUSH1 0x1 PUSH1 0xA0 SHL SUB AND PUSH1 0x1 PUSH1 0x1 PUSH1 0xA0 SHL SUB AND DUP2 MSTORE PUSH1 0x20 ADD PUSH1 0x3 DUP3 ADD SLOAD DUP2 MSTORE PUSH1 0x20 ADD PUSH1 0x4 DUP3 ADD SLOAD DUP2 MSTORE PUSH1 0x20 ADD PUSH1 0x5 DUP3 ADD SLOAD DUP2 MSTORE PUSH1 0x20 ADD PUSH1 0x6 DUP3 ADD DUP1 SLOAD DUP1 PUSH1 0x20 MUL PUSH1 0x20 ADD PUSH1 0x40 MLOAD SWAP1 DUP2 ADD PUSH1 0x40 MSTORE DUP1 SWAP3 SWAP2 SWAP1 DUP2 DUP2 MSTORE PUSH1 0x20 ADD DUP3 DUP1 SLOAD DUP1 ISZERO PUSH2 0x757 JUMPI PUSH1 0x20 MUL DUP3 ADD SWAP2 SWAP1 PUSH1 0x0 MSTORE PUSH1 0x20 PUSH1 0x0 KECCAK256 SWAP1 JUMPDEST DUP2 SLOAD PUSH1 0x1 PUSH1 0x1 PUSH1 0xA0 SHL SUB AND DUP2 MSTORE PUSH1 0x1 SWAP1 SWAP2 ADD SWAP1 PUSH1 0x20 ADD DUP1 DUP4 GT PUSH2 0x739 JUMPI JUMPDEST POP POP POP SWAP2 DUP4 MSTORE POP POP PUSH1 0x7 DUP3 ADD SLOAD PUSH1 0x20 DUP3 ADD MSTORE PUSH1 0x8 DUP3 ADD SLOAD PUSH1 0x40 DUP3 ADD MSTORE PUSH1 0x9 DUP3 ADD SLOAD PUSH1 0x60 DUP3 ADD MSTORE PUSH1 0xA SWAP1 SWAP2 ADD SLOAD PUSH1 0xFF DUP1 DUP3 AND ISZERO ISZERO PUSH1 0x80 DUP5 ADD MSTORE PUSH2 0x100 DUP3 DIV DUP2 AND ISZERO ISZERO PUSH1 0xA0 DUP5 ADD MSTORE PUSH3 0x10000 SWAP1 SWAP2 DIV AND ISZERO ISZERO PUSH1 0xC0 SWAP1 SWAP2 ADD MSTORE DUP4 MLOAD DUP5 SWAP1 DUP4 SWAP1 DUP2 LT PUSH2 0x7CF JUMPI PUSH4 0x4E487B71 PUSH1 0xE0 SHL PUSH1 0x0 MSTORE PUSH1 0x32 PUSH1 0x4 MSTORE PUSH1 0x24 PUSH1 0x0 REVERT JUMPDEST PUSH1 0x20 MUL PUSH1 0x20 ADD ADD DUP2 SWAP1 MSTORE POP DUP1 DUP1 PUSH2 0x7E5 SWAP1 PUSH2 0x12A8 JUMP JUMPDEST SWAP2 POP POP PUSH2 0x5C7 JUMP JUMPDEST POP SWAP1 SWAP4 SWAP3 POP POP POP JUMP JUMPDEST PUSH1 0x0 DUP1 DUP9 GT PUSH2 0x857 JUMPI PUSH1 0x40 MLOAD PUSH3 0x461BCD PUSH1 0xE5 SHL DUP2 MSTORE PUSH1 0x20 PUSH1 0x4 DUP3 ADD MSTORE PUSH1 0x27 PUSH1 0x24 DUP3 ADD MSTORE PUSH32 0x4861636B6572486F7573653A204174206C65617374206F6E6520726F6F6D2072 PUSH1 0x44 DUP3 ADD MSTORE PUSH7 0x195C5D5A5C9959 PUSH1 0xCA SHL PUSH1 0x64 DUP3 ADD MSTORE PUSH1 0x84 ADD PUSH2 0x250 JUMP JUMPDEST PUSH1 0x0 DUP4 DUP2 MSTORE PUSH1 0x20 DUP2 SWAP1 MSTORE PUSH1 0x40 SWAP1 KECCAK256 SLOAD PUSH1 0xFF AND ISZERO PUSH2 0x887 JUMPI PUSH1 0x40 MLOAD PUSH4 0x2EC82659 PUSH1 0xE1 SHL DUP2 MSTORE PUSH1 0x4 ADD PUSH1 0x40 MLOAD DUP1 SWAP2 SUB SWAP1 REVERT JUMPDEST PUSH1 0x0 PUSH2 0x892 PUSH1 0x3 SLOAD SWAP1 JUMP JUMPDEST SWAP1 POP PUSH32 0x0 PUSH1 0x1 PUSH1 0x1 PUSH1 0xA0 SHL SUB AND PUSH4 0x3BC778E3 DUP7 PUSH32 0x0 PUSH2 0x913 DUP15 DUP15 DUP15 DUP15 PUSH1 0x40 MLOAD PUSH1 0x20 ADD PUSH2 0x8FF SWAP5 SWAP4 SWAP3 SWAP2 SWAP1 PUSH2 0xFDD JUMP JUMPDEST PUSH1 0x40 MLOAD PUSH1 0x20 DUP2 DUP4 SUB SUB DUP2 MSTORE SWAP1 PUSH1 0x40 MSTORE PUSH2 0xC62 JUMP JUMPDEST PUSH1 0x40 MLOAD PUSH12 0xFFFFFFFFFFFFFFFFFFFFFFFF NOT ADDRESS PUSH1 0x60 SHL AND PUSH1 0x20 DUP3 ADD MSTORE DUP10 SWAP1 PUSH2 0x93C SWAP1 PUSH1 0x34 ADD PUSH2 0x8FF JUMP JUMPDEST DUP10 PUSH1 0x40 MLOAD DUP8 PUSH4 0xFFFFFFFF AND PUSH1 0xE0 SHL DUP2 MSTORE PUSH1 0x4 ADD PUSH2 0x95E SWAP7 SWAP6 SWAP5 SWAP4 SWAP3 SWAP2 SWAP1 PUSH2 0x1198 JUMP JUMPDEST PUSH1 0x0 PUSH1 0x40 MLOAD DUP1 DUP4 SUB DUP2 DUP7 DUP1 EXTCODESIZE ISZERO DUP1 ISZERO PUSH2 0x976 JUMPI PUSH1 0x0 DUP1 REVERT JUMPDEST POP GAS STATICCALL ISZERO DUP1 ISZERO PUSH2 0x98A JUMPI RETURNDATASIZE PUSH1 0x0 DUP1 RETURNDATACOPY RETURNDATASIZE PUSH1 0x0 REVERT JUMPDEST POP POP POP PUSH1 0x0 DUP6 DUP2 MSTORE PUSH1 0x20 DUP2 SWAP1 MSTORE PUSH1 0x40 DUP2 KECCAK256 DUP1 SLOAD PUSH1 0xFF NOT AND PUSH1 0x1 OR SWAP1 SSTORE SWAP1 POP DUP7 PUSH2 0x9B4 JUMPI PUSH1 0x0 PUSH2 0x9B7 JUMP JUMPDEST PUSH1 0x1 JUMPDEST PUSH1 0xFF AND SWAP1 POP PUSH1 0x0 DUP11 PUSH8 0xFFFFFFFFFFFFFFFF DUP2 GT ISZERO PUSH2 0x9E5 JUMPI PUSH4 0x4E487B71 PUSH1 0xE0 SHL PUSH1 0x0 MSTORE PUSH1 0x41 PUSH1 0x4 MSTORE PUSH1 0x24 PUSH1 0x0 REVERT JUMPDEST PUSH1 0x40 MLOAD SWAP1 DUP1 DUP3 MSTORE DUP1 PUSH1 0x20 MUL PUSH1 0x20 ADD DUP3 ADD PUSH1 0x40 MSTORE DUP1 ISZERO PUSH2 0xA0E JUMPI DUP2 PUSH1 0x20 ADD PUSH1 0x20 DUP3 MUL DUP1 CALLDATASIZE DUP4 CALLDATACOPY ADD SWAP1 POP JUMPDEST POP SWAP1 POP DUP8 ISZERO PUSH2 0xA5A JUMPI CALLER DUP2 PUSH1 0x0 DUP2 MLOAD DUP2 LT PUSH2 0xA39 JUMPI PUSH4 0x4E487B71 PUSH1 0xE0 SHL PUSH1 0x0 MSTORE PUSH1 0x32 PUSH1 0x4 MSTORE PUSH1 0x24 PUSH1 0x0 REVERT JUMPDEST PUSH1 0x20 MUL PUSH1 0x20 ADD ADD SWAP1 PUSH1 0x1 PUSH1 0x1 PUSH1 0xA0 SHL SUB AND SWAP1 DUP2 PUSH1 0x1 PUSH1 0x1 PUSH1 0xA0 SHL SUB AND DUP2 MSTORE POP POP JUMPDEST PUSH1 0x40 MLOAD DUP1 PUSH2 0x1A0 ADD PUSH1 0x40 MSTORE DUP1 DUP5 DUP2 MSTORE PUSH1 0x20 ADD DUP14 DUP2 MSTORE PUSH1 0x20 ADD CALLER PUSH1 0x1 PUSH1 0x1 PUSH1 0xA0 SHL SUB AND DUP2 MSTORE PUSH1 0x20 ADD DUP13 DUP2 MSTORE PUSH1 0x20 ADD DUP4 DUP2 MSTORE PUSH1 0x20 ADD PUSH1 0x0 DUP2 MSTORE PUSH1 0x20 ADD DUP3 DUP2 MSTORE PUSH1 0x20 ADD DUP12 DUP2 MSTORE PUSH1 0x20 ADD DUP13 DUP13 PUSH2 0xAAC SWAP2 SWAP1 PUSH2 0x121D JUMP JUMPDEST PUSH2 0xAB7 SWAP1 PUSH1 0x1 PUSH2 0x1205 JUMP JUMPDEST DUP2 MSTORE PUSH1 0x20 ADD PUSH2 0xAC6 DUP12 TIMESTAMP PUSH2 0x1205 JUMP JUMPDEST DUP2 MSTORE DUP10 ISZERO ISZERO PUSH1 0x20 DUP1 DUP4 ADD SWAP2 SWAP1 SWAP2 MSTORE PUSH1 0x1 PUSH1 0x40 DUP1 DUP5 ADD DUP3 SWAP1 MSTORE PUSH1 0x0 PUSH1 0x60 SWAP1 SWAP5 ADD DUP5 SWAP1 MSTORE DUP8 DUP5 MSTORE DUP2 DUP4 MSTORE SWAP1 SWAP3 KECCAK256 DUP4 MLOAD DUP2 SSTORE DUP4 DUP3 ADD MLOAD DUP1 MLOAD SWAP2 SWAP4 PUSH2 0xB0D SWAP4 SWAP1 DUP6 ADD SWAP3 SWAP2 ADD SWAP1 PUSH2 0xC97 JUMP JUMPDEST POP PUSH1 0x40 DUP3 ADD MLOAD PUSH1 0x2 DUP3 ADD DUP1 SLOAD PUSH1 0x1 PUSH1 0x1 PUSH1 0xA0 SHL SUB NOT AND PUSH1 0x1 PUSH1 0x1 PUSH1 0xA0 SHL SUB SWAP1 SWAP3 AND SWAP2 SWAP1 SWAP2 OR SWAP1 SSTORE PUSH1 0x60 DUP3 ADD MLOAD PUSH1 0x3 DUP3 ADD SSTORE PUSH1 0x80 DUP3 ADD MLOAD PUSH1 0x4 DUP3 ADD SSTORE PUSH1 0xA0 DUP3 ADD MLOAD PUSH1 0x5 DUP3 ADD SSTORE PUSH1 0xC0 DUP3 ADD MLOAD DUP1 MLOAD PUSH2 0xB6D SWAP2 PUSH1 0x6 DUP5 ADD SWAP2 PUSH1 0x20 SWAP1 SWAP2 ADD SWAP1 PUSH2 0xD1B JUMP JUMPDEST POP PUSH1 0xE0 DUP3 ADD MLOAD PUSH1 0x7 DUP3 ADD SSTORE PUSH2 0x100 DUP1 DUP4 ADD MLOAD PUSH1 0x8 DUP4 ADD SSTORE PUSH2 0x120 DUP4 ADD MLOAD PUSH1 0x9 DUP4 ADD SSTORE PUSH2 0x140 DUP4 ADD MLOAD PUSH1 0xA SWAP1 SWAP3 ADD DUP1 SLOAD PUSH2 0x160 DUP6 ADD MLOAD PUSH2 0x180 SWAP1 SWAP6 ADD MLOAD PUSH2 0xFFFF NOT SWAP1 SWAP2 AND SWAP4 ISZERO ISZERO PUSH2 0xFF00 NOT AND SWAP4 SWAP1 SWAP4 OR SWAP4 ISZERO ISZERO SWAP1 SWAP2 MUL SWAP3 SWAP1 SWAP3 OR PUSH3 0xFF0000 NOT AND PUSH3 0x10000 SWAP2 ISZERO ISZERO SWAP2 SWAP1 SWAP2 MUL OR SWAP1 SSTORE PUSH1 0x3 DUP1 SLOAD PUSH1 0x1 ADD SWAP1 SSTORE PUSH1 0x40 DUP1 MLOAD DUP5 DUP2 MSTORE CALLER PUSH1 0x20 DUP3 ADD MSTORE PUSH32 0xA322F9BEEE28D40F70DEAE6C1C8F9EDDE1E1275FEA1EDE699DEBB1EDCAECE00F SWAP2 ADD PUSH1 0x40 MLOAD DUP1 SWAP2 SUB SWAP1 LOG1 POP SWAP1 SWAP11 SWAP10 POP POP POP POP POP POP POP POP POP POP JUMP JUMPDEST PUSH1 0x0 DUP2 DUP2 MSTORE PUSH1 0x1 PUSH1 0x20 MSTORE PUSH1 0x40 SWAP1 KECCAK256 PUSH1 0x9 ADD SLOAD TIMESTAMP GT ISZERO PUSH2 0xC5F JUMPI PUSH1 0x0 DUP2 DUP2 MSTORE PUSH1 0x1 PUSH1 0x20 MSTORE PUSH1 0x40 SWAP1 KECCAK256 PUSH1 0xA ADD DUP1 SLOAD PUSH2 0xFF00 NOT AND SWAP1 SSTORE JUMPDEST POP JUMP JUMPDEST PUSH1 0x0 PUSH1 0x8 DUP3 PUSH1 0x40 MLOAD PUSH1 0x20 ADD PUSH2 0xC77 SWAP2 SWAP1 PUSH2 0xFC1 JUMP JUMPDEST PUSH1 0x40 DUP1 MLOAD PUSH1 0x1F NOT DUP2 DUP5 SUB ADD DUP2 MSTORE SWAP2 SWAP1 MSTORE DUP1 MLOAD PUSH1 0x20 SWAP1 SWAP2 ADD KECCAK256 SWAP1 SHR SWAP3 SWAP2 POP POP JUMP JUMPDEST DUP3 DUP1 SLOAD PUSH2 0xCA3 SWAP1 PUSH2 0x126D JUMP JUMPDEST SWAP1 PUSH1 0x0 MSTORE PUSH1 0x20 PUSH1 0x0 KECCAK256 SWAP1 PUSH1 0x1F ADD PUSH1 0x20 SWAP1 DIV DUP2 ADD SWAP3 DUP3 PUSH2 0xCC5 JUMPI PUSH1 0x0 DUP6 SSTORE PUSH2 0xD0B JUMP JUMPDEST DUP3 PUSH1 0x1F LT PUSH2 0xCDE JUMPI DUP1 MLOAD PUSH1 0xFF NOT AND DUP4 DUP1 ADD OR DUP6 SSTORE PUSH2 0xD0B JUMP JUMPDEST DUP3 DUP1 ADD PUSH1 0x1 ADD DUP6 SSTORE DUP3 ISZERO PUSH2 0xD0B JUMPI SWAP2 DUP3 ADD JUMPDEST DUP3 DUP2 GT ISZERO PUSH2 0xD0B JUMPI DUP3 MLOAD DUP3 SSTORE SWAP2 PUSH1 0x20 ADD SWAP2 SWAP1 PUSH1 0x1 ADD SWAP1 PUSH2 0xCF0 JUMP JUMPDEST POP PUSH2 0xD17 SWAP3 SWAP2 POP PUSH2 0xD70 JUMP JUMPDEST POP SWAP1 JUMP JUMPDEST DUP3 DUP1 SLOAD DUP3 DUP3 SSTORE SWAP1 PUSH1 0x0 MSTORE PUSH1 0x20 PUSH1 0x0 KECCAK256 SWAP1 DUP2 ADD SWAP3 DUP3 ISZERO PUSH2 0xD0B JUMPI SWAP2 PUSH1 0x20 MUL DUP3 ADD JUMPDEST DUP3 DUP2 GT ISZERO PUSH2 0xD0B JUMPI DUP3 MLOAD DUP3 SLOAD PUSH1 0x1 PUSH1 0x1 PUSH1 0xA0 SHL SUB NOT AND PUSH1 0x1 PUSH1 0x1 PUSH1 0xA0 SHL SUB SWAP1 SWAP2 AND OR DUP3 SSTORE PUSH1 0x20 SWAP1 SWAP3 ADD SWAP2 PUSH1 0x1 SWAP1 SWAP2 ADD SWAP1 PUSH2 0xD3B JUMP JUMPDEST JUMPDEST DUP1 DUP3 GT ISZERO PUSH2 0xD17 JUMPI PUSH1 0x0 DUP2 SSTORE PUSH1 0x1 ADD PUSH2 0xD71 JUMP JUMPDEST DUP1 PUSH2 0x100 DUP2 ADD DUP4 LT ISZERO PUSH2 0xD97 JUMPI PUSH1 0x0 DUP1 REVERT JUMPDEST SWAP3 SWAP2 POP POP JUMP JUMPDEST DUP1 CALLDATALOAD DUP1 ISZERO ISZERO DUP2 EQ PUSH2 0xDAD JUMPI PUSH1 0x0 DUP1 REVERT JUMPDEST SWAP2 SWAP1 POP JUMP JUMPDEST PUSH1 0x0 PUSH1 0x20 DUP1 DUP4 DUP6 SUB SLT ISZERO PUSH2 0xDC4 JUMPI DUP2 DUP3 REVERT JUMPDEST DUP3 CALLDATALOAD PUSH8 0xFFFFFFFFFFFFFFFF DUP1 DUP3 GT ISZERO PUSH2 0xDDB JUMPI DUP4 DUP5 REVERT JUMPDEST DUP2 DUP6 ADD SWAP2 POP DUP6 PUSH1 0x1F DUP4 ADD SLT PUSH2 0xDEE JUMPI DUP4 DUP5 REVERT JUMPDEST DUP2 CALLDATALOAD DUP2 DUP2 GT ISZERO PUSH2 0xE00 JUMPI PUSH2 0xE00 PUSH2 0x12D9 JUMP JUMPDEST DUP1 PUSH1 0x5 SHL SWAP2 POP PUSH2 0xE11 DUP5 DUP4 ADD PUSH2 0x11D4 JUMP JUMPDEST DUP2 DUP2 MSTORE DUP5 DUP2 ADD SWAP1 DUP5 DUP7 ADD DUP5 DUP7 ADD DUP8 ADD DUP11 LT ISZERO PUSH2 0xE2B JUMPI DUP8 DUP9 REVERT JUMPDEST DUP8 SWAP6 POP JUMPDEST DUP4 DUP7 LT ISZERO PUSH2 0xE4D JUMPI DUP1 CALLDATALOAD DUP4 MSTORE PUSH1 0x1 SWAP6 SWAP1 SWAP6 ADD SWAP5 SWAP2 DUP7 ADD SWAP2 DUP7 ADD PUSH2 0xE2F JUMP JUMPDEST POP SWAP9 SWAP8 POP POP POP POP POP POP POP POP JUMP JUMPDEST PUSH1 0x0 DUP1 PUSH1 0x0 DUP1 PUSH1 0x0 DUP1 PUSH1 0x0 DUP1 PUSH2 0x1E0 DUP10 DUP12 SUB SLT ISZERO PUSH2 0xE76 JUMPI DUP4 DUP5 REVERT JUMPDEST DUP9 CALLDATALOAD PUSH8 0xFFFFFFFFFFFFFFFF DUP1 DUP3 GT ISZERO PUSH2 0xE8D JUMPI DUP6 DUP7 REVERT JUMPDEST DUP2 DUP12 ADD SWAP2 POP DUP12 PUSH1 0x1F DUP4 ADD SLT PUSH2 0xEA0 JUMPI DUP6 DUP7 REVERT JUMPDEST DUP2 CALLDATALOAD PUSH1 0x20 DUP3 DUP3 GT ISZERO PUSH2 0xEB4 JUMPI PUSH2 0xEB4 PUSH2 0x12D9 JUMP JUMPDEST PUSH2 0xEC6 PUSH1 0x1F DUP4 ADD PUSH1 0x1F NOT AND DUP3 ADD PUSH2 0x11D4 JUMP JUMPDEST SWAP3 POP DUP2 DUP4 MSTORE DUP14 DUP2 DUP4 DUP7 ADD ADD GT ISZERO PUSH2 0xEDB JUMPI DUP8 DUP9 REVERT JUMPDEST DUP2 DUP2 DUP6 ADD DUP3 DUP6 ADD CALLDATACOPY SWAP1 DUP3 ADD DUP2 ADD DUP8 SWAP1 MSTORE SWAP1 SWAP10 POP DUP11 ADD CALLDATALOAD SWAP8 POP POP PUSH1 0x40 DUP10 ADD CALLDATALOAD SWAP6 POP PUSH1 0x60 DUP10 ADD CALLDATALOAD SWAP5 POP PUSH2 0xF0E PUSH1 0x80 DUP11 ADD PUSH2 0xD9D JUMP JUMPDEST SWAP4 POP PUSH1 0xA0 DUP10 ADD CALLDATALOAD SWAP3 POP PUSH1 0xC0 DUP10 ADD CALLDATALOAD SWAP2 POP PUSH2 0xF2B DUP11 PUSH1 0xE0 DUP12 ADD PUSH2 0xD85 JUMP JUMPDEST SWAP1 POP SWAP3 SWAP6 SWAP9 POP SWAP3 SWAP6 SWAP9 SWAP1 SWAP4 SWAP7 POP JUMP JUMPDEST PUSH1 0x0 PUSH1 0x20 DUP3 DUP5 SUB SLT ISZERO PUSH2 0xF4B JUMPI DUP1 DUP2 REVERT JUMPDEST POP CALLDATALOAD SWAP2 SWAP1 POP JUMP JUMPDEST PUSH1 0x0 DUP2 MLOAD DUP1 DUP5 MSTORE PUSH1 0x20 DUP1 DUP6 ADD SWAP5 POP DUP1 DUP5 ADD DUP4 JUMPDEST DUP4 DUP2 LT ISZERO PUSH2 0xF8A JUMPI DUP2 MLOAD PUSH1 0x1 PUSH1 0x1 PUSH1 0xA0 SHL SUB AND DUP8 MSTORE SWAP6 DUP3 ADD SWAP6 SWAP1 DUP3 ADD SWAP1 PUSH1 0x1 ADD PUSH2 0xF65 JUMP JUMPDEST POP SWAP5 SWAP6 SWAP5 POP POP POP POP POP JUMP JUMPDEST PUSH1 0x0 DUP2 MLOAD DUP1 DUP5 MSTORE PUSH2 0xFAD DUP2 PUSH1 0x20 DUP7 ADD PUSH1 0x20 DUP7 ADD PUSH2 0x123D JUMP JUMPDEST PUSH1 0x1F ADD PUSH1 0x1F NOT AND SWAP3 SWAP1 SWAP3 ADD PUSH1 0x20 ADD SWAP3 SWAP2 POP POP JUMP JUMPDEST PUSH1 0x0 DUP3 MLOAD PUSH2 0xFD3 DUP2 DUP5 PUSH1 0x20 DUP8 ADD PUSH2 0x123D JUMP JUMPDEST SWAP2 SWAP1 SWAP2 ADD SWAP3 SWAP2 POP POP JUMP JUMPDEST PUSH1 0x0 DUP6 MLOAD PUSH2 0xFEF DUP2 DUP5 PUSH1 0x20 DUP11 ADD PUSH2 0x123D JUMP JUMPDEST SWAP2 SWAP1 SWAP2 ADD SWAP4 DUP5 MSTORE POP PUSH1 0x20 DUP4 ADD SWAP2 SWAP1 SWAP2 MSTORE PUSH1 0x40 DUP3 ADD MSTORE PUSH1 0x60 ADD SWAP2 SWAP1 POP JUMP JUMPDEST PUSH1 0x0 PUSH1 0x20 DUP1 DUP4 ADD DUP2 DUP5 MSTORE DUP1 DUP6 MLOAD DUP1 DUP4 MSTORE PUSH1 0x40 SWAP3 POP DUP3 DUP7 ADD SWAP2 POP DUP3 DUP2 PUSH1 0x5 SHL DUP8 ADD ADD DUP5 DUP9 ADD DUP7 JUMPDEST DUP4 DUP2 LT ISZERO PUSH2 0x1110 JUMPI PUSH1 0x3F NOT DUP10 DUP5 SUB ADD DUP6 MSTORE DUP2 MLOAD PUSH2 0x1A0 DUP2 MLOAD DUP6 MSTORE DUP9 DUP3 ADD MLOAD DUP2 DUP11 DUP8 ADD MSTORE PUSH2 0x1061 DUP3 DUP8 ADD DUP3 PUSH2 0xF95 JUMP JUMPDEST SWAP2 POP POP DUP8 DUP3 ADD MLOAD PUSH2 0x107C DUP10 DUP8 ADD DUP3 PUSH1 0x1 PUSH1 0x1 PUSH1 0xA0 SHL SUB AND SWAP1 MSTORE JUMP JUMPDEST POP PUSH1 0x60 DUP3 DUP2 ADD MLOAD SWAP1 DUP7 ADD MSTORE PUSH1 0x80 DUP1 DUP4 ADD MLOAD SWAP1 DUP7 ADD MSTORE PUSH1 0xA0 DUP1 DUP4 ADD MLOAD SWAP1 DUP7 ADD MSTORE PUSH1 0xC0 DUP1 DUP4 ADD MLOAD DUP7 DUP4 SUB DUP3 DUP9 ADD MSTORE PUSH2 0x10B2 DUP4 DUP3 PUSH2 0xF52 JUMP JUMPDEST PUSH1 0xE0 DUP6 DUP2 ADD MLOAD SWAP1 DUP10 ADD MSTORE PUSH2 0x100 DUP1 DUP7 ADD MLOAD SWAP1 DUP10 ADD MSTORE PUSH2 0x120 DUP1 DUP7 ADD MLOAD SWAP1 DUP10 ADD MSTORE PUSH2 0x140 DUP1 DUP7 ADD MLOAD ISZERO ISZERO SWAP1 DUP10 ADD MSTORE PUSH2 0x160 DUP1 DUP7 ADD MLOAD ISZERO ISZERO SWAP1 DUP10 ADD MSTORE PUSH2 0x180 SWAP5 DUP6 ADD MLOAD ISZERO ISZERO SWAP5 SWAP1 SWAP8 ADD SWAP4 SWAP1 SWAP4 MSTORE POP POP POP SWAP4 DUP7 ADD SWAP4 SWAP1 DUP7 ADD SWAP1 PUSH1 0x1 ADD PUSH2 0x1032 JUMP JUMPDEST POP SWAP1 SWAP9 SWAP8 POP POP POP POP POP POP POP POP JUMP JUMPDEST PUSH1 0x0 PUSH2 0x180 DUP15 DUP4 MSTORE DUP1 PUSH1 0x20 DUP5 ADD MSTORE PUSH2 0x1138 DUP2 DUP5 ADD DUP16 PUSH2 0xF95 JUMP JUMPDEST PUSH1 0x1 PUSH1 0x1 PUSH1 0xA0 SHL SUB SWAP14 SWAP1 SWAP14 AND PUSH1 0x40 DUP5 ADD MSTORE POP POP PUSH1 0x60 DUP2 ADD SWAP10 SWAP1 SWAP10 MSTORE PUSH1 0x80 DUP10 ADD SWAP8 SWAP1 SWAP8 MSTORE PUSH1 0xA0 DUP9 ADD SWAP6 SWAP1 SWAP6 MSTORE PUSH1 0xC0 DUP8 ADD SWAP4 SWAP1 SWAP4 MSTORE PUSH1 0xE0 DUP7 ADD SWAP2 SWAP1 SWAP2 MSTORE PUSH2 0x100 DUP6 ADD MSTORE ISZERO ISZERO PUSH2 0x120 DUP5 ADD MSTORE ISZERO ISZERO PUSH2 0x140 DUP4 ADD MSTORE ISZERO ISZERO PUSH2 0x160 SWAP1 SWAP2 ADD MSTORE SWAP3 SWAP2 POP POP JUMP JUMPDEST PUSH1 0x0 PUSH2 0x1A0 DUP3 ADD SWAP1 POP DUP8 DUP3 MSTORE DUP7 PUSH1 0x20 DUP4 ADD MSTORE DUP6 PUSH1 0x40 DUP4 ADD MSTORE DUP5 PUSH1 0x60 DUP4 ADD MSTORE DUP4 PUSH1 0x80 DUP4 ADD MSTORE PUSH2 0x100 DUP4 PUSH1 0xA0 DUP5 ADD CALLDATACOPY PUSH1 0x0 DUP2 MSTORE SWAP8 SWAP7 POP POP POP POP POP POP POP JUMP JUMPDEST PUSH1 0x40 MLOAD PUSH1 0x1F DUP3 ADD PUSH1 0x1F NOT AND DUP2 ADD PUSH8 0xFFFFFFFFFFFFFFFF DUP2 GT DUP3 DUP3 LT OR ISZERO PUSH2 0x11FD JUMPI PUSH2 0x11FD PUSH2 0x12D9 JUMP JUMPDEST PUSH1 0x40 MSTORE SWAP2 SWAP1 POP JUMP JUMPDEST PUSH1 0x0 DUP3 NOT DUP3 GT ISZERO PUSH2 0x1218 JUMPI PUSH2 0x1218 PUSH2 0x12C3 JUMP JUMPDEST POP ADD SWAP1 JUMP JUMPDEST PUSH1 0x0 DUP3 PUSH2 0x1238 JUMPI PUSH4 0x4E487B71 PUSH1 0xE0 SHL DUP2 MSTORE PUSH1 0x12 PUSH1 0x4 MSTORE PUSH1 0x24 DUP2 REVERT JUMPDEST POP DIV SWAP1 JUMP JUMPDEST PUSH1 0x0 JUMPDEST DUP4 DUP2 LT ISZERO PUSH2 0x1258 JUMPI DUP2 DUP2 ADD MLOAD DUP4 DUP3 ADD MSTORE PUSH1 0x20 ADD PUSH2 0x1240 JUMP JUMPDEST DUP4 DUP2 GT ISZERO PUSH2 0x1267 JUMPI PUSH1 0x0 DUP5 DUP5 ADD MSTORE JUMPDEST POP POP POP POP JUMP JUMPDEST PUSH1 0x1 DUP2 DUP2 SHR SWAP1 DUP3 AND DUP1 PUSH2 0x1281 JUMPI PUSH1 0x7F DUP3 AND SWAP2 POP JUMPDEST PUSH1 0x20 DUP3 LT DUP2 EQ ISZERO PUSH2 0x12A2 JUMPI PUSH4 0x4E487B71 PUSH1 0xE0 SHL PUSH1 0x0 MSTORE PUSH1 0x22 PUSH1 0x4 MSTORE PUSH1 0x24 PUSH1 0x0 REVERT JUMPDEST POP SWAP2 SWAP1 POP JUMP JUMPDEST PUSH1 0x0 PUSH1 0x0 NOT DUP3 EQ ISZERO PUSH2 0x12BC JUMPI PUSH2 0x12BC PUSH2 0x12C3 JUMP JUMPDEST POP PUSH1 0x1 ADD SWAP1 JUMP JUMPDEST PUSH4 0x4E487B71 PUSH1 0xE0 SHL PUSH1 0x0 MSTORE PUSH1 0x11 PUSH1 0x4 MSTORE PUSH1 0x24 PUSH1 0x0 REVERT JUMPDEST PUSH4 0x4E487B71 PUSH1 0xE0 SHL PUSH1 0x0 MSTORE PUSH1 0x41 PUSH1 0x4 MSTORE PUSH1 0x24 PUSH1 0x0 REVERT INVALID LOG2 PUSH5 0x6970667358 0x22 SLT KECCAK256 0xF9 0x4A DUP11 PUSH30 0xCD0CCB1F5B4B86B8622278A4E0C2974BB8665145AF4A421695ED62EB6473 PUSH16 0x6C634300080400330000000000000000 "
        },
        "gasEstimates": {
          "creation": {
            "codeDepositCost": "980200",
            "executionCost": "infinite",
            "totalCost": "infinite"
          },
          "external": {
            "checkDeadlines()": "infinite",
            "getShortStays(uint256[])": "infinite",
            "joinShortStay(uint256)": "113888",
            "owner()": "1082",
            "proposeShortStay(string,uint256,uint256,uint256,bool,uint256,uint256,uint256[8])": "infinite",
            "stayId()": "1010",
            "stays(uint256)": "infinite"
          },
          "internal": {
            "checkSingleDeadline(uint256)": "21804"
          }
        },
        "methodIdentifiers": {
          "checkDeadlines()": "a47a97e4",
          "getShortStays(uint256[])": "c7943c67",
          "joinShortStay(uint256)": "61d52920",
          "owner()": "8da5cb5b",
          "proposeShortStay(string,uint256,uint256,uint256,bool,uint256,uint256,uint256[8])": "cfc454c8",
          "stayId()": "68d06601",
          "stays(uint256)": "c382e39a"
        }
      },
      "storageLayout": {
        "storage": [
          {
            "astId": 1143,
            "contract": "contracts/NomadicWorldCoin.sol:NomadicWorldCoin",
            "label": "nullifierHashes",
            "offset": 0,
            "slot": "0",
            "type": "t_mapping(t_uint256,t_bool)"
          },
          {
            "astId": 1183,
            "contract": "contracts/NomadicWorldCoin.sol:NomadicWorldCoin",
            "label": "stays",
            "offset": 0,
            "slot": "1",
            "type": "t_mapping(t_uint256,t_struct(ShortStay)1178_storage)"
          },
          {
            "astId": 1185,
            "contract": "contracts/NomadicWorldCoin.sol:NomadicWorldCoin",
            "label": "owner",
            "offset": 0,
            "slot": "2",
            "type": "t_address"
          },
          {
            "astId": 1188,
            "contract": "contracts/NomadicWorldCoin.sol:NomadicWorldCoin",
            "label": "stayId",
            "offset": 0,
            "slot": "3",
            "type": "t_struct(Counter)5_storage"
          }
        ],
        "types": {
          "t_address": {
            "encoding": "inplace",
            "label": "address",
            "numberOfBytes": "20"
          },
          "t_array(t_address)dyn_storage": {
            "base": "t_address",
            "encoding": "dynamic_array",
            "label": "address[]",
            "numberOfBytes": "32"
          },
          "t_bool": {
            "encoding": "inplace",
            "label": "bool",
            "numberOfBytes": "1"
          },
          "t_mapping(t_uint256,t_bool)": {
            "encoding": "mapping",
            "key": "t_uint256",
            "label": "mapping(uint256 => bool)",
            "numberOfBytes": "32",
            "value": "t_bool"
          },
          "t_mapping(t_uint256,t_struct(ShortStay)1178_storage)": {
            "encoding": "mapping",
            "key": "t_uint256",
            "label": "mapping(uint256 => struct NomadicWorldCoin.ShortStay)",
            "numberOfBytes": "32",
            "value": "t_struct(ShortStay)1178_storage"
          },
          "t_string_storage": {
            "encoding": "bytes",
            "label": "string",
            "numberOfBytes": "32"
          },
          "t_struct(Counter)5_storage": {
            "encoding": "inplace",
            "label": "struct Counters.Counter",
            "members": [
              {
                "astId": 4,
                "contract": "contracts/NomadicWorldCoin.sol:NomadicWorldCoin",
                "label": "_value",
                "offset": 0,
                "slot": "0",
                "type": "t_uint256"
              }
            ],
            "numberOfBytes": "32"
          },
          "t_struct(ShortStay)1178_storage": {
            "encoding": "inplace",
            "label": "struct NomadicWorldCoin.ShortStay",
            "members": [
              {
                "astId": 1152,
                "contract": "contracts/NomadicWorldCoin.sol:NomadicWorldCoin",
                "label": "id",
                "offset": 0,
                "slot": "0",
                "type": "t_uint256"
              },
              {
                "astId": 1154,
                "contract": "contracts/NomadicWorldCoin.sol:NomadicWorldCoin",
                "label": "descriptionURI",
                "offset": 0,
                "slot": "1",
                "type": "t_string_storage"
              },
              {
                "astId": 1156,
                "contract": "contracts/NomadicWorldCoin.sol:NomadicWorldCoin",
                "label": "trustee",
                "offset": 0,
                "slot": "2",
                "type": "t_address"
              },
              {
                "astId": 1158,
                "contract": "contracts/NomadicWorldCoin.sol:NomadicWorldCoin",
                "label": "nPersons",
                "offset": 0,
                "slot": "3",
                "type": "t_uint256"
              },
              {
                "astId": 1160,
                "contract": "contracts/NomadicWorldCoin.sol:NomadicWorldCoin",
                "label": "slotsReserved",
                "offset": 0,
                "slot": "4",
                "type": "t_uint256"
              },
              {
                "astId": 1162,
                "contract": "contracts/NomadicWorldCoin.sol:NomadicWorldCoin",
                "label": "amountFunded",
                "offset": 0,
                "slot": "5",
                "type": "t_uint256"
              },
              {
                "astId": 1165,
                "contract": "contracts/NomadicWorldCoin.sol:NomadicWorldCoin",
                "label": "members",
                "offset": 0,
                "slot": "6",
                "type": "t_array(t_address)dyn_storage"
              },
              {
                "astId": 1167,
                "contract": "contracts/NomadicWorldCoin.sol:NomadicWorldCoin",
                "label": "totalPrice",
                "offset": 0,
                "slot": "7",
                "type": "t_uint256"
              },
              {
                "astId": 1169,
                "contract": "contracts/NomadicWorldCoin.sol:NomadicWorldCoin",
                "label": "pricePerPerson",
                "offset": 0,
                "slot": "8",
                "type": "t_uint256"
              },
              {
                "astId": 1171,
                "contract": "contracts/NomadicWorldCoin.sol:NomadicWorldCoin",
                "label": "deadline",
                "offset": 0,
                "slot": "9",
                "type": "t_uint256"
              },
              {
                "astId": 1173,
                "contract": "contracts/NomadicWorldCoin.sol:NomadicWorldCoin",
                "label": "isCreatorSlot",
                "offset": 0,
                "slot": "10",
                "type": "t_bool"
              },
              {
                "astId": 1175,
                "contract": "contracts/NomadicWorldCoin.sol:NomadicWorldCoin",
                "label": "isActive",
                "offset": 1,
                "slot": "10",
                "type": "t_bool"
              },
              {
                "astId": 1177,
                "contract": "contracts/NomadicWorldCoin.sol:NomadicWorldCoin",
                "label": "isFull",
                "offset": 2,
                "slot": "10",
                "type": "t_bool"
              }
            ],
            "numberOfBytes": "352"
          },
          "t_uint256": {
            "encoding": "inplace",
            "label": "uint256",
            "numberOfBytes": "32"
          }
        }
      },
      "userdoc": {
        "errors": {
          "InvalidNullifier()": [
            {
              "notice": "Thrown when attempting to reuse a nullifier"
            }
          ]
        },
        "kind": "user",
        "methods": {},
        "version": 1
      }
    }
  }
}