{
  "contracts/HackerHouseDAO.sol": {
    "HackerHouseDAO": {
      "abi": [
        {
          "inputs": [
            {
              "internalType": "uint256",
              "name": "",
              "type": "uint256"
            }
          ],
          "name": "coreTeam",
          "outputs": [
            {
              "internalType": "address",
              "name": "",
              "type": "address"
            }
          ],
          "stateMutability": "view",
          "type": "function"
        },
        {
          "inputs": [],
          "name": "descriptionURI",
          "outputs": [
            {
              "internalType": "string",
              "name": "",
              "type": "string"
            }
          ],
          "stateMutability": "view",
          "type": "function"
        },
        {
          "inputs": [
            {
              "internalType": "address",
              "name": "_parentAddress",
              "type": "address"
            },
            {
              "internalType": "uint256",
              "name": "_id",
              "type": "uint256"
            },
            {
              "internalType": "address[]",
              "name": "_coreTeam",
              "type": "address[]"
            },
            {
              "internalType": "string",
              "name": "_name",
              "type": "string"
            },
            {
              "internalType": "string",
              "name": "_descriptionURI",
              "type": "string"
            }
          ],
          "name": "initialize",
          "outputs": [],
          "stateMutability": "nonpayable",
          "type": "function"
        },
        {
          "inputs": [],
          "name": "initialized",
          "outputs": [
            {
              "internalType": "bool",
              "name": "",
              "type": "bool"
            }
          ],
          "stateMutability": "view",
          "type": "function"
        },
        {
          "inputs": [],
          "name": "membershipPrice",
          "outputs": [
            {
              "internalType": "uint256",
              "name": "",
              "type": "uint256"
            }
          ],
          "stateMutability": "view",
          "type": "function"
        },
        {
          "inputs": [],
          "name": "name",
          "outputs": [
            {
              "internalType": "string",
              "name": "",
              "type": "string"
            }
          ],
          "stateMutability": "view",
          "type": "function"
        },
        {
          "inputs": [],
          "name": "parentAddress",
          "outputs": [
            {
              "internalType": "address",
              "name": "",
              "type": "address"
            }
          ],
          "stateMutability": "view",
          "type": "function"
        }
      ],
      "devdoc": {
        "kind": "dev",
        "methods": {},
        "version": 1
      },
      "evm": {
        "bytecode": {
          "linkReferences": {},
          "object": "60806040526006805460ff1916905534801561001a57600080fd5b506106568061002a6000396000f3fe608060405234801561001057600080fd5b506004361061007c5760003560e01c806314a88d611161005b57806314a88d61146100dd578063158ef93e146100f2578063846198561461010f578063f1d2f93c1461011757600080fd5b8062821de31461008157806306fdde03146100b15780630de3226b146100c6575b600080fd5b600054610094906001600160a01b031681565b6040516001600160a01b0390911681526020015b60405180910390f35b6100b961012a565b6040516100a8919061054b565b6100cf60055481565b6040519081526020016100a8565b6100f06100eb366004610423565b6101b8565b005b6006546100ff9060ff1681565b60405190151581526020016100a8565b6100b9610277565b610094610125366004610533565b610284565b60028054610137906105cf565b80601f0160208091040260200160405190810160405280929190818152602001828054610163906105cf565b80156101b05780601f10610185576101008083540402835291602001916101b0565b820191906000526020600020905b81548152906001019060200180831161019357829003601f168201915b505050505081565b60065460ff16156102055760405162461bcd60e51b8152602060048201526013602482015272105b1c9958591e481a5b9a5d1a585b1a5e9959606a1b604482015260640160405180910390fd5b60068054600160ff199091168117909155600080546001600160a01b0319166001600160a01b03881617905584905582516102479060049060208601906102ae565b50815161025b906002906020850190610313565b50805161026f906003906020840190610313565b505050505050565b60038054610137906105cf565b6004818154811061029457600080fd5b6000918252602090912001546001600160a01b0316905081565b828054828255906000526020600020908101928215610303579160200282015b8281111561030357825182546001600160a01b0319166001600160a01b039091161782556020909201916001909101906102ce565b5061030f929150610387565b5090565b82805461031f906105cf565b90600052602060002090601f0160209004810192826103415760008555610303565b82601f1061035a57805160ff1916838001178555610303565b82800160010185558215610303579182015b8281111561030357825182559160200191906001019061036c565b5b8082111561030f5760008155600101610388565b80356001600160a01b03811681146103b357600080fd5b919050565b600082601f8301126103c8578081fd5b813567ffffffffffffffff8111156103e2576103e261060a565b6103f5601f8201601f191660200161059e565b818152846020838601011115610409578283fd5b816020850160208301379081016020019190915292915050565b600080600080600060a0868803121561043a578081fd5b6104438661039c565b94506020808701359450604087013567ffffffffffffffff80821115610467578384fd5b818901915089601f83011261047a578384fd5b81358181111561048c5761048c61060a565b8060051b61049b85820161059e565b8281528581019085870183870188018f10156104b5578889fd5b8896505b848710156104de576104ca8161039c565b8352600196909601959187019187016104b9565b50985050505060608901359250808311156104f7578384fd5b6105038a848b016103b8565b94506080890135925080831115610518578384fd5b5050610526888289016103b8565b9150509295509295909350565b600060208284031215610544578081fd5b5035919050565b6000602080835283518082850152825b818110156105775785810183015185820160400152820161055b565b818111156105885783604083870101525b50601f01601f1916929092016040019392505050565b604051601f8201601f1916810167ffffffffffffffff811182821017156105c7576105c761060a565b604052919050565b600181811c908216806105e357607f821691505b6020821081141561060457634e487b7160e01b600052602260045260246000fd5b50919050565b634e487b7160e01b600052604160045260246000fdfea2646970667358221220c9ca527fd0cb6cbb2eef7a64d252ae0d49fe9dcbe741fafbab43278fb902c21864736f6c63430008040033",
          "opcodes": "PUSH1 0x80 PUSH1 0x40 MSTORE PUSH1 0x6 DUP1 SLOAD PUSH1 0xFF NOT AND SWAP1 SSTORE CALLVALUE DUP1 ISZERO PUSH2 0x1A JUMPI PUSH1 0x0 DUP1 REVERT JUMPDEST POP PUSH2 0x656 DUP1 PUSH2 0x2A PUSH1 0x0 CODECOPY PUSH1 0x0 RETURN INVALID PUSH1 0x80 PUSH1 0x40 MSTORE CALLVALUE DUP1 ISZERO PUSH2 0x10 JUMPI PUSH1 0x0 DUP1 REVERT JUMPDEST POP PUSH1 0x4 CALLDATASIZE LT PUSH2 0x7C JUMPI PUSH1 0x0 CALLDATALOAD PUSH1 0xE0 SHR DUP1 PUSH4 0x14A88D61 GT PUSH2 0x5B JUMPI DUP1 PUSH4 0x14A88D61 EQ PUSH2 0xDD JUMPI DUP1 PUSH4 0x158EF93E EQ PUSH2 0xF2 JUMPI DUP1 PUSH4 0x84619856 EQ PUSH2 0x10F JUMPI DUP1 PUSH4 0xF1D2F93C EQ PUSH2 0x117 JUMPI PUSH1 0x0 DUP1 REVERT JUMPDEST DUP1 PUSH3 0x821DE3 EQ PUSH2 0x81 JUMPI DUP1 PUSH4 0x6FDDE03 EQ PUSH2 0xB1 JUMPI DUP1 PUSH4 0xDE3226B EQ PUSH2 0xC6 JUMPI JUMPDEST PUSH1 0x0 DUP1 REVERT JUMPDEST PUSH1 0x0 SLOAD PUSH2 0x94 SWAP1 PUSH1 0x1 PUSH1 0x1 PUSH1 0xA0 SHL SUB AND DUP2 JUMP JUMPDEST PUSH1 0x40 MLOAD PUSH1 0x1 PUSH1 0x1 PUSH1 0xA0 SHL SUB SWAP1 SWAP2 AND DUP2 MSTORE PUSH1 0x20 ADD JUMPDEST PUSH1 0x40 MLOAD DUP1 SWAP2 SUB SWAP1 RETURN JUMPDEST PUSH2 0xB9 PUSH2 0x12A JUMP JUMPDEST PUSH1 0x40 MLOAD PUSH2 0xA8 SWAP2 SWAP1 PUSH2 0x54B JUMP JUMPDEST PUSH2 0xCF PUSH1 0x5 SLOAD DUP2 JUMP JUMPDEST PUSH1 0x40 MLOAD SWAP1 DUP2 MSTORE PUSH1 0x20 ADD PUSH2 0xA8 JUMP JUMPDEST PUSH2 0xF0 PUSH2 0xEB CALLDATASIZE PUSH1 0x4 PUSH2 0x423 JUMP JUMPDEST PUSH2 0x1B8 JUMP JUMPDEST STOP JUMPDEST PUSH1 0x6 SLOAD PUSH2 0xFF SWAP1 PUSH1 0xFF AND DUP2 JUMP JUMPDEST PUSH1 0x40 MLOAD SWAP1 ISZERO ISZERO DUP2 MSTORE PUSH1 0x20 ADD PUSH2 0xA8 JUMP JUMPDEST PUSH2 0xB9 PUSH2 0x277 JUMP JUMPDEST PUSH2 0x94 PUSH2 0x125 CALLDATASIZE PUSH1 0x4 PUSH2 0x533 JUMP JUMPDEST PUSH2 0x284 JUMP JUMPDEST PUSH1 0x2 DUP1 SLOAD PUSH2 0x137 SWAP1 PUSH2 0x5CF JUMP JUMPDEST DUP1 PUSH1 0x1F ADD PUSH1 0x20 DUP1 SWAP2 DIV MUL PUSH1 0x20 ADD PUSH1 0x40 MLOAD SWAP1 DUP2 ADD PUSH1 0x40 MSTORE DUP1 SWAP3 SWAP2 SWAP1 DUP2 DUP2 MSTORE PUSH1 0x20 ADD DUP3 DUP1 SLOAD PUSH2 0x163 SWAP1 PUSH2 0x5CF JUMP JUMPDEST DUP1 ISZERO PUSH2 0x1B0 JUMPI DUP1 PUSH1 0x1F LT PUSH2 0x185 JUMPI PUSH2 0x100 DUP1 DUP4 SLOAD DIV MUL DUP4 MSTORE SWAP2 PUSH1 0x20 ADD SWAP2 PUSH2 0x1B0 JUMP JUMPDEST DUP3 ADD SWAP2 SWAP1 PUSH1 0x0 MSTORE PUSH1 0x20 PUSH1 0x0 KECCAK256 SWAP1 JUMPDEST DUP2 SLOAD DUP2 MSTORE SWAP1 PUSH1 0x1 ADD SWAP1 PUSH1 0x20 ADD DUP1 DUP4 GT PUSH2 0x193 JUMPI DUP3 SWAP1 SUB PUSH1 0x1F AND DUP3 ADD SWAP2 JUMPDEST POP POP POP POP POP DUP2 JUMP JUMPDEST PUSH1 0x6 SLOAD PUSH1 0xFF AND ISZERO PUSH2 0x205 JUMPI PUSH1 0x40 MLOAD PUSH3 0x461BCD PUSH1 0xE5 SHL DUP2 MSTORE PUSH1 0x20 PUSH1 0x4 DUP3 ADD MSTORE PUSH1 0x13 PUSH1 0x24 DUP3 ADD MSTORE PUSH19 0x105B1C9958591E481A5B9A5D1A585B1A5E9959 PUSH1 0x6A SHL PUSH1 0x44 DUP3 ADD MSTORE PUSH1 0x64 ADD PUSH1 0x40 MLOAD DUP1 SWAP2 SUB SWAP1 REVERT JUMPDEST PUSH1 0x6 DUP1 SLOAD PUSH1 0x1 PUSH1 0xFF NOT SWAP1 SWAP2 AND DUP2 OR SWAP1 SWAP2 SSTORE PUSH1 0x0 DUP1 SLOAD PUSH1 0x1 PUSH1 0x1 PUSH1 0xA0 SHL SUB NOT AND PUSH1 0x1 PUSH1 0x1 PUSH1 0xA0 SHL SUB DUP9 AND OR SWAP1 SSTORE DUP5 SWAP1 SSTORE DUP3 MLOAD PUSH2 0x247 SWAP1 PUSH1 0x4 SWAP1 PUSH1 0x20 DUP7 ADD SWAP1 PUSH2 0x2AE JUMP JUMPDEST POP DUP2 MLOAD PUSH2 0x25B SWAP1 PUSH1 0x2 SWAP1 PUSH1 0x20 DUP6 ADD SWAP1 PUSH2 0x313 JUMP JUMPDEST POP DUP1 MLOAD PUSH2 0x26F SWAP1 PUSH1 0x3 SWAP1 PUSH1 0x20 DUP5 ADD SWAP1 PUSH2 0x313 JUMP JUMPDEST POP POP POP POP POP POP JUMP JUMPDEST PUSH1 0x3 DUP1 SLOAD PUSH2 0x137 SWAP1 PUSH2 0x5CF JUMP JUMPDEST PUSH1 0x4 DUP2 DUP2 SLOAD DUP2 LT PUSH2 0x294 JUMPI PUSH1 0x0 DUP1 REVERT JUMPDEST PUSH1 0x0 SWAP2 DUP3 MSTORE PUSH1 0x20 SWAP1 SWAP2 KECCAK256 ADD SLOAD PUSH1 0x1 PUSH1 0x1 PUSH1 0xA0 SHL SUB AND SWAP1 POP DUP2 JUMP JUMPDEST DUP3 DUP1 SLOAD DUP3 DUP3 SSTORE SWAP1 PUSH1 0x0 MSTORE PUSH1 0x20 PUSH1 0x0 KECCAK256 SWAP1 DUP2 ADD SWAP3 DUP3 ISZERO PUSH2 0x303 JUMPI SWAP2 PUSH1 0x20 MUL DUP3 ADD JUMPDEST DUP3 DUP2 GT ISZERO PUSH2 0x303 JUMPI DUP3 MLOAD DUP3 SLOAD PUSH1 0x1 PUSH1 0x1 PUSH1 0xA0 SHL SUB NOT AND PUSH1 0x1 PUSH1 0x1 PUSH1 0xA0 SHL SUB SWAP1 SWAP2 AND OR DUP3 SSTORE PUSH1 0x20 SWAP1 SWAP3 ADD SWAP2 PUSH1 0x1 SWAP1 SWAP2 ADD SWAP1 PUSH2 0x2CE JUMP JUMPDEST POP PUSH2 0x30F SWAP3 SWAP2 POP PUSH2 0x387 JUMP JUMPDEST POP SWAP1 JUMP JUMPDEST DUP3 DUP1 SLOAD PUSH2 0x31F SWAP1 PUSH2 0x5CF JUMP JUMPDEST SWAP1 PUSH1 0x0 MSTORE PUSH1 0x20 PUSH1 0x0 KECCAK256 SWAP1 PUSH1 0x1F ADD PUSH1 0x20 SWAP1 DIV DUP2 ADD SWAP3 DUP3 PUSH2 0x341 JUMPI PUSH1 0x0 DUP6 SSTORE PUSH2 0x303 JUMP JUMPDEST DUP3 PUSH1 0x1F LT PUSH2 0x35A JUMPI DUP1 MLOAD PUSH1 0xFF NOT AND DUP4 DUP1 ADD OR DUP6 SSTORE PUSH2 0x303 JUMP JUMPDEST DUP3 DUP1 ADD PUSH1 0x1 ADD DUP6 SSTORE DUP3 ISZERO PUSH2 0x303 JUMPI SWAP2 DUP3 ADD JUMPDEST DUP3 DUP2 GT ISZERO PUSH2 0x303 JUMPI DUP3 MLOAD DUP3 SSTORE SWAP2 PUSH1 0x20 ADD SWAP2 SWAP1 PUSH1 0x1 ADD SWAP1 PUSH2 0x36C JUMP JUMPDEST JUMPDEST DUP1 DUP3 GT ISZERO PUSH2 0x30F JUMPI PUSH1 0x0 DUP2 SSTORE PUSH1 0x1 ADD PUSH2 0x388 JUMP JUMPDEST DUP1 CALLDATALOAD PUSH1 0x1 PUSH1 0x1 PUSH1 0xA0 SHL SUB DUP2 AND DUP2 EQ PUSH2 0x3B3 JUMPI PUSH1 0x0 DUP1 REVERT JUMPDEST SWAP2 SWAP1 POP JUMP JUMPDEST PUSH1 0x0 DUP3 PUSH1 0x1F DUP4 ADD SLT PUSH2 0x3C8 JUMPI DUP1 DUP2 REVERT JUMPDEST DUP2 CALLDATALOAD PUSH8 0xFFFFFFFFFFFFFFFF DUP2 GT ISZERO PUSH2 0x3E2 JUMPI PUSH2 0x3E2 PUSH2 0x60A JUMP JUMPDEST PUSH2 0x3F5 PUSH1 0x1F DUP3 ADD PUSH1 0x1F NOT AND PUSH1 0x20 ADD PUSH2 0x59E JUMP JUMPDEST DUP2 DUP2 MSTORE DUP5 PUSH1 0x20 DUP4 DUP7 ADD ADD GT ISZERO PUSH2 0x409 JUMPI DUP3 DUP4 REVERT JUMPDEST DUP2 PUSH1 0x20 DUP6 ADD PUSH1 0x20 DUP4 ADD CALLDATACOPY SWAP1 DUP2 ADD PUSH1 0x20 ADD SWAP2 SWAP1 SWAP2 MSTORE SWAP3 SWAP2 POP POP JUMP JUMPDEST PUSH1 0x0 DUP1 PUSH1 0x0 DUP1 PUSH1 0x0 PUSH1 0xA0 DUP7 DUP9 SUB SLT ISZERO PUSH2 0x43A JUMPI DUP1 DUP2 REVERT JUMPDEST PUSH2 0x443 DUP7 PUSH2 0x39C JUMP JUMPDEST SWAP5 POP PUSH1 0x20 DUP1 DUP8 ADD CALLDATALOAD SWAP5 POP PUSH1 0x40 DUP8 ADD CALLDATALOAD PUSH8 0xFFFFFFFFFFFFFFFF DUP1 DUP3 GT ISZERO PUSH2 0x467 JUMPI DUP4 DUP5 REVERT JUMPDEST DUP2 DUP10 ADD SWAP2 POP DUP10 PUSH1 0x1F DUP4 ADD SLT PUSH2 0x47A JUMPI DUP4 DUP5 REVERT JUMPDEST DUP2 CALLDATALOAD DUP2 DUP2 GT ISZERO PUSH2 0x48C JUMPI PUSH2 0x48C PUSH2 0x60A JUMP JUMPDEST DUP1 PUSH1 0x5 SHL PUSH2 0x49B DUP6 DUP3 ADD PUSH2 0x59E JUMP JUMPDEST DUP3 DUP2 MSTORE DUP6 DUP2 ADD SWAP1 DUP6 DUP8 ADD DUP4 DUP8 ADD DUP9 ADD DUP16 LT ISZERO PUSH2 0x4B5 JUMPI DUP9 DUP10 REVERT JUMPDEST DUP9 SWAP7 POP JUMPDEST DUP5 DUP8 LT ISZERO PUSH2 0x4DE JUMPI PUSH2 0x4CA DUP2 PUSH2 0x39C JUMP JUMPDEST DUP4 MSTORE PUSH1 0x1 SWAP7 SWAP1 SWAP7 ADD SWAP6 SWAP2 DUP8 ADD SWAP2 DUP8 ADD PUSH2 0x4B9 JUMP JUMPDEST POP SWAP9 POP POP POP POP PUSH1 0x60 DUP10 ADD CALLDATALOAD SWAP3 POP DUP1 DUP4 GT ISZERO PUSH2 0x4F7 JUMPI DUP4 DUP5 REVERT JUMPDEST PUSH2 0x503 DUP11 DUP5 DUP12 ADD PUSH2 0x3B8 JUMP JUMPDEST SWAP5 POP PUSH1 0x80 DUP10 ADD CALLDATALOAD SWAP3 POP DUP1 DUP4 GT ISZERO PUSH2 0x518 JUMPI DUP4 DUP5 REVERT JUMPDEST POP POP PUSH2 0x526 DUP9 DUP3 DUP10 ADD PUSH2 0x3B8 JUMP JUMPDEST SWAP2 POP POP SWAP3 SWAP6 POP SWAP3 SWAP6 SWAP1 SWAP4 POP JUMP JUMPDEST PUSH1 0x0 PUSH1 0x20 DUP3 DUP5 SUB SLT ISZERO PUSH2 0x544 JUMPI DUP1 DUP2 REVERT JUMPDEST POP CALLDATALOAD SWAP2 SWAP1 POP JUMP JUMPDEST PUSH1 0x0 PUSH1 0x20 DUP1 DUP4 MSTORE DUP4 MLOAD DUP1 DUP3 DUP6 ADD MSTORE DUP3 JUMPDEST DUP2 DUP2 LT ISZERO PUSH2 0x577 JUMPI DUP6 DUP2 ADD DUP4 ADD MLOAD DUP6 DUP3 ADD PUSH1 0x40 ADD MSTORE DUP3 ADD PUSH2 0x55B JUMP JUMPDEST DUP2 DUP2 GT ISZERO PUSH2 0x588 JUMPI DUP4 PUSH1 0x40 DUP4 DUP8 ADD ADD MSTORE JUMPDEST POP PUSH1 0x1F ADD PUSH1 0x1F NOT AND SWAP3 SWAP1 SWAP3 ADD PUSH1 0x40 ADD SWAP4 SWAP3 POP POP POP JUMP JUMPDEST PUSH1 0x40 MLOAD PUSH1 0x1F DUP3 ADD PUSH1 0x1F NOT AND DUP2 ADD PUSH8 0xFFFFFFFFFFFFFFFF DUP2 GT DUP3 DUP3 LT OR ISZERO PUSH2 0x5C7 JUMPI PUSH2 0x5C7 PUSH2 0x60A JUMP JUMPDEST PUSH1 0x40 MSTORE SWAP2 SWAP1 POP JUMP JUMPDEST PUSH1 0x1 DUP2 DUP2 SHR SWAP1 DUP3 AND DUP1 PUSH2 0x5E3 JUMPI PUSH1 0x7F DUP3 AND SWAP2 POP JUMPDEST PUSH1 0x20 DUP3 LT DUP2 EQ ISZERO PUSH2 0x604 JUMPI PUSH4 0x4E487B71 PUSH1 0xE0 SHL PUSH1 0x0 MSTORE PUSH1 0x22 PUSH1 0x4 MSTORE PUSH1 0x24 PUSH1 0x0 REVERT JUMPDEST POP SWAP2 SWAP1 POP JUMP JUMPDEST PUSH4 0x4E487B71 PUSH1 0xE0 SHL PUSH1 0x0 MSTORE PUSH1 0x41 PUSH1 0x4 MSTORE PUSH1 0x24 PUSH1 0x0 REVERT INVALID LOG2 PUSH5 0x6970667358 0x22 SLT KECCAK256 0xC9 0xCA MSTORE PUSH32 0xD0CB6CBB2EEF7A64D252AE0D49FE9DCBE741FAFBAB43278FB902C21864736F6C PUSH4 0x43000804 STOP CALLER "
        },
        "gasEstimates": {
          "creation": {
            "codeDepositCost": "324400",
            "executionCost": "21180",
            "totalCost": "345580"
          },
          "external": {
            "coreTeam(uint256)": "2069",
            "descriptionURI()": "infinite",
            "initialize(address,uint256,address[],string,string)": "infinite",
            "initialized()": "1032",
            "membershipPrice()": "1040",
            "name()": "infinite",
            "parentAddress()": "1027"
          }
        },
        "methodIdentifiers": {
          "coreTeam(uint256)": "f1d2f93c",
          "descriptionURI()": "84619856",
          "initialize(address,uint256,address[],string,string)": "14a88d61",
          "initialized()": "158ef93e",
          "membershipPrice()": "0de3226b",
          "name()": "06fdde03",
          "parentAddress()": "00821de3"
        }
      },
      "storageLayout": {
        "storage": [
          {
            "astId": 394,
            "contract": "contracts/HackerHouseDAO.sol:HackerHouseDAO",
            "label": "parentAddress",
            "offset": 0,
            "slot": "0",
            "type": "t_address"
          },
          {
            "astId": 396,
            "contract": "contracts/HackerHouseDAO.sol:HackerHouseDAO",
            "label": "id",
            "offset": 0,
            "slot": "1",
            "type": "t_uint256"
          },
          {
            "astId": 398,
            "contract": "contracts/HackerHouseDAO.sol:HackerHouseDAO",
            "label": "name",
            "offset": 0,
            "slot": "2",
            "type": "t_string_storage"
          },
          {
            "astId": 400,
            "contract": "contracts/HackerHouseDAO.sol:HackerHouseDAO",
            "label": "descriptionURI",
            "offset": 0,
            "slot": "3",
            "type": "t_string_storage"
          },
          {
            "astId": 403,
            "contract": "contracts/HackerHouseDAO.sol:HackerHouseDAO",
            "label": "coreTeam",
            "offset": 0,
            "slot": "4",
            "type": "t_array(t_address)dyn_storage"
          },
          {
            "astId": 405,
            "contract": "contracts/HackerHouseDAO.sol:HackerHouseDAO",
            "label": "membershipPrice",
            "offset": 0,
            "slot": "5",
            "type": "t_uint256"
          },
          {
            "astId": 408,
            "contract": "contracts/HackerHouseDAO.sol:HackerHouseDAO",
            "label": "initialized",
            "offset": 0,
            "slot": "6",
            "type": "t_bool"
          }
        ],
        "types": {
          "t_address": {
            "encoding": "inplace",
            "label": "address",
            "numberOfBytes": "20"
          },
          "t_array(t_address)dyn_storage": {
            "base": "t_address",
            "encoding": "dynamic_array",
            "label": "address[]",
            "numberOfBytes": "32"
          },
          "t_bool": {
            "encoding": "inplace",
            "label": "bool",
            "numberOfBytes": "1"
          },
          "t_string_storage": {
            "encoding": "bytes",
            "label": "string",
            "numberOfBytes": "32"
          },
          "t_uint256": {
            "encoding": "inplace",
            "label": "uint256",
            "numberOfBytes": "32"
          }
        }
      },
      "userdoc": {
        "kind": "user",
        "methods": {},
        "version": 1
      }
    }
  }
}