{
  "contracts/HackerHouseDAO.sol": {
    "HackerHouseDAO": {
      "abi": [
        {
          "inputs": [],
          "name": "applyForMembership",
          "outputs": [],
          "stateMutability": "nonpayable",
          "type": "function"
        },
        {
          "inputs": [
            {
              "internalType": "uint256",
              "name": "",
              "type": "uint256"
            }
          ],
          "name": "coreTeam",
          "outputs": [
            {
              "internalType": "address",
              "name": "",
              "type": "address"
            }
          ],
          "stateMutability": "view",
          "type": "function"
        },
        {
          "inputs": [],
          "name": "descriptionURI",
          "outputs": [
            {
              "internalType": "string",
              "name": "",
              "type": "string"
            }
          ],
          "stateMutability": "view",
          "type": "function"
        },
        {
          "inputs": [],
          "name": "fetchAllApplicants",
          "outputs": [
            {
              "components": [
                {
                  "internalType": "uint256",
                  "name": "id",
                  "type": "uint256"
                },
                {
                  "internalType": "bool",
                  "name": "exists",
                  "type": "bool"
                },
                {
                  "internalType": "address",
                  "name": "userAddr",
                  "type": "address"
                },
                {
                  "internalType": "bool",
                  "name": "isMember",
                  "type": "bool"
                },
                {
                  "internalType": "address[]",
                  "name": "approvers",
                  "type": "address[]"
                }
              ],
              "internalType": "struct HackerHouseDAO.User[]",
              "name": "applicantsArr",
              "type": "tuple[]"
            }
          ],
          "stateMutability": "view",
          "type": "function"
        },
        {
          "inputs": [
            {
              "internalType": "address",
              "name": "_parentAddress",
              "type": "address"
            },
            {
              "internalType": "uint256",
              "name": "_id",
              "type": "uint256"
            },
            {
              "internalType": "address[]",
              "name": "_coreTeam",
              "type": "address[]"
            },
            {
              "internalType": "string",
              "name": "_name",
              "type": "string"
            },
            {
              "internalType": "string",
              "name": "_descriptionURI",
              "type": "string"
            }
          ],
          "name": "initialize",
          "outputs": [],
          "stateMutability": "nonpayable",
          "type": "function"
        },
        {
          "inputs": [],
          "name": "initialized",
          "outputs": [
            {
              "internalType": "bool",
              "name": "",
              "type": "bool"
            }
          ],
          "stateMutability": "view",
          "type": "function"
        },
        {
          "inputs": [],
          "name": "membershipPrice",
          "outputs": [
            {
              "internalType": "uint256",
              "name": "",
              "type": "uint256"
            }
          ],
          "stateMutability": "view",
          "type": "function"
        },
        {
          "inputs": [],
          "name": "name",
          "outputs": [
            {
              "internalType": "string",
              "name": "",
              "type": "string"
            }
          ],
          "stateMutability": "view",
          "type": "function"
        },
        {
          "inputs": [],
          "name": "parentAddress",
          "outputs": [
            {
              "internalType": "address",
              "name": "",
              "type": "address"
            }
          ],
          "stateMutability": "view",
          "type": "function"
        },
        {
          "inputs": [],
          "name": "userId",
          "outputs": [
            {
              "internalType": "uint256",
              "name": "_value",
              "type": "uint256"
            }
          ],
          "stateMutability": "view",
          "type": "function"
        },
        {
          "inputs": [
            {
              "internalType": "address",
              "name": "",
              "type": "address"
            }
          ],
          "name": "users",
          "outputs": [
            {
              "internalType": "uint256",
              "name": "id",
              "type": "uint256"
            },
            {
              "internalType": "bool",
              "name": "exists",
              "type": "bool"
            },
            {
              "internalType": "address",
              "name": "userAddr",
              "type": "address"
            },
            {
              "internalType": "bool",
              "name": "isMember",
              "type": "bool"
            }
          ],
          "stateMutability": "view",
          "type": "function"
        }
      ],
      "devdoc": {
        "kind": "dev",
        "methods": {},
        "version": 1
      },
      "evm": {
        "bytecode": {
          "linkReferences": {},
          "object": "60806040526007805460ff1916905534801561001a57600080fd5b50610c848061002a6000396000f3fe608060405234801561001057600080fd5b50600436106100a85760003560e01c80635897591911610071578063589759191461013b5780635e1ee52a14610145578063846198561461014d57806399ef1fe014610155578063a87430ba1461016a578063f1d2f93c146101e057600080fd5b8062821de3146100ad57806306fdde03146100dd5780630de3226b146100f257806314a88d6114610109578063158ef93e1461011e575b600080fd5b6000546100c0906001600160a01b031681565b6040516001600160a01b0390911681526020015b60405180910390f35b6100e56101f3565b6040516100d49190610b52565b6100fb60065481565b6040519081526020016100d4565b61011c61011736600461095c565b610281565b005b60075461012b9060ff1681565b60405190151581526020016100d4565b6002546100fb9081565b61011c610341565b6100e56104bf565b61015d6104cc565b6040516100d49190610a84565b6101af61017836600461093b565b6008602052600090815260409020805460019091015460ff808216916001600160a01b0361010082041691600160a81b9091041684565b6040516100d4949392919093845291151560208401526001600160a01b031660408301521515606082015260800190565b6100c06101ee366004610a6c565b61079c565b6003805461020090610bd6565b80601f016020809104026020016040519081016040528092919081815260200182805461022c90610bd6565b80156102795780601f1061024e57610100808354040283529160200191610279565b820191906000526020600020905b81548152906001019060200180831161025c57829003601f168201915b505050505081565b60075460ff16156102cf5760405162461bcd60e51b8152602060048201526013602482015272105b1c9958591e481a5b9a5d1a585b1a5e9959606a1b60448201526064015b60405180910390fd5b60078054600160ff199091168117909155600080546001600160a01b0319166001600160a01b03881617905584905582516103119060059060208601906107c6565b50815161032590600390602085019061082b565b50805161033990600490602084019061082b565b505050505050565b33600090815260086020526040902060010154600160a81b900460ff16156103ab5760405162461bcd60e51b815260206004820152601e60248201527f616c72656164792061206d656d626572206f72206170706c6963616e7473000060448201526064016102c6565b60006103b660025490565b6040805160a0810182528281526001602080830182815233848601818152600060608781018281526080890182815294835260088752989091208751815593519584018054925198511515600160a81b0260ff60a81b196001600160a01b039a909a1661010002610100600160a81b0319981515989098166001600160a81b0319909416939093179690961797909716179093559151805195965093949293849361046792600285019201906107c6565b5050600980546001810182556000919091527f6e1540171b6c0c960b71a7020d9f60077f6af931a8bbf590da0223dacf75c7af0180546001600160a01b03191633179055506104ba600280546001019055565b505050565b6004805461020090610bd6565b600954606090600080805b8381101561055b57600860006009838154811061050457634e487b7160e01b600052603260045260246000fd5b60009182526020808320909101546001600160a01b0316835282019290925260400190206001015460ff600160a81b90910416610549578261054581610c11565b9350505b8061055381610c11565b9150506104d7565b5060008267ffffffffffffffff81111561058557634e487b7160e01b600052604160045260246000fd5b6040519080825280602002602001820160405280156105f557816020015b6105e26040518060a001604052806000815260200160001515815260200160006001600160a01b03168152602001600015158152602001606081525090565b8152602001906001900390816105a35790505b50905060005b8481101561079457600860006009838154811061062857634e487b7160e01b600052603260045260246000fd5b60009182526020808320909101546001600160a01b0316835282019290925260400190206001015460ff600160a81b9091041661078257600860006009838154811061068457634e487b7160e01b600052603260045260246000fd5b60009182526020808320909101546001600160a01b039081168452838201949094526040928301909120825160a08101845281548152600182015460ff808216151583860152610100820490961682860152600160a81b9004909416151560608501526002810180548451818502810185019095528085529193608086019390929083018282801561073f57602002820191906000526020600020905b81546001600160a01b03168152600190910190602001808311610721575b50505050508152505082848151811061076857634e487b7160e01b600052603260045260246000fd5b6020026020010181905250828061077e90610c11565b9350505b8061078c81610c11565b9150506105fb565b505050505090565b600581815481106107ac57600080fd5b6000918252602090912001546001600160a01b0316905081565b82805482825590600052602060002090810192821561081b579160200282015b8281111561081b57825182546001600160a01b0319166001600160a01b039091161782556020909201916001909101906107e6565b5061082792915061089f565b5090565b82805461083790610bd6565b90600052602060002090601f016020900481019282610859576000855561081b565b82601f1061087257805160ff191683800117855561081b565b8280016001018555821561081b579182015b8281111561081b578251825591602001919060010190610884565b5b8082111561082757600081556001016108a0565b80356001600160a01b03811681146108cb57600080fd5b919050565b600082601f8301126108e0578081fd5b813567ffffffffffffffff8111156108fa576108fa610c38565b61090d601f8201601f1916602001610ba5565b818152846020838601011115610921578283fd5b816020850160208301379081016020019190915292915050565b60006020828403121561094c578081fd5b610955826108b4565b9392505050565b600080600080600060a08688031215610973578081fd5b61097c866108b4565b94506020808701359450604087013567ffffffffffffffff808211156109a0578384fd5b818901915089601f8301126109b3578384fd5b8135818111156109c5576109c5610c38565b8060051b6109d4858201610ba5565b8281528581019085870183870188018f10156109ee578889fd5b8896505b84871015610a1757610a03816108b4565b8352600196909601959187019187016109f2565b5098505050506060890135925080831115610a30578384fd5b610a3c8a848b016108d0565b94506080890135925080831115610a51578384fd5b5050610a5f888289016108d0565b9150509295509295909350565b600060208284031215610a7d578081fd5b5035919050565b60006020808301818452808551808352604092508286019150828160051b870101848801865b83811015610b4457888303603f1901855281518051845287810151151588850152868101516001600160a01b039081168886015260608083015115159086015260809182015160a0928601839052805192860183905289019160c08601918b91905b81831015610b2e57845181168452938b0193928b019260019290920191610b0c565b5050509588019593505090860190600101610aaa565b509098975050505050505050565b6000602080835283518082850152825b81811015610b7e57858101830151858201604001528201610b62565b81811115610b8f5783604083870101525b50601f01601f1916929092016040019392505050565b604051601f8201601f1916810167ffffffffffffffff81118282101715610bce57610bce610c38565b604052919050565b600181811c90821680610bea57607f821691505b60208210811415610c0b57634e487b7160e01b600052602260045260246000fd5b50919050565b6000600019821415610c3157634e487b7160e01b81526011600452602481fd5b5060010190565b634e487b7160e01b600052604160045260246000fdfea2646970667358221220580263227c084d6f50a4073c3ec16b324ddd622ff2e5edbb103254f0d5fae82f64736f6c63430008040033",
          "opcodes": "PUSH1 0x80 PUSH1 0x40 MSTORE PUSH1 0x7 DUP1 SLOAD PUSH1 0xFF NOT AND SWAP1 SSTORE CALLVALUE DUP1 ISZERO PUSH2 0x1A JUMPI PUSH1 0x0 DUP1 REVERT JUMPDEST POP PUSH2 0xC84 DUP1 PUSH2 0x2A PUSH1 0x0 CODECOPY PUSH1 0x0 RETURN INVALID PUSH1 0x80 PUSH1 0x40 MSTORE CALLVALUE DUP1 ISZERO PUSH2 0x10 JUMPI PUSH1 0x0 DUP1 REVERT JUMPDEST POP PUSH1 0x4 CALLDATASIZE LT PUSH2 0xA8 JUMPI PUSH1 0x0 CALLDATALOAD PUSH1 0xE0 SHR DUP1 PUSH4 0x58975919 GT PUSH2 0x71 JUMPI DUP1 PUSH4 0x58975919 EQ PUSH2 0x13B JUMPI DUP1 PUSH4 0x5E1EE52A EQ PUSH2 0x145 JUMPI DUP1 PUSH4 0x84619856 EQ PUSH2 0x14D JUMPI DUP1 PUSH4 0x99EF1FE0 EQ PUSH2 0x155 JUMPI DUP1 PUSH4 0xA87430BA EQ PUSH2 0x16A JUMPI DUP1 PUSH4 0xF1D2F93C EQ PUSH2 0x1E0 JUMPI PUSH1 0x0 DUP1 REVERT JUMPDEST DUP1 PUSH3 0x821DE3 EQ PUSH2 0xAD JUMPI DUP1 PUSH4 0x6FDDE03 EQ PUSH2 0xDD JUMPI DUP1 PUSH4 0xDE3226B EQ PUSH2 0xF2 JUMPI DUP1 PUSH4 0x14A88D61 EQ PUSH2 0x109 JUMPI DUP1 PUSH4 0x158EF93E EQ PUSH2 0x11E JUMPI JUMPDEST PUSH1 0x0 DUP1 REVERT JUMPDEST PUSH1 0x0 SLOAD PUSH2 0xC0 SWAP1 PUSH1 0x1 PUSH1 0x1 PUSH1 0xA0 SHL SUB AND DUP2 JUMP JUMPDEST PUSH1 0x40 MLOAD PUSH1 0x1 PUSH1 0x1 PUSH1 0xA0 SHL SUB SWAP1 SWAP2 AND DUP2 MSTORE PUSH1 0x20 ADD JUMPDEST PUSH1 0x40 MLOAD DUP1 SWAP2 SUB SWAP1 RETURN JUMPDEST PUSH2 0xE5 PUSH2 0x1F3 JUMP JUMPDEST PUSH1 0x40 MLOAD PUSH2 0xD4 SWAP2 SWAP1 PUSH2 0xB52 JUMP JUMPDEST PUSH2 0xFB PUSH1 0x6 SLOAD DUP2 JUMP JUMPDEST PUSH1 0x40 MLOAD SWAP1 DUP2 MSTORE PUSH1 0x20 ADD PUSH2 0xD4 JUMP JUMPDEST PUSH2 0x11C PUSH2 0x117 CALLDATASIZE PUSH1 0x4 PUSH2 0x95C JUMP JUMPDEST PUSH2 0x281 JUMP JUMPDEST STOP JUMPDEST PUSH1 0x7 SLOAD PUSH2 0x12B SWAP1 PUSH1 0xFF AND DUP2 JUMP JUMPDEST PUSH1 0x40 MLOAD SWAP1 ISZERO ISZERO DUP2 MSTORE PUSH1 0x20 ADD PUSH2 0xD4 JUMP JUMPDEST PUSH1 0x2 SLOAD PUSH2 0xFB SWAP1 DUP2 JUMP JUMPDEST PUSH2 0x11C PUSH2 0x341 JUMP JUMPDEST PUSH2 0xE5 PUSH2 0x4BF JUMP JUMPDEST PUSH2 0x15D PUSH2 0x4CC JUMP JUMPDEST PUSH1 0x40 MLOAD PUSH2 0xD4 SWAP2 SWAP1 PUSH2 0xA84 JUMP JUMPDEST PUSH2 0x1AF PUSH2 0x178 CALLDATASIZE PUSH1 0x4 PUSH2 0x93B JUMP JUMPDEST PUSH1 0x8 PUSH1 0x20 MSTORE PUSH1 0x0 SWAP1 DUP2 MSTORE PUSH1 0x40 SWAP1 KECCAK256 DUP1 SLOAD PUSH1 0x1 SWAP1 SWAP2 ADD SLOAD PUSH1 0xFF DUP1 DUP3 AND SWAP2 PUSH1 0x1 PUSH1 0x1 PUSH1 0xA0 SHL SUB PUSH2 0x100 DUP3 DIV AND SWAP2 PUSH1 0x1 PUSH1 0xA8 SHL SWAP1 SWAP2 DIV AND DUP5 JUMP JUMPDEST PUSH1 0x40 MLOAD PUSH2 0xD4 SWAP5 SWAP4 SWAP3 SWAP2 SWAP1 SWAP4 DUP5 MSTORE SWAP2 ISZERO ISZERO PUSH1 0x20 DUP5 ADD MSTORE PUSH1 0x1 PUSH1 0x1 PUSH1 0xA0 SHL SUB AND PUSH1 0x40 DUP4 ADD MSTORE ISZERO ISZERO PUSH1 0x60 DUP3 ADD MSTORE PUSH1 0x80 ADD SWAP1 JUMP JUMPDEST PUSH2 0xC0 PUSH2 0x1EE CALLDATASIZE PUSH1 0x4 PUSH2 0xA6C JUMP JUMPDEST PUSH2 0x79C JUMP JUMPDEST PUSH1 0x3 DUP1 SLOAD PUSH2 0x200 SWAP1 PUSH2 0xBD6 JUMP JUMPDEST DUP1 PUSH1 0x1F ADD PUSH1 0x20 DUP1 SWAP2 DIV MUL PUSH1 0x20 ADD PUSH1 0x40 MLOAD SWAP1 DUP2 ADD PUSH1 0x40 MSTORE DUP1 SWAP3 SWAP2 SWAP1 DUP2 DUP2 MSTORE PUSH1 0x20 ADD DUP3 DUP1 SLOAD PUSH2 0x22C SWAP1 PUSH2 0xBD6 JUMP JUMPDEST DUP1 ISZERO PUSH2 0x279 JUMPI DUP1 PUSH1 0x1F LT PUSH2 0x24E JUMPI PUSH2 0x100 DUP1 DUP4 SLOAD DIV MUL DUP4 MSTORE SWAP2 PUSH1 0x20 ADD SWAP2 PUSH2 0x279 JUMP JUMPDEST DUP3 ADD SWAP2 SWAP1 PUSH1 0x0 MSTORE PUSH1 0x20 PUSH1 0x0 KECCAK256 SWAP1 JUMPDEST DUP2 SLOAD DUP2 MSTORE SWAP1 PUSH1 0x1 ADD SWAP1 PUSH1 0x20 ADD DUP1 DUP4 GT PUSH2 0x25C JUMPI DUP3 SWAP1 SUB PUSH1 0x1F AND DUP3 ADD SWAP2 JUMPDEST POP POP POP POP POP DUP2 JUMP JUMPDEST PUSH1 0x7 SLOAD PUSH1 0xFF AND ISZERO PUSH2 0x2CF JUMPI PUSH1 0x40 MLOAD PUSH3 0x461BCD PUSH1 0xE5 SHL DUP2 MSTORE PUSH1 0x20 PUSH1 0x4 DUP3 ADD MSTORE PUSH1 0x13 PUSH1 0x24 DUP3 ADD MSTORE PUSH19 0x105B1C9958591E481A5B9A5D1A585B1A5E9959 PUSH1 0x6A SHL PUSH1 0x44 DUP3 ADD MSTORE PUSH1 0x64 ADD JUMPDEST PUSH1 0x40 MLOAD DUP1 SWAP2 SUB SWAP1 REVERT JUMPDEST PUSH1 0x7 DUP1 SLOAD PUSH1 0x1 PUSH1 0xFF NOT SWAP1 SWAP2 AND DUP2 OR SWAP1 SWAP2 SSTORE PUSH1 0x0 DUP1 SLOAD PUSH1 0x1 PUSH1 0x1 PUSH1 0xA0 SHL SUB NOT AND PUSH1 0x1 PUSH1 0x1 PUSH1 0xA0 SHL SUB DUP9 AND OR SWAP1 SSTORE DUP5 SWAP1 SSTORE DUP3 MLOAD PUSH2 0x311 SWAP1 PUSH1 0x5 SWAP1 PUSH1 0x20 DUP7 ADD SWAP1 PUSH2 0x7C6 JUMP JUMPDEST POP DUP2 MLOAD PUSH2 0x325 SWAP1 PUSH1 0x3 SWAP1 PUSH1 0x20 DUP6 ADD SWAP1 PUSH2 0x82B JUMP JUMPDEST POP DUP1 MLOAD PUSH2 0x339 SWAP1 PUSH1 0x4 SWAP1 PUSH1 0x20 DUP5 ADD SWAP1 PUSH2 0x82B JUMP JUMPDEST POP POP POP POP POP POP JUMP JUMPDEST CALLER PUSH1 0x0 SWAP1 DUP2 MSTORE PUSH1 0x8 PUSH1 0x20 MSTORE PUSH1 0x40 SWAP1 KECCAK256 PUSH1 0x1 ADD SLOAD PUSH1 0x1 PUSH1 0xA8 SHL SWAP1 DIV PUSH1 0xFF AND ISZERO PUSH2 0x3AB JUMPI PUSH1 0x40 MLOAD PUSH3 0x461BCD PUSH1 0xE5 SHL DUP2 MSTORE PUSH1 0x20 PUSH1 0x4 DUP3 ADD MSTORE PUSH1 0x1E PUSH1 0x24 DUP3 ADD MSTORE PUSH32 0x616C72656164792061206D656D626572206F72206170706C6963616E74730000 PUSH1 0x44 DUP3 ADD MSTORE PUSH1 0x64 ADD PUSH2 0x2C6 JUMP JUMPDEST PUSH1 0x0 PUSH2 0x3B6 PUSH1 0x2 SLOAD SWAP1 JUMP JUMPDEST PUSH1 0x40 DUP1 MLOAD PUSH1 0xA0 DUP2 ADD DUP3 MSTORE DUP3 DUP2 MSTORE PUSH1 0x1 PUSH1 0x20 DUP1 DUP4 ADD DUP3 DUP2 MSTORE CALLER DUP5 DUP7 ADD DUP2 DUP2 MSTORE PUSH1 0x0 PUSH1 0x60 DUP8 DUP2 ADD DUP3 DUP2 MSTORE PUSH1 0x80 DUP10 ADD DUP3 DUP2 MSTORE SWAP5 DUP4 MSTORE PUSH1 0x8 DUP8 MSTORE SWAP9 SWAP1 SWAP2 KECCAK256 DUP8 MLOAD DUP2 SSTORE SWAP4 MLOAD SWAP6 DUP5 ADD DUP1 SLOAD SWAP3 MLOAD SWAP9 MLOAD ISZERO ISZERO PUSH1 0x1 PUSH1 0xA8 SHL MUL PUSH1 0xFF PUSH1 0xA8 SHL NOT PUSH1 0x1 PUSH1 0x1 PUSH1 0xA0 SHL SUB SWAP11 SWAP1 SWAP11 AND PUSH2 0x100 MUL PUSH2 0x100 PUSH1 0x1 PUSH1 0xA8 SHL SUB NOT SWAP9 ISZERO ISZERO SWAP9 SWAP1 SWAP9 AND PUSH1 0x1 PUSH1 0x1 PUSH1 0xA8 SHL SUB NOT SWAP1 SWAP5 AND SWAP4 SWAP1 SWAP4 OR SWAP7 SWAP1 SWAP7 OR SWAP8 SWAP1 SWAP8 AND OR SWAP1 SWAP4 SSTORE SWAP2 MLOAD DUP1 MLOAD SWAP6 SWAP7 POP SWAP4 SWAP5 SWAP3 SWAP4 DUP5 SWAP4 PUSH2 0x467 SWAP3 PUSH1 0x2 DUP6 ADD SWAP3 ADD SWAP1 PUSH2 0x7C6 JUMP JUMPDEST POP POP PUSH1 0x9 DUP1 SLOAD PUSH1 0x1 DUP2 ADD DUP3 SSTORE PUSH1 0x0 SWAP2 SWAP1 SWAP2 MSTORE PUSH32 0x6E1540171B6C0C960B71A7020D9F60077F6AF931A8BBF590DA0223DACF75C7AF ADD DUP1 SLOAD PUSH1 0x1 PUSH1 0x1 PUSH1 0xA0 SHL SUB NOT AND CALLER OR SWAP1 SSTORE POP PUSH2 0x4BA PUSH1 0x2 DUP1 SLOAD PUSH1 0x1 ADD SWAP1 SSTORE JUMP JUMPDEST POP POP POP JUMP JUMPDEST PUSH1 0x4 DUP1 SLOAD PUSH2 0x200 SWAP1 PUSH2 0xBD6 JUMP JUMPDEST PUSH1 0x9 SLOAD PUSH1 0x60 SWAP1 PUSH1 0x0 DUP1 DUP1 JUMPDEST DUP4 DUP2 LT ISZERO PUSH2 0x55B JUMPI PUSH1 0x8 PUSH1 0x0 PUSH1 0x9 DUP4 DUP2 SLOAD DUP2 LT PUSH2 0x504 JUMPI PUSH4 0x4E487B71 PUSH1 0xE0 SHL PUSH1 0x0 MSTORE PUSH1 0x32 PUSH1 0x4 MSTORE PUSH1 0x24 PUSH1 0x0 REVERT JUMPDEST PUSH1 0x0 SWAP2 DUP3 MSTORE PUSH1 0x20 DUP1 DUP4 KECCAK256 SWAP1 SWAP2 ADD SLOAD PUSH1 0x1 PUSH1 0x1 PUSH1 0xA0 SHL SUB AND DUP4 MSTORE DUP3 ADD SWAP3 SWAP1 SWAP3 MSTORE PUSH1 0x40 ADD SWAP1 KECCAK256 PUSH1 0x1 ADD SLOAD PUSH1 0xFF PUSH1 0x1 PUSH1 0xA8 SHL SWAP1 SWAP2 DIV AND PUSH2 0x549 JUMPI DUP3 PUSH2 0x545 DUP2 PUSH2 0xC11 JUMP JUMPDEST SWAP4 POP POP JUMPDEST DUP1 PUSH2 0x553 DUP2 PUSH2 0xC11 JUMP JUMPDEST SWAP2 POP POP PUSH2 0x4D7 JUMP JUMPDEST POP PUSH1 0x0 DUP3 PUSH8 0xFFFFFFFFFFFFFFFF DUP2 GT ISZERO PUSH2 0x585 JUMPI PUSH4 0x4E487B71 PUSH1 0xE0 SHL PUSH1 0x0 MSTORE PUSH1 0x41 PUSH1 0x4 MSTORE PUSH1 0x24 PUSH1 0x0 REVERT JUMPDEST PUSH1 0x40 MLOAD SWAP1 DUP1 DUP3 MSTORE DUP1 PUSH1 0x20 MUL PUSH1 0x20 ADD DUP3 ADD PUSH1 0x40 MSTORE DUP1 ISZERO PUSH2 0x5F5 JUMPI DUP2 PUSH1 0x20 ADD JUMPDEST PUSH2 0x5E2 PUSH1 0x40 MLOAD DUP1 PUSH1 0xA0 ADD PUSH1 0x40 MSTORE DUP1 PUSH1 0x0 DUP2 MSTORE PUSH1 0x20 ADD PUSH1 0x0 ISZERO ISZERO DUP2 MSTORE PUSH1 0x20 ADD PUSH1 0x0 PUSH1 0x1 PUSH1 0x1 PUSH1 0xA0 SHL SUB AND DUP2 MSTORE PUSH1 0x20 ADD PUSH1 0x0 ISZERO ISZERO DUP2 MSTORE PUSH1 0x20 ADD PUSH1 0x60 DUP2 MSTORE POP SWAP1 JUMP JUMPDEST DUP2 MSTORE PUSH1 0x20 ADD SWAP1 PUSH1 0x1 SWAP1 SUB SWAP1 DUP2 PUSH2 0x5A3 JUMPI SWAP1 POP JUMPDEST POP SWAP1 POP PUSH1 0x0 JUMPDEST DUP5 DUP2 LT ISZERO PUSH2 0x794 JUMPI PUSH1 0x8 PUSH1 0x0 PUSH1 0x9 DUP4 DUP2 SLOAD DUP2 LT PUSH2 0x628 JUMPI PUSH4 0x4E487B71 PUSH1 0xE0 SHL PUSH1 0x0 MSTORE PUSH1 0x32 PUSH1 0x4 MSTORE PUSH1 0x24 PUSH1 0x0 REVERT JUMPDEST PUSH1 0x0 SWAP2 DUP3 MSTORE PUSH1 0x20 DUP1 DUP4 KECCAK256 SWAP1 SWAP2 ADD SLOAD PUSH1 0x1 PUSH1 0x1 PUSH1 0xA0 SHL SUB AND DUP4 MSTORE DUP3 ADD SWAP3 SWAP1 SWAP3 MSTORE PUSH1 0x40 ADD SWAP1 KECCAK256 PUSH1 0x1 ADD SLOAD PUSH1 0xFF PUSH1 0x1 PUSH1 0xA8 SHL SWAP1 SWAP2 DIV AND PUSH2 0x782 JUMPI PUSH1 0x8 PUSH1 0x0 PUSH1 0x9 DUP4 DUP2 SLOAD DUP2 LT PUSH2 0x684 JUMPI PUSH4 0x4E487B71 PUSH1 0xE0 SHL PUSH1 0x0 MSTORE PUSH1 0x32 PUSH1 0x4 MSTORE PUSH1 0x24 PUSH1 0x0 REVERT JUMPDEST PUSH1 0x0 SWAP2 DUP3 MSTORE PUSH1 0x20 DUP1 DUP4 KECCAK256 SWAP1 SWAP2 ADD SLOAD PUSH1 0x1 PUSH1 0x1 PUSH1 0xA0 SHL SUB SWAP1 DUP2 AND DUP5 MSTORE DUP4 DUP3 ADD SWAP5 SWAP1 SWAP5 MSTORE PUSH1 0x40 SWAP3 DUP4 ADD SWAP1 SWAP2 KECCAK256 DUP3 MLOAD PUSH1 0xA0 DUP2 ADD DUP5 MSTORE DUP2 SLOAD DUP2 MSTORE PUSH1 0x1 DUP3 ADD SLOAD PUSH1 0xFF DUP1 DUP3 AND ISZERO ISZERO DUP4 DUP7 ADD MSTORE PUSH2 0x100 DUP3 DIV SWAP1 SWAP7 AND DUP3 DUP7 ADD MSTORE PUSH1 0x1 PUSH1 0xA8 SHL SWAP1 DIV SWAP1 SWAP5 AND ISZERO ISZERO PUSH1 0x60 DUP6 ADD MSTORE PUSH1 0x2 DUP2 ADD DUP1 SLOAD DUP5 MLOAD DUP2 DUP6 MUL DUP2 ADD DUP6 ADD SWAP1 SWAP6 MSTORE DUP1 DUP6 MSTORE SWAP2 SWAP4 PUSH1 0x80 DUP7 ADD SWAP4 SWAP1 SWAP3 SWAP1 DUP4 ADD DUP3 DUP3 DUP1 ISZERO PUSH2 0x73F JUMPI PUSH1 0x20 MUL DUP3 ADD SWAP2 SWAP1 PUSH1 0x0 MSTORE PUSH1 0x20 PUSH1 0x0 KECCAK256 SWAP1 JUMPDEST DUP2 SLOAD PUSH1 0x1 PUSH1 0x1 PUSH1 0xA0 SHL SUB AND DUP2 MSTORE PUSH1 0x1 SWAP1 SWAP2 ADD SWAP1 PUSH1 0x20 ADD DUP1 DUP4 GT PUSH2 0x721 JUMPI JUMPDEST POP POP POP POP POP DUP2 MSTORE POP POP DUP3 DUP5 DUP2 MLOAD DUP2 LT PUSH2 0x768 JUMPI PUSH4 0x4E487B71 PUSH1 0xE0 SHL PUSH1 0x0 MSTORE PUSH1 0x32 PUSH1 0x4 MSTORE PUSH1 0x24 PUSH1 0x0 REVERT JUMPDEST PUSH1 0x20 MUL PUSH1 0x20 ADD ADD DUP2 SWAP1 MSTORE POP DUP3 DUP1 PUSH2 0x77E SWAP1 PUSH2 0xC11 JUMP JUMPDEST SWAP4 POP POP JUMPDEST DUP1 PUSH2 0x78C DUP2 PUSH2 0xC11 JUMP JUMPDEST SWAP2 POP POP PUSH2 0x5FB JUMP JUMPDEST POP POP POP POP POP SWAP1 JUMP JUMPDEST PUSH1 0x5 DUP2 DUP2 SLOAD DUP2 LT PUSH2 0x7AC JUMPI PUSH1 0x0 DUP1 REVERT JUMPDEST PUSH1 0x0 SWAP2 DUP3 MSTORE PUSH1 0x20 SWAP1 SWAP2 KECCAK256 ADD SLOAD PUSH1 0x1 PUSH1 0x1 PUSH1 0xA0 SHL SUB AND SWAP1 POP DUP2 JUMP JUMPDEST DUP3 DUP1 SLOAD DUP3 DUP3 SSTORE SWAP1 PUSH1 0x0 MSTORE PUSH1 0x20 PUSH1 0x0 KECCAK256 SWAP1 DUP2 ADD SWAP3 DUP3 ISZERO PUSH2 0x81B JUMPI SWAP2 PUSH1 0x20 MUL DUP3 ADD JUMPDEST DUP3 DUP2 GT ISZERO PUSH2 0x81B JUMPI DUP3 MLOAD DUP3 SLOAD PUSH1 0x1 PUSH1 0x1 PUSH1 0xA0 SHL SUB NOT AND PUSH1 0x1 PUSH1 0x1 PUSH1 0xA0 SHL SUB SWAP1 SWAP2 AND OR DUP3 SSTORE PUSH1 0x20 SWAP1 SWAP3 ADD SWAP2 PUSH1 0x1 SWAP1 SWAP2 ADD SWAP1 PUSH2 0x7E6 JUMP JUMPDEST POP PUSH2 0x827 SWAP3 SWAP2 POP PUSH2 0x89F JUMP JUMPDEST POP SWAP1 JUMP JUMPDEST DUP3 DUP1 SLOAD PUSH2 0x837 SWAP1 PUSH2 0xBD6 JUMP JUMPDEST SWAP1 PUSH1 0x0 MSTORE PUSH1 0x20 PUSH1 0x0 KECCAK256 SWAP1 PUSH1 0x1F ADD PUSH1 0x20 SWAP1 DIV DUP2 ADD SWAP3 DUP3 PUSH2 0x859 JUMPI PUSH1 0x0 DUP6 SSTORE PUSH2 0x81B JUMP JUMPDEST DUP3 PUSH1 0x1F LT PUSH2 0x872 JUMPI DUP1 MLOAD PUSH1 0xFF NOT AND DUP4 DUP1 ADD OR DUP6 SSTORE PUSH2 0x81B JUMP JUMPDEST DUP3 DUP1 ADD PUSH1 0x1 ADD DUP6 SSTORE DUP3 ISZERO PUSH2 0x81B JUMPI SWAP2 DUP3 ADD JUMPDEST DUP3 DUP2 GT ISZERO PUSH2 0x81B JUMPI DUP3 MLOAD DUP3 SSTORE SWAP2 PUSH1 0x20 ADD SWAP2 SWAP1 PUSH1 0x1 ADD SWAP1 PUSH2 0x884 JUMP JUMPDEST JUMPDEST DUP1 DUP3 GT ISZERO PUSH2 0x827 JUMPI PUSH1 0x0 DUP2 SSTORE PUSH1 0x1 ADD PUSH2 0x8A0 JUMP JUMPDEST DUP1 CALLDATALOAD PUSH1 0x1 PUSH1 0x1 PUSH1 0xA0 SHL SUB DUP2 AND DUP2 EQ PUSH2 0x8CB JUMPI PUSH1 0x0 DUP1 REVERT JUMPDEST SWAP2 SWAP1 POP JUMP JUMPDEST PUSH1 0x0 DUP3 PUSH1 0x1F DUP4 ADD SLT PUSH2 0x8E0 JUMPI DUP1 DUP2 REVERT JUMPDEST DUP2 CALLDATALOAD PUSH8 0xFFFFFFFFFFFFFFFF DUP2 GT ISZERO PUSH2 0x8FA JUMPI PUSH2 0x8FA PUSH2 0xC38 JUMP JUMPDEST PUSH2 0x90D PUSH1 0x1F DUP3 ADD PUSH1 0x1F NOT AND PUSH1 0x20 ADD PUSH2 0xBA5 JUMP JUMPDEST DUP2 DUP2 MSTORE DUP5 PUSH1 0x20 DUP4 DUP7 ADD ADD GT ISZERO PUSH2 0x921 JUMPI DUP3 DUP4 REVERT JUMPDEST DUP2 PUSH1 0x20 DUP6 ADD PUSH1 0x20 DUP4 ADD CALLDATACOPY SWAP1 DUP2 ADD PUSH1 0x20 ADD SWAP2 SWAP1 SWAP2 MSTORE SWAP3 SWAP2 POP POP JUMP JUMPDEST PUSH1 0x0 PUSH1 0x20 DUP3 DUP5 SUB SLT ISZERO PUSH2 0x94C JUMPI DUP1 DUP2 REVERT JUMPDEST PUSH2 0x955 DUP3 PUSH2 0x8B4 JUMP JUMPDEST SWAP4 SWAP3 POP POP POP JUMP JUMPDEST PUSH1 0x0 DUP1 PUSH1 0x0 DUP1 PUSH1 0x0 PUSH1 0xA0 DUP7 DUP9 SUB SLT ISZERO PUSH2 0x973 JUMPI DUP1 DUP2 REVERT JUMPDEST PUSH2 0x97C DUP7 PUSH2 0x8B4 JUMP JUMPDEST SWAP5 POP PUSH1 0x20 DUP1 DUP8 ADD CALLDATALOAD SWAP5 POP PUSH1 0x40 DUP8 ADD CALLDATALOAD PUSH8 0xFFFFFFFFFFFFFFFF DUP1 DUP3 GT ISZERO PUSH2 0x9A0 JUMPI DUP4 DUP5 REVERT JUMPDEST DUP2 DUP10 ADD SWAP2 POP DUP10 PUSH1 0x1F DUP4 ADD SLT PUSH2 0x9B3 JUMPI DUP4 DUP5 REVERT JUMPDEST DUP2 CALLDATALOAD DUP2 DUP2 GT ISZERO PUSH2 0x9C5 JUMPI PUSH2 0x9C5 PUSH2 0xC38 JUMP JUMPDEST DUP1 PUSH1 0x5 SHL PUSH2 0x9D4 DUP6 DUP3 ADD PUSH2 0xBA5 JUMP JUMPDEST DUP3 DUP2 MSTORE DUP6 DUP2 ADD SWAP1 DUP6 DUP8 ADD DUP4 DUP8 ADD DUP9 ADD DUP16 LT ISZERO PUSH2 0x9EE JUMPI DUP9 DUP10 REVERT JUMPDEST DUP9 SWAP7 POP JUMPDEST DUP5 DUP8 LT ISZERO PUSH2 0xA17 JUMPI PUSH2 0xA03 DUP2 PUSH2 0x8B4 JUMP JUMPDEST DUP4 MSTORE PUSH1 0x1 SWAP7 SWAP1 SWAP7 ADD SWAP6 SWAP2 DUP8 ADD SWAP2 DUP8 ADD PUSH2 0x9F2 JUMP JUMPDEST POP SWAP9 POP POP POP POP PUSH1 0x60 DUP10 ADD CALLDATALOAD SWAP3 POP DUP1 DUP4 GT ISZERO PUSH2 0xA30 JUMPI DUP4 DUP5 REVERT JUMPDEST PUSH2 0xA3C DUP11 DUP5 DUP12 ADD PUSH2 0x8D0 JUMP JUMPDEST SWAP5 POP PUSH1 0x80 DUP10 ADD CALLDATALOAD SWAP3 POP DUP1 DUP4 GT ISZERO PUSH2 0xA51 JUMPI DUP4 DUP5 REVERT JUMPDEST POP POP PUSH2 0xA5F DUP9 DUP3 DUP10 ADD PUSH2 0x8D0 JUMP JUMPDEST SWAP2 POP POP SWAP3 SWAP6 POP SWAP3 SWAP6 SWAP1 SWAP4 POP JUMP JUMPDEST PUSH1 0x0 PUSH1 0x20 DUP3 DUP5 SUB SLT ISZERO PUSH2 0xA7D JUMPI DUP1 DUP2 REVERT JUMPDEST POP CALLDATALOAD SWAP2 SWAP1 POP JUMP JUMPDEST PUSH1 0x0 PUSH1 0x20 DUP1 DUP4 ADD DUP2 DUP5 MSTORE DUP1 DUP6 MLOAD DUP1 DUP4 MSTORE PUSH1 0x40 SWAP3 POP DUP3 DUP7 ADD SWAP2 POP DUP3 DUP2 PUSH1 0x5 SHL DUP8 ADD ADD DUP5 DUP9 ADD DUP7 JUMPDEST DUP4 DUP2 LT ISZERO PUSH2 0xB44 JUMPI DUP9 DUP4 SUB PUSH1 0x3F NOT ADD DUP6 MSTORE DUP2 MLOAD DUP1 MLOAD DUP5 MSTORE DUP8 DUP2 ADD MLOAD ISZERO ISZERO DUP9 DUP6 ADD MSTORE DUP7 DUP2 ADD MLOAD PUSH1 0x1 PUSH1 0x1 PUSH1 0xA0 SHL SUB SWAP1 DUP2 AND DUP9 DUP7 ADD MSTORE PUSH1 0x60 DUP1 DUP4 ADD MLOAD ISZERO ISZERO SWAP1 DUP7 ADD MSTORE PUSH1 0x80 SWAP2 DUP3 ADD MLOAD PUSH1 0xA0 SWAP3 DUP7 ADD DUP4 SWAP1 MSTORE DUP1 MLOAD SWAP3 DUP7 ADD DUP4 SWAP1 MSTORE DUP10 ADD SWAP2 PUSH1 0xC0 DUP7 ADD SWAP2 DUP12 SWAP2 SWAP1 JUMPDEST DUP2 DUP4 LT ISZERO PUSH2 0xB2E JUMPI DUP5 MLOAD DUP2 AND DUP5 MSTORE SWAP4 DUP12 ADD SWAP4 SWAP3 DUP12 ADD SWAP3 PUSH1 0x1 SWAP3 SWAP1 SWAP3 ADD SWAP2 PUSH2 0xB0C JUMP JUMPDEST POP POP POP SWAP6 DUP9 ADD SWAP6 SWAP4 POP POP SWAP1 DUP7 ADD SWAP1 PUSH1 0x1 ADD PUSH2 0xAAA JUMP JUMPDEST POP SWAP1 SWAP9 SWAP8 POP POP POP POP POP POP POP POP JUMP JUMPDEST PUSH1 0x0 PUSH1 0x20 DUP1 DUP4 MSTORE DUP4 MLOAD DUP1 DUP3 DUP6 ADD MSTORE DUP3 JUMPDEST DUP2 DUP2 LT ISZERO PUSH2 0xB7E JUMPI DUP6 DUP2 ADD DUP4 ADD MLOAD DUP6 DUP3 ADD PUSH1 0x40 ADD MSTORE DUP3 ADD PUSH2 0xB62 JUMP JUMPDEST DUP2 DUP2 GT ISZERO PUSH2 0xB8F JUMPI DUP4 PUSH1 0x40 DUP4 DUP8 ADD ADD MSTORE JUMPDEST POP PUSH1 0x1F ADD PUSH1 0x1F NOT AND SWAP3 SWAP1 SWAP3 ADD PUSH1 0x40 ADD SWAP4 SWAP3 POP POP POP JUMP JUMPDEST PUSH1 0x40 MLOAD PUSH1 0x1F DUP3 ADD PUSH1 0x1F NOT AND DUP2 ADD PUSH8 0xFFFFFFFFFFFFFFFF DUP2 GT DUP3 DUP3 LT OR ISZERO PUSH2 0xBCE JUMPI PUSH2 0xBCE PUSH2 0xC38 JUMP JUMPDEST PUSH1 0x40 MSTORE SWAP2 SWAP1 POP JUMP JUMPDEST PUSH1 0x1 DUP2 DUP2 SHR SWAP1 DUP3 AND DUP1 PUSH2 0xBEA JUMPI PUSH1 0x7F DUP3 AND SWAP2 POP JUMPDEST PUSH1 0x20 DUP3 LT DUP2 EQ ISZERO PUSH2 0xC0B JUMPI PUSH4 0x4E487B71 PUSH1 0xE0 SHL PUSH1 0x0 MSTORE PUSH1 0x22 PUSH1 0x4 MSTORE PUSH1 0x24 PUSH1 0x0 REVERT JUMPDEST POP SWAP2 SWAP1 POP JUMP JUMPDEST PUSH1 0x0 PUSH1 0x0 NOT DUP3 EQ ISZERO PUSH2 0xC31 JUMPI PUSH4 0x4E487B71 PUSH1 0xE0 SHL DUP2 MSTORE PUSH1 0x11 PUSH1 0x4 MSTORE PUSH1 0x24 DUP2 REVERT JUMPDEST POP PUSH1 0x1 ADD SWAP1 JUMP JUMPDEST PUSH4 0x4E487B71 PUSH1 0xE0 SHL PUSH1 0x0 MSTORE PUSH1 0x41 PUSH1 0x4 MSTORE PUSH1 0x24 PUSH1 0x0 REVERT INVALID LOG2 PUSH5 0x6970667358 0x22 SLT KECCAK256 PC MUL PUSH4 0x227C084D PUSH16 0x50A4073C3EC16B324DDD622FF2E5EDBB LT ORIGIN SLOAD CREATE 0xD5 STATICCALL 0xE8 0x2F PUSH5 0x736F6C6343 STOP ADDMOD DIV STOP CALLER "
        },
        "gasEstimates": {
          "creation": {
            "codeDepositCost": "640800",
            "executionCost": "21494",
            "totalCost": "662294"
          },
          "external": {
            "applyForMembership()": "infinite",
            "coreTeam(uint256)": "2113",
            "descriptionURI()": "infinite",
            "fetchAllApplicants()": "infinite",
            "initialize(address,uint256,address[],string,string)": "infinite",
            "initialized()": "1099",
            "membershipPrice()": "1040",
            "name()": "infinite",
            "parentAddress()": "1027",
            "userId()": "998",
            "users(address)": "2288"
          }
        },
        "methodIdentifiers": {
          "applyForMembership()": "5e1ee52a",
          "coreTeam(uint256)": "f1d2f93c",
          "descriptionURI()": "84619856",
          "fetchAllApplicants()": "99ef1fe0",
          "initialize(address,uint256,address[],string,string)": "14a88d61",
          "initialized()": "158ef93e",
          "membershipPrice()": "0de3226b",
          "name()": "06fdde03",
          "parentAddress()": "00821de3",
          "userId()": "58975919",
          "users(address)": "a87430ba"
        }
      },
      "storageLayout": {
        "storage": [
          {
            "astId": 394,
            "contract": "contracts/HackerHouseDAO.sol:HackerHouseDAO",
            "label": "parentAddress",
            "offset": 0,
            "slot": "0",
            "type": "t_address"
          },
          {
            "astId": 396,
            "contract": "contracts/HackerHouseDAO.sol:HackerHouseDAO",
            "label": "id",
            "offset": 0,
            "slot": "1",
            "type": "t_uint256"
          },
          {
            "astId": 399,
            "contract": "contracts/HackerHouseDAO.sol:HackerHouseDAO",
            "label": "userId",
            "offset": 0,
            "slot": "2",
            "type": "t_struct(Counter)5_storage"
          },
          {
            "astId": 401,
            "contract": "contracts/HackerHouseDAO.sol:HackerHouseDAO",
            "label": "name",
            "offset": 0,
            "slot": "3",
            "type": "t_string_storage"
          },
          {
            "astId": 403,
            "contract": "contracts/HackerHouseDAO.sol:HackerHouseDAO",
            "label": "descriptionURI",
            "offset": 0,
            "slot": "4",
            "type": "t_string_storage"
          },
          {
            "astId": 406,
            "contract": "contracts/HackerHouseDAO.sol:HackerHouseDAO",
            "label": "coreTeam",
            "offset": 0,
            "slot": "5",
            "type": "t_array(t_address)dyn_storage"
          },
          {
            "astId": 408,
            "contract": "contracts/HackerHouseDAO.sol:HackerHouseDAO",
            "label": "membershipPrice",
            "offset": 0,
            "slot": "6",
            "type": "t_uint256"
          },
          {
            "astId": 411,
            "contract": "contracts/HackerHouseDAO.sol:HackerHouseDAO",
            "label": "initialized",
            "offset": 0,
            "slot": "7",
            "type": "t_bool"
          },
          {
            "astId": 416,
            "contract": "contracts/HackerHouseDAO.sol:HackerHouseDAO",
            "label": "users",
            "offset": 0,
            "slot": "8",
            "type": "t_mapping(t_address,t_struct(User)431_storage)"
          },
          {
            "astId": 419,
            "contract": "contracts/HackerHouseDAO.sol:HackerHouseDAO",
            "label": "userAddresses",
            "offset": 0,
            "slot": "9",
            "type": "t_array(t_address)dyn_storage"
          }
        ],
        "types": {
          "t_address": {
            "encoding": "inplace",
            "label": "address",
            "numberOfBytes": "20"
          },
          "t_array(t_address)dyn_storage": {
            "base": "t_address",
            "encoding": "dynamic_array",
            "label": "address[]",
            "numberOfBytes": "32"
          },
          "t_bool": {
            "encoding": "inplace",
            "label": "bool",
            "numberOfBytes": "1"
          },
          "t_mapping(t_address,t_struct(User)431_storage)": {
            "encoding": "mapping",
            "key": "t_address",
            "label": "mapping(address => struct HackerHouseDAO.User)",
            "numberOfBytes": "32",
            "value": "t_struct(User)431_storage"
          },
          "t_string_storage": {
            "encoding": "bytes",
            "label": "string",
            "numberOfBytes": "32"
          },
          "t_struct(Counter)5_storage": {
            "encoding": "inplace",
            "label": "struct Counters.Counter",
            "members": [
              {
                "astId": 4,
                "contract": "contracts/HackerHouseDAO.sol:HackerHouseDAO",
                "label": "_value",
                "offset": 0,
                "slot": "0",
                "type": "t_uint256"
              }
            ],
            "numberOfBytes": "32"
          },
          "t_struct(User)431_storage": {
            "encoding": "inplace",
            "label": "struct HackerHouseDAO.User",
            "members": [
              {
                "astId": 421,
                "contract": "contracts/HackerHouseDAO.sol:HackerHouseDAO",
                "label": "id",
                "offset": 0,
                "slot": "0",
                "type": "t_uint256"
              },
              {
                "astId": 423,
                "contract": "contracts/HackerHouseDAO.sol:HackerHouseDAO",
                "label": "exists",
                "offset": 0,
                "slot": "1",
                "type": "t_bool"
              },
              {
                "astId": 425,
                "contract": "contracts/HackerHouseDAO.sol:HackerHouseDAO",
                "label": "userAddr",
                "offset": 1,
                "slot": "1",
                "type": "t_address"
              },
              {
                "astId": 427,
                "contract": "contracts/HackerHouseDAO.sol:HackerHouseDAO",
                "label": "isMember",
                "offset": 21,
                "slot": "1",
                "type": "t_bool"
              },
              {
                "astId": 430,
                "contract": "contracts/HackerHouseDAO.sol:HackerHouseDAO",
                "label": "approvers",
                "offset": 0,
                "slot": "2",
                "type": "t_array(t_address)dyn_storage"
              }
            ],
            "numberOfBytes": "96"
          },
          "t_uint256": {
            "encoding": "inplace",
            "label": "uint256",
            "numberOfBytes": "32"
          }
        }
      },
      "userdoc": {
        "kind": "user",
        "methods": {},
        "version": 1
      }
    }
  }
}