{
  "contracts/NomadicKeeper.sol": {
    "NomadicKeeper": {
      "abi": [
        {
          "inputs": [
            {
              "internalType": "bytes32",
              "name": "config_",
              "type": "bytes32"
            },
            {
              "internalType": "address",
              "name": "vault_",
              "type": "address"
            }
          ],
          "stateMutability": "nonpayable",
          "type": "constructor"
        },
        {
          "anonymous": false,
          "inputs": [
            {
              "indexed": false,
              "internalType": "bytes32",
              "name": "config",
              "type": "bytes32"
            }
          ],
          "name": "ConfigUpdated",
          "type": "event"
        },
        {
          "inputs": [
            {
              "internalType": "bytes",
              "name": "checkData",
              "type": "bytes"
            }
          ],
          "name": "checkUpkeep",
          "outputs": [
            {
              "internalType": "bool",
              "name": "upkeepNeeded",
              "type": "bool"
            },
            {
              "internalType": "bytes",
              "name": "performData",
              "type": "bytes"
            }
          ],
          "stateMutability": "view",
          "type": "function"
        },
        {
          "inputs": [],
          "name": "config",
          "outputs": [
            {
              "internalType": "bytes32",
              "name": "",
              "type": "bytes32"
            }
          ],
          "stateMutability": "view",
          "type": "function"
        },
        {
          "inputs": [],
          "name": "owner",
          "outputs": [
            {
              "internalType": "address",
              "name": "",
              "type": "address"
            }
          ],
          "stateMutability": "view",
          "type": "function"
        },
        {
          "inputs": [
            {
              "internalType": "bytes",
              "name": "performData",
              "type": "bytes"
            }
          ],
          "name": "performUpkeep",
          "outputs": [],
          "stateMutability": "nonpayable",
          "type": "function"
        },
        {
          "inputs": [
            {
              "internalType": "bytes32",
              "name": "config_",
              "type": "bytes32"
            }
          ],
          "name": "setConfig",
          "outputs": [],
          "stateMutability": "nonpayable",
          "type": "function"
        },
        {
          "inputs": [],
          "name": "vault",
          "outputs": [
            {
              "internalType": "address",
              "name": "",
              "type": "address"
            }
          ],
          "stateMutability": "view",
          "type": "function"
        }
      ],
      "devdoc": {
        "kind": "dev",
        "methods": {
          "checkUpkeep(bytes)": {
            "details": "To ensure that it is never called, you may want to add the cannotExecute modifier from KeeperBase to your implementation of this method.",
            "params": {
              "checkData": "specified in the upkeep registration so it is always the same for a registered upkeep. This can easily be broken down into specific arguments using `abi.decode`, so multiple upkeeps can be registered on the same contract and easily differentiated by the contract."
            },
            "returns": {
              "performData": "bytes that the keeper should call performUpkeep with, if upkeep is needed. If you would like to encode data to decode later, try `abi.encode`.",
              "upkeepNeeded": "boolean to indicate whether the keeper should call performUpkeep or not."
            }
          },
          "performUpkeep(bytes)": {
            "details": "The input to this method should not be trusted, and the caller of the method should not even be restricted to any single registry. Anyone should be able call it, and the input should be validated, there is no guarantee that the data passed in is the performData returned from checkUpkeep. This could happen due to malicious keepers, racing keepers, or simply a state change while the performUpkeep transaction is waiting for confirmation. Always validate the data passed in.",
            "params": {
              "performData": "is the data which was passed back from the checkData simulation. If it is encoded, it can easily be decoded into other types by calling `abi.decode`. This data should not be trusted, and should be validated against the contract's current state."
            }
          }
        },
        "version": 1
      },
      "evm": {
        "bytecode": {
          "linkReferences": {},
          "object": "6080604052600060025534801561001557600080fd5b5060405161052738038061052783398101604081905261003491610068565b600080546001600160a01b039092166001600160a01b031992831617905560039190915560018054909116331790556100a3565b6000806040838503121561007a578182fd5b825160208401519092506001600160a01b0381168114610098578182fd5b809150509250929050565b610475806100b26000396000f3fe608060405234801561001057600080fd5b50600436106100625760003560e01c80634585e33b146100675780636e04ff0d1461007c57806379502c55146100a65780638da5cb5b146100bd578063e8a5282d146100e8578063fbfa77cf146100fb575b600080fd5b61007a6100753660046102e8565b61010e565b005b61008f61008a3660046102e8565b6101c5565b60405161009d929190610371565b60405180910390f35b6100af60035481565b60405190815260200161009d565b6001546100d0906001600160a01b031681565b6040516001600160a01b03909116815260200161009d565b61007a6100f63660046102d0565b61021a565b6000546100d0906001600160a01b031681565b600061011861026c565b905080156101315761012d62015180426103d1565b6002555b80156101c05760005460408051600481526024810182526020810180516001600160e01b031663291ea5f960e21b17905290516001600160a01b039092169161017a9190610355565b6000604051808303816000865af19150503d80600081146101b7576040519150601f19603f3d011682016040523d82523d6000602084013e6101bc565b606091505b5050505b505050565b6000606060006101d361026c565b905080925084848080601f01602080910402602001604051908101604052809392919081815260200183838082843760009201919091525095989297509195505050505050565b6001546001600160a01b0316331461023157600080fd5b60038190556040518181527fccb09eca41724580447add45cd184f28cfa84b572edb6958b9f34862ebd6a9a69060200160405180910390a150565b6003546000908161028062015180426103d1565b905080600254106102945760009250505090565b600082811a9060076102a78460046103ad565b6102b19190610415565b9050600160ff8381169083161c16156102c957600194505b5050505090565b6000602082840312156102e1578081fd5b5035919050565b600080602083850312156102fa578081fd5b823567ffffffffffffffff80821115610311578283fd5b818501915085601f830112610324578283fd5b813581811115610332578384fd5b866020828501011115610343578384fd5b60209290920196919550909350505050565b600082516103678184602087016103e5565b9190910192915050565b821515815260406020820152600082518060408401526103988160608501602087016103e5565b601f01601f1916919091016060019392505050565b600082198211156103cc57634e487b7160e01b81526011600452602481fd5b500190565b6000826103e0576103e0610429565b500490565b60005b838110156104005781810151838201526020016103e8565b8381111561040f576000848401525b50505050565b60008261042457610424610429565b500690565b634e487b7160e01b600052601260045260246000fdfea2646970667358221220024664e2bb2801f712ea3835c46c17b4c1203ddcb2bd05c22885066bfb876e6464736f6c63430008040033",
          "opcodes": "PUSH1 0x80 PUSH1 0x40 MSTORE PUSH1 0x0 PUSH1 0x2 SSTORE CALLVALUE DUP1 ISZERO PUSH2 0x15 JUMPI PUSH1 0x0 DUP1 REVERT JUMPDEST POP PUSH1 0x40 MLOAD PUSH2 0x527 CODESIZE SUB DUP1 PUSH2 0x527 DUP4 CODECOPY DUP2 ADD PUSH1 0x40 DUP2 SWAP1 MSTORE PUSH2 0x34 SWAP2 PUSH2 0x68 JUMP JUMPDEST PUSH1 0x0 DUP1 SLOAD PUSH1 0x1 PUSH1 0x1 PUSH1 0xA0 SHL SUB SWAP1 SWAP3 AND PUSH1 0x1 PUSH1 0x1 PUSH1 0xA0 SHL SUB NOT SWAP3 DUP4 AND OR SWAP1 SSTORE PUSH1 0x3 SWAP2 SWAP1 SWAP2 SSTORE PUSH1 0x1 DUP1 SLOAD SWAP1 SWAP2 AND CALLER OR SWAP1 SSTORE PUSH2 0xA3 JUMP JUMPDEST PUSH1 0x0 DUP1 PUSH1 0x40 DUP4 DUP6 SUB SLT ISZERO PUSH2 0x7A JUMPI DUP2 DUP3 REVERT JUMPDEST DUP3 MLOAD PUSH1 0x20 DUP5 ADD MLOAD SWAP1 SWAP3 POP PUSH1 0x1 PUSH1 0x1 PUSH1 0xA0 SHL SUB DUP2 AND DUP2 EQ PUSH2 0x98 JUMPI DUP2 DUP3 REVERT JUMPDEST DUP1 SWAP2 POP POP SWAP3 POP SWAP3 SWAP1 POP JUMP JUMPDEST PUSH2 0x475 DUP1 PUSH2 0xB2 PUSH1 0x0 CODECOPY PUSH1 0x0 RETURN INVALID PUSH1 0x80 PUSH1 0x40 MSTORE CALLVALUE DUP1 ISZERO PUSH2 0x10 JUMPI PUSH1 0x0 DUP1 REVERT JUMPDEST POP PUSH1 0x4 CALLDATASIZE LT PUSH2 0x62 JUMPI PUSH1 0x0 CALLDATALOAD PUSH1 0xE0 SHR DUP1 PUSH4 0x4585E33B EQ PUSH2 0x67 JUMPI DUP1 PUSH4 0x6E04FF0D EQ PUSH2 0x7C JUMPI DUP1 PUSH4 0x79502C55 EQ PUSH2 0xA6 JUMPI DUP1 PUSH4 0x8DA5CB5B EQ PUSH2 0xBD JUMPI DUP1 PUSH4 0xE8A5282D EQ PUSH2 0xE8 JUMPI DUP1 PUSH4 0xFBFA77CF EQ PUSH2 0xFB JUMPI JUMPDEST PUSH1 0x0 DUP1 REVERT JUMPDEST PUSH2 0x7A PUSH2 0x75 CALLDATASIZE PUSH1 0x4 PUSH2 0x2E8 JUMP JUMPDEST PUSH2 0x10E JUMP JUMPDEST STOP JUMPDEST PUSH2 0x8F PUSH2 0x8A CALLDATASIZE PUSH1 0x4 PUSH2 0x2E8 JUMP JUMPDEST PUSH2 0x1C5 JUMP JUMPDEST PUSH1 0x40 MLOAD PUSH2 0x9D SWAP3 SWAP2 SWAP1 PUSH2 0x371 JUMP JUMPDEST PUSH1 0x40 MLOAD DUP1 SWAP2 SUB SWAP1 RETURN JUMPDEST PUSH2 0xAF PUSH1 0x3 SLOAD DUP2 JUMP JUMPDEST PUSH1 0x40 MLOAD SWAP1 DUP2 MSTORE PUSH1 0x20 ADD PUSH2 0x9D JUMP JUMPDEST PUSH1 0x1 SLOAD PUSH2 0xD0 SWAP1 PUSH1 0x1 PUSH1 0x1 PUSH1 0xA0 SHL SUB AND DUP2 JUMP JUMPDEST PUSH1 0x40 MLOAD PUSH1 0x1 PUSH1 0x1 PUSH1 0xA0 SHL SUB SWAP1 SWAP2 AND DUP2 MSTORE PUSH1 0x20 ADD PUSH2 0x9D JUMP JUMPDEST PUSH2 0x7A PUSH2 0xF6 CALLDATASIZE PUSH1 0x4 PUSH2 0x2D0 JUMP JUMPDEST PUSH2 0x21A JUMP JUMPDEST PUSH1 0x0 SLOAD PUSH2 0xD0 SWAP1 PUSH1 0x1 PUSH1 0x1 PUSH1 0xA0 SHL SUB AND DUP2 JUMP JUMPDEST PUSH1 0x0 PUSH2 0x118 PUSH2 0x26C JUMP JUMPDEST SWAP1 POP DUP1 ISZERO PUSH2 0x131 JUMPI PUSH2 0x12D PUSH3 0x15180 TIMESTAMP PUSH2 0x3D1 JUMP JUMPDEST PUSH1 0x2 SSTORE JUMPDEST DUP1 ISZERO PUSH2 0x1C0 JUMPI PUSH1 0x0 SLOAD PUSH1 0x40 DUP1 MLOAD PUSH1 0x4 DUP2 MSTORE PUSH1 0x24 DUP2 ADD DUP3 MSTORE PUSH1 0x20 DUP2 ADD DUP1 MLOAD PUSH1 0x1 PUSH1 0x1 PUSH1 0xE0 SHL SUB AND PUSH4 0x291EA5F9 PUSH1 0xE2 SHL OR SWAP1 MSTORE SWAP1 MLOAD PUSH1 0x1 PUSH1 0x1 PUSH1 0xA0 SHL SUB SWAP1 SWAP3 AND SWAP2 PUSH2 0x17A SWAP2 SWAP1 PUSH2 0x355 JUMP JUMPDEST PUSH1 0x0 PUSH1 0x40 MLOAD DUP1 DUP4 SUB DUP2 PUSH1 0x0 DUP7 GAS CALL SWAP2 POP POP RETURNDATASIZE DUP1 PUSH1 0x0 DUP2 EQ PUSH2 0x1B7 JUMPI PUSH1 0x40 MLOAD SWAP2 POP PUSH1 0x1F NOT PUSH1 0x3F RETURNDATASIZE ADD AND DUP3 ADD PUSH1 0x40 MSTORE RETURNDATASIZE DUP3 MSTORE RETURNDATASIZE PUSH1 0x0 PUSH1 0x20 DUP5 ADD RETURNDATACOPY PUSH2 0x1BC JUMP JUMPDEST PUSH1 0x60 SWAP2 POP JUMPDEST POP POP POP JUMPDEST POP POP POP JUMP JUMPDEST PUSH1 0x0 PUSH1 0x60 PUSH1 0x0 PUSH2 0x1D3 PUSH2 0x26C JUMP JUMPDEST SWAP1 POP DUP1 SWAP3 POP DUP5 DUP5 DUP1 DUP1 PUSH1 0x1F ADD PUSH1 0x20 DUP1 SWAP2 DIV MUL PUSH1 0x20 ADD PUSH1 0x40 MLOAD SWAP1 DUP2 ADD PUSH1 0x40 MSTORE DUP1 SWAP4 SWAP3 SWAP2 SWAP1 DUP2 DUP2 MSTORE PUSH1 0x20 ADD DUP4 DUP4 DUP1 DUP3 DUP5 CALLDATACOPY PUSH1 0x0 SWAP3 ADD SWAP2 SWAP1 SWAP2 MSTORE POP SWAP6 SWAP9 SWAP3 SWAP8 POP SWAP2 SWAP6 POP POP POP POP POP POP JUMP JUMPDEST PUSH1 0x1 SLOAD PUSH1 0x1 PUSH1 0x1 PUSH1 0xA0 SHL SUB AND CALLER EQ PUSH2 0x231 JUMPI PUSH1 0x0 DUP1 REVERT JUMPDEST PUSH1 0x3 DUP2 SWAP1 SSTORE PUSH1 0x40 MLOAD DUP2 DUP2 MSTORE PUSH32 0xCCB09ECA41724580447ADD45CD184F28CFA84B572EDB6958B9F34862EBD6A9A6 SWAP1 PUSH1 0x20 ADD PUSH1 0x40 MLOAD DUP1 SWAP2 SUB SWAP1 LOG1 POP JUMP JUMPDEST PUSH1 0x3 SLOAD PUSH1 0x0 SWAP1 DUP2 PUSH2 0x280 PUSH3 0x15180 TIMESTAMP PUSH2 0x3D1 JUMP JUMPDEST SWAP1 POP DUP1 PUSH1 0x2 SLOAD LT PUSH2 0x294 JUMPI PUSH1 0x0 SWAP3 POP POP POP SWAP1 JUMP JUMPDEST PUSH1 0x0 DUP3 DUP2 BYTE SWAP1 PUSH1 0x7 PUSH2 0x2A7 DUP5 PUSH1 0x4 PUSH2 0x3AD JUMP JUMPDEST PUSH2 0x2B1 SWAP2 SWAP1 PUSH2 0x415 JUMP JUMPDEST SWAP1 POP PUSH1 0x1 PUSH1 0xFF DUP4 DUP2 AND SWAP1 DUP4 AND SHR AND ISZERO PUSH2 0x2C9 JUMPI PUSH1 0x1 SWAP5 POP JUMPDEST POP POP POP POP SWAP1 JUMP JUMPDEST PUSH1 0x0 PUSH1 0x20 DUP3 DUP5 SUB SLT ISZERO PUSH2 0x2E1 JUMPI DUP1 DUP2 REVERT JUMPDEST POP CALLDATALOAD SWAP2 SWAP1 POP JUMP JUMPDEST PUSH1 0x0 DUP1 PUSH1 0x20 DUP4 DUP6 SUB SLT ISZERO PUSH2 0x2FA JUMPI DUP1 DUP2 REVERT JUMPDEST DUP3 CALLDATALOAD PUSH8 0xFFFFFFFFFFFFFFFF DUP1 DUP3 GT ISZERO PUSH2 0x311 JUMPI DUP3 DUP4 REVERT JUMPDEST DUP2 DUP6 ADD SWAP2 POP DUP6 PUSH1 0x1F DUP4 ADD SLT PUSH2 0x324 JUMPI DUP3 DUP4 REVERT JUMPDEST DUP2 CALLDATALOAD DUP2 DUP2 GT ISZERO PUSH2 0x332 JUMPI DUP4 DUP5 REVERT JUMPDEST DUP7 PUSH1 0x20 DUP3 DUP6 ADD ADD GT ISZERO PUSH2 0x343 JUMPI DUP4 DUP5 REVERT JUMPDEST PUSH1 0x20 SWAP3 SWAP1 SWAP3 ADD SWAP7 SWAP2 SWAP6 POP SWAP1 SWAP4 POP POP POP POP JUMP JUMPDEST PUSH1 0x0 DUP3 MLOAD PUSH2 0x367 DUP2 DUP5 PUSH1 0x20 DUP8 ADD PUSH2 0x3E5 JUMP JUMPDEST SWAP2 SWAP1 SWAP2 ADD SWAP3 SWAP2 POP POP JUMP JUMPDEST DUP3 ISZERO ISZERO DUP2 MSTORE PUSH1 0x40 PUSH1 0x20 DUP3 ADD MSTORE PUSH1 0x0 DUP3 MLOAD DUP1 PUSH1 0x40 DUP5 ADD MSTORE PUSH2 0x398 DUP2 PUSH1 0x60 DUP6 ADD PUSH1 0x20 DUP8 ADD PUSH2 0x3E5 JUMP JUMPDEST PUSH1 0x1F ADD PUSH1 0x1F NOT AND SWAP2 SWAP1 SWAP2 ADD PUSH1 0x60 ADD SWAP4 SWAP3 POP POP POP JUMP JUMPDEST PUSH1 0x0 DUP3 NOT DUP3 GT ISZERO PUSH2 0x3CC JUMPI PUSH4 0x4E487B71 PUSH1 0xE0 SHL DUP2 MSTORE PUSH1 0x11 PUSH1 0x4 MSTORE PUSH1 0x24 DUP2 REVERT JUMPDEST POP ADD SWAP1 JUMP JUMPDEST PUSH1 0x0 DUP3 PUSH2 0x3E0 JUMPI PUSH2 0x3E0 PUSH2 0x429 JUMP JUMPDEST POP DIV SWAP1 JUMP JUMPDEST PUSH1 0x0 JUMPDEST DUP4 DUP2 LT ISZERO PUSH2 0x400 JUMPI DUP2 DUP2 ADD MLOAD DUP4 DUP3 ADD MSTORE PUSH1 0x20 ADD PUSH2 0x3E8 JUMP JUMPDEST DUP4 DUP2 GT ISZERO PUSH2 0x40F JUMPI PUSH1 0x0 DUP5 DUP5 ADD MSTORE JUMPDEST POP POP POP POP JUMP JUMPDEST PUSH1 0x0 DUP3 PUSH2 0x424 JUMPI PUSH2 0x424 PUSH2 0x429 JUMP JUMPDEST POP MOD SWAP1 JUMP JUMPDEST PUSH4 0x4E487B71 PUSH1 0xE0 SHL PUSH1 0x0 MSTORE PUSH1 0x12 PUSH1 0x4 MSTORE PUSH1 0x24 PUSH1 0x0 REVERT INVALID LOG2 PUSH5 0x6970667358 0x22 SLT KECCAK256 MUL CHAINID PUSH5 0xE2BB2801F7 SLT 0xEA CODESIZE CALLDATALOAD 0xC4 PUSH13 0x17B4C1203DDCB2BD05C2288506 PUSH12 0xFB876E6464736F6C63430008 DIV STOP CALLER "
        },
        "gasEstimates": {
          "creation": {
            "codeDepositCost": "228200",
            "executionCost": "infinite",
            "totalCost": "infinite"
          },
          "external": {
            "checkUpkeep(bytes)": "infinite",
            "config()": "1017",
            "owner()": "1081",
            "performUpkeep(bytes)": "infinite",
            "setConfig(bytes32)": "22195",
            "vault()": "1125"
          },
          "internal": {
            "_shouldRun()": "1927"
          }
        },
        "methodIdentifiers": {
          "checkUpkeep(bytes)": "6e04ff0d",
          "config()": "79502c55",
          "owner()": "8da5cb5b",
          "performUpkeep(bytes)": "4585e33b",
          "setConfig(bytes32)": "e8a5282d",
          "vault()": "fbfa77cf"
        }
      },
      "storageLayout": {
        "storage": [
          {
            "astId": 68,
            "contract": "contracts/NomadicKeeper.sol:NomadicKeeper",
            "label": "vault",
            "offset": 0,
            "slot": "0",
            "type": "t_address"
          },
          {
            "astId": 70,
            "contract": "contracts/NomadicKeeper.sol:NomadicKeeper",
            "label": "owner",
            "offset": 0,
            "slot": "1",
            "type": "t_address"
          },
          {
            "astId": 73,
            "contract": "contracts/NomadicKeeper.sol:NomadicKeeper",
            "label": "lastRunDay",
            "offset": 0,
            "slot": "2",
            "type": "t_uint256"
          },
          {
            "astId": 75,
            "contract": "contracts/NomadicKeeper.sol:NomadicKeeper",
            "label": "config",
            "offset": 0,
            "slot": "3",
            "type": "t_bytes32"
          }
        ],
        "types": {
          "t_address": {
            "encoding": "inplace",
            "label": "address",
            "numberOfBytes": "20"
          },
          "t_bytes32": {
            "encoding": "inplace",
            "label": "bytes32",
            "numberOfBytes": "32"
          },
          "t_uint256": {
            "encoding": "inplace",
            "label": "uint256",
            "numberOfBytes": "32"
          }
        }
      },
      "userdoc": {
        "kind": "user",
        "methods": {
          "checkUpkeep(bytes)": {
            "notice": "method that is simulated by the keepers to see if any work actually needs to be performed. This method does does not actually need to be executable, and since it is only ever simulated it can consume lots of gas."
          },
          "performUpkeep(bytes)": {
            "notice": "method that is actually executed by the keepers, via the registry. The data returned by the checkUpkeep simulation will be passed into this method to actually be executed."
          }
        },
        "version": 1
      }
    }
  }
}